{"contracts/RideHailing.sol":{"RideHailing":{"abi":[{"inputs":[],"stateMutability":"nonpayable","type":"constructor"},{"anonymous":false,"inputs":[{"indexed":true,"internalType":"bytes32","name":"id","type":"bytes32"}],"name":"ChainlinkCancelled","type":"event"},{"anonymous":false,"inputs":[{"indexed":true,"internalType":"bytes32","name":"id","type":"bytes32"}],"name":"ChainlinkFulfilled","type":"event"},{"anonymous":false,"inputs":[{"indexed":true,"internalType":"bytes32","name":"id","type":"bytes32"}],"name":"ChainlinkRequested","type":"event"},{"anonymous":false,"inputs":[{"indexed":true,"internalType":"address","name":"rider","type":"address"},{"indexed":true,"internalType":"uint256","name":"rideId","type":"uint256"},{"indexed":false,"internalType":"uint256","name":"rating","type":"uint256"}],"name":"DriverRated","type":"event"},{"anonymous":false,"inputs":[{"indexed":true,"internalType":"address","name":"previousOwner","type":"address"},{"indexed":true,"internalType":"address","name":"newOwner","type":"address"}],"name":"OwnershipTransferred","type":"event"},{"anonymous":false,"inputs":[{"indexed":false,"internalType":"bytes32","name":"_requestId","type":"bytes32"},{"indexed":false,"internalType":"string","name":"_status","type":"string"}],"name":"RequestVolume","type":"event"},{"anonymous":false,"inputs":[{"indexed":true,"internalType":"address","name":"driver","type":"address"},{"indexed":true,"internalType":"uint256","name":"rideId","type":"uint256"}],"name":"RideAccepted","type":"event"},{"anonymous":false,"inputs":[{"indexed":true,"internalType":"address","name":"rider","type":"address"},{"indexed":true,"internalType":"uint256","name":"rideId","type":"uint256"}],"name":"RideCancelled","type":"event"},{"anonymous":false,"inputs":[{"indexed":true,"internalType":"address","name":"rider","type":"address"},{"indexed":true,"internalType":"uint256","name":"rideId","type":"uint256"}],"name":"RideCompleted","type":"event"},{"anonymous":false,"inputs":[{"indexed":true,"internalType":"address","name":"rider","type":"address"},{"indexed":true,"internalType":"uint256","name":"rideId","type":"uint256"},{"indexed":false,"internalType":"uint256","name":"fare","type":"uint256"}],"name":"RideRequested","type":"event"},{"anonymous":false,"inputs":[{"indexed":true,"internalType":"address","name":"user","type":"address"}],"name":"UserRegistered","type":"event"},{"inputs":[{"internalType":"uint256","name":"_rideId","type":"uint256"}],"name":"acceptRide","outputs":[],"stateMutability":"nonpayable","type":"function"},{"inputs":[{"internalType":"uint256","name":"_rideId","type":"uint256"}],"name":"cancelRide","outputs":[],"stateMutability":"payable","type":"function"},{"inputs":[{"internalType":"uint256","name":"_rideId","type":"uint256"},{"internalType":"uint256","name":"_rating","type":"uint256"}],"name":"completeRideAndRateDriver","outputs":[],"stateMutability":"payable","type":"function"},{"inputs":[],"name":"distance","outputs":[{"internalType":"uint256","name":"","type":"uint256"}],"stateMutability":"view","type":"function"},{"inputs":[{"internalType":"bytes32","name":"_requestId","type":"bytes32"},{"internalType":"string","name":"_status","type":"string"}],"name":"fulfillDistance","outputs":[],"stateMutability":"nonpayable","type":"function"},{"inputs":[],"name":"getPricePerMeter","outputs":[{"internalType":"uint256","name":"","type":"uint256"}],"stateMutability":"view","type":"function"},{"inputs":[{"internalType":"uint256","name":"_rideId","type":"uint256"}],"name":"getRide","outputs":[{"components":[{"internalType":"address payable","name":"rider","type":"address"},{"internalType":"address payable","name":"driver","type":"address"},{"internalType":"uint256","name":"fare","type":"uint256"},{"internalType":"bool","name":"rideCompleted","type":"bool"},{"internalType":"string","name":"estdTime","type":"string"},{"internalType":"uint256","name":"rating","type":"uint256"}],"internalType":"struct RideHailing.Ride","name":"ride","type":"tuple"}],"stateMutability":"view","type":"function"},{"inputs":[],"name":"owner","outputs":[{"internalType":"address","name":"","type":"address"}],"stateMutability":"view","type":"function"},{"inputs":[],"name":"pricePerMeter","outputs":[{"internalType":"uint256","name":"","type":"uint256"}],"stateMutability":"view","type":"function"},{"inputs":[],"name":"registerUser","outputs":[],"stateMutability":"nonpayable","type":"function"},{"inputs":[{"internalType":"address","name":"","type":"address"}],"name":"registeredUsers","outputs":[{"internalType":"bool","name":"","type":"bool"}],"stateMutability":"view","type":"function"},{"inputs":[],"name":"renounceOwnership","outputs":[],"stateMutability":"nonpayable","type":"function"},{"inputs":[{"internalType":"string","name":"_pickup","type":"string"},{"internalType":"string","name":"_drop","type":"string"}],"name":"requestRide","outputs":[],"stateMutability":"payable","type":"function"},{"inputs":[],"name":"rideCount","outputs":[{"internalType":"uint256","name":"","type":"uint256"}],"stateMutability":"view","type":"function"},{"inputs":[{"internalType":"uint256","name":"","type":"uint256"}],"name":"rides","outputs":[{"internalType":"address payable","name":"rider","type":"address"},{"internalType":"address payable","name":"driver","type":"address"},{"internalType":"uint256","name":"fare","type":"uint256"},{"internalType":"bool","name":"rideCompleted","type":"bool"},{"internalType":"string","name":"estdTime","type":"string"},{"internalType":"uint256","name":"rating","type":"uint256"}],"stateMutability":"view","type":"function"},{"inputs":[{"internalType":"uint256","name":"newPrice","type":"uint256"}],"name":"setPricePerMeter","outputs":[],"stateMutability":"nonpayable","type":"function"},{"inputs":[],"name":"status","outputs":[{"internalType":"string","name":"","type":"string"}],"stateMutability":"view","type":"function"},{"inputs":[{"internalType":"address","name":"newOwner","type":"address"}],"name":"transferOwnership","outputs":[],"stateMutability":"nonpayable","type":"function"},{"stateMutability":"payable","type":"receive"}],"devdoc":{"kind":"dev","methods":{"acceptRide(uint256)":{"params":{"_rideId":"The ID of the ride to accept"}},"cancelRide(uint256)":{"params":{"_rideId":"The ID of the ride to cancel"}},"completeRideAndRateDriver(uint256,uint256)":{"params":{"_rideId":"The ID of the ride to complete"}},"fulfillDistance(bytes32,string)":{"details":"Callback function for Chainlink oracle response"},"owner()":{"details":"Returns the address of the current owner."},"renounceOwnership()":{"details":"Leaves the contract without owner. It will not be possible to call `onlyOwner` functions. Can only be called by the current owner. NOTE: Renouncing ownership will leave the contract without an owner, thereby disabling any functionality that is only available to the owner."},"requestRide(string,string)":{"params":{"_drop":"The drop location","_pickup":"The pickup location"}},"setPricePerMeter(uint256)":{"params":{"newPrice":"The new price per meter"}},"transferOwnership(address)":{"details":"Transfers ownership of the contract to a new account (`newOwner`). Can only be called by the current owner."}},"title":"A Ride Hailing smart contract","version":1},"evm":{"bytecode":{"linkReferences":{},"object":"608060405260016005556103e8600a553480156200001c57600080fd5b506200002833620000ea565b600380546001600160a01b03191673326c977e6efc84e512bb9c30f76e30c160ed06fb179055600480546001600160a01b0319167340193c8518bb267228fc409a613bdbd8ec5a97b3179055600b80546001600160a01b0319167340193c8518bb267228fc409a613bdbd8ec5a97b31790557f3764383061363338366566353433613361626235323831376636373037653362600c55600a620000d5670de0b6b3a764000060016200013a565b620000e1919062000166565b600d5562000189565b600080546001600160a01b038381166001600160a01b0319831681178455604051919092169283917f8be0079c531659141344cd1fd0a4f28419497f9722a3daafe3b4186f6b6457e09190a35050565b80820281158282048414176200016057634e487b7160e01b600052601160045260246000fd5b92915050565b6000826200018457634e487b7160e01b600052601260045260246000fd5b500490565b611f0a80620001996000396000f3fe60806040526004361061010d5760003560e01c80637c7b0ff411610095578063b47c188311610064578063b47c1883146102c5578063c51562cb146102db578063cdc230b0146102fb578063f2fde38b1461031b578063ff46f4ad1461033b57600080fd5b80637c7b0ff41461024a5780638da5cb5b14610277578063a6f07b291461029f578063ac4bfb03146102b257600080fd5b80634d3820eb116100dc5780634d3820eb146101b95780635205f112146101ce5780636bad66f614610200578063712bfa1e14610220578063715018a61461023557600080fd5b80630e50cee514610119578063200d2ed21461015e57806346912fa5146101805780634851375c1461019557600080fd5b3661011457005b600080fd5b34801561012557600080fd5b5061014961013436600461172f565b60086020526000908152604090205460ff1681565b60405190151581526020015b60405180910390f35b34801561016a57600080fd5b50610173610351565b60405161015591906117af565b61019361018e3660046117c2565b6103df565b005b3480156101a157600080fd5b506101ab600e5481565b604051908152602001610155565b3480156101c557600080fd5b50610193610585565b3480156101da57600080fd5b506101ee6101e93660046117e4565b610627565b604051610155969594939291906117fd565b34801561020c57600080fd5b5061019361021b3660046117e4565b6106f7565b34801561022c57600080fd5b50600a546101ab565b34801561024157600080fd5b50610193610704565b34801561025657600080fd5b5061026a6102653660046117e4565b610718565b604051610155919061184a565b34801561028357600080fd5b506000546040516001600160a01b039091168152602001610155565b6101936102ad3660046117e4565b610845565b6101936102c0366004611956565b6109e6565b3480156102d157600080fd5b506101ab60095481565b3480156102e757600080fd5b506101936102f63660046117e4565b610b4f565b34801561030757600080fd5b506101936103163660046119ba565b610c53565b34801561032757600080fd5b5061019361033636600461172f565b610d54565b34801561034757600080fd5b506101ab600a5481565b600f805461035e906119f7565b80601f016020809104026020016040519081016040528092919081815260200182805461038a906119f7565b80156103d75780601f106103ac576101008083540402835291602001916103d7565b820191906000526020600020905b8154815290600101906020018083116103ba57829003601f168201915b505050505081565b600082815260076020526040902080546001600160a01b0316331461044b5760405162461bcd60e51b815260206004820181905260248201527f4f6e6c792072696465722063616e20636f6d706c65746520746865207269646560448201526064015b60405180910390fd5b600381015460ff16156104a05760405162461bcd60e51b815260206004820152601660248201527f5269646520616c726561647920636f6d706c65746564000000000000000000006044820152606401610442565b80600201543410156104b157600080fd5b60038101805460ff1916600117905560058101829055805460405184916001600160a01b0316907fed11881b5dd0f44958691c5ac088d3a81ac7e8f8bbd6dd990a8b427f8c3b38ef90600090a3805460405183815284916001600160a01b0316907fe98cf6f49fe14bfcccf0fe5dda3a92e34aa6a8f8efae027d95930c416fcc3ac39060200160405180910390a3600181015460028201546040516001600160a01b039092169181156108fc0291906000818181858888f1935050505015801561057f573d6000803e3d6000fd5b50505050565b3360009081526008602052604090205460ff16156105e55760405162461bcd60e51b815260206004820152601760248201527f5573657220616c726561647920726567697374657265640000000000000000006044820152606401610442565b33600081815260086020526040808220805460ff19166001179055517f54db7a5cb4735e1aac1f53db512d3390390bb6637bd30ad4bf9fc98667d9b9b99190a2565b600760205260009081526040902080546001820154600283015460038401546004850180546001600160a01b03958616969490951694929360ff9092169261066e906119f7565b80601f016020809104026020016040519081016040528092919081815260200182805461069a906119f7565b80156106e75780601f106106bc576101008083540402835291602001916106e7565b820191906000526020600020905b8154815290600101906020018083116106ca57829003601f168201915b5050505050908060050154905086565b6106ff610dcd565b600a55565b61070c610dcd565b6107166000610e27565b565b6040805160c0810182526000808252602082018190529181018290526060808201839052608082015260a0810191909152600082815260076020908152604091829020825160c08101845281546001600160a01b03908116825260018301541692810192909252600281015492820192909252600382015460ff16151560608201526004820180549192916080840191906107b2906119f7565b80601f01602080910402602001604051908101604052809291908181526020018280546107de906119f7565b801561082b5780601f106108005761010080835404028352916020019161082b565b820191906000526020600020905b81548152906001019060200180831161080e57829003601f168201915b505050505081526020016005820154815250509050919050565b600081815260076020526040902080546001600160a01b031633146108ac5760405162461bcd60e51b815260206004820152601e60248201527f4f6e6c792072696465722063616e2063616e63656c20746865207269646500006044820152606401610442565b60018101546001600160a01b0316156109135760405162461bcd60e51b8152602060048201526024808201527f5269646520616c72656164792061636365707465642c2063616e6e6f742063616044820152631b98d95b60e21b6064820152608401610442565b600381015460ff16156109685760405162461bcd60e51b815260206004820152601660248201527f5269646520616c726561647920636f6d706c65746564000000000000000000006044820152606401610442565b60038101805460ff19166001179055604051829033907f94654e1242c379bfa05e192407226c3e8b0862176f28e48c23aff6057a82798d90600090a3805460028201546040516001600160a01b039092169181156108fc0291906000818181858888f193505050501580156109e1573d6000803e3d6000fd5b505050565b3360009081526008602052604090205460ff16610a3b5760405162461bcd60e51b8152602060048201526013602482015272155cd95c881b9bdd081c9959da5cdd195c9959606a1b6044820152606401610442565b610a458282610e77565b506040805160c0810182523381526000602080830182815283850183815260608501848152865180850188528581526080870190815260a087018690526009548652600790945295909320845181546001600160a01b03199081166001600160a01b03928316178355925160018301805490941691161790915591516002830155925160038201805460ff191691151591909117905591519091906004820190610aef9082611a79565b5060a091909101516005909101556009546040516000815233907f0b365df8b2edeb27d7b308aaf9ad3e1f2ff53483d6893ab98c780885ba4bc6399060200160405180910390a360098054906000610b4683611b4f565b91905055505050565b600081815260076020908152604080832033845260089092529091205460ff16610bb15760405162461bcd60e51b8152602060048201526013602482015272155cd95c881b9bdd081c9959da5cdd195c9959606a1b6044820152606401610442565b60018101546001600160a01b031615610c0c5760405162461bcd60e51b815260206004820152601560248201527f5269646520616c726561647920616363657074656400000000000000000000006044820152606401610442565b6001810180546001600160a01b031916339081179091556040518391907f87348e58c77a96989aaef43c7d87d383c1f283c3a3c3d319b96630ef2c0f906a90600090a35050565b60008281526006602052604090205482906001600160a01b03163314610ccc5760405162461bcd60e51b815260206004820152602860248201527f536f75726365206d75737420626520746865206f7261636c65206f6620746865604482015267081c995c5d595cdd60c21b6064820152608401610442565b60008181526006602052604080822080546001600160a01b03191690555182917f7cc135e0cebb02c3480ae5d74d377283180a2601f8f644edf7987b009316c63a91a27f9ba3b568d237411b006cd782aa975fd1783097cb4198316e11a24cf10f4f3f8e8383604051610d40929190611b68565b60405180910390a1600f61057f8382611a79565b610d5c610dcd565b6001600160a01b038116610dc15760405162461bcd60e51b815260206004820152602660248201527f4f776e61626c653a206e6577206f776e657220697320746865207a65726f206160448201526564647265737360d01b6064820152608401610442565b610dca81610e27565b50565b6000546001600160a01b031633146107165760405162461bcd60e51b815260206004820181905260248201527f4f776e61626c653a2063616c6c6572206973206e6f7420746865206f776e65726044820152606401610442565b600080546001600160a01b038381166001600160a01b0319831681178455604051919092169283917f8be0079c531659141344cd1fd0a4f28419497f9722a3daafe3b4186f6b6457e09190a35050565b6000610e838383610e9c565b600a54600e54610e939190611b81565b90505b92915050565b6000610eb2600c543063cdc230b060e01b610fd0565b90506000604051806060016040528060388152602001611e9d603891396040805180820190915260088152671a5b5c195c9a585b60c21b60208201529091506000858583610efe611061565b604051602001610f119493929190611b98565b6040516020818303038152906040529050610f6c6040518060400160405280600381526020016219d95d60ea1b8152508483604051602001610f54929190611c54565b60408051601f19818403018152919052869190611084565b610fbb604051806040016040528060048152602001630e0c2e8d60e31b8152506040518060400160405280600681526020016573746174757360d01b815250866110849092919063ffffffff16565b610fc784600d546110a2565b50505050505050565b61100e6040805160a0810182526000808252602080830182905282840182905260608084018390528451808601909552845283015290608082015290565b61104c6040805160a0810182526000808252602080830182905282840182905260608084018390528451808601909552845283015290608082015290565b611058818686866110bc565b95945050505050565b60606000604051806060016040528060278152602001611e766027913992915050565b60808301516110939083611138565b60808301516109e19082611138565b600454600090610e93906001600160a01b0316848461114f565b6110fa6040805160a0810182526000808252602080830182905282840182905260608084018390528451808601909552845283015290608082015290565b61110a85608001516101006111f7565b50508284526001600160a01b03821660208501526001600160e01b031981166040850152835b949350505050565b611145826003835161125c565b6109e1828261136b565b600554600090611160816001611c90565b600555835160408086015160808701515191516000936320214ca360e11b936111989386938493923092918a91600191602401611ca3565b60408051601f198184030181529190526020810180517bffffffffffffffffffffffffffffffffffffffffffffffffffffffff166001600160e01b03199093169290921790915290506111ed86838684611392565b9695505050505050565b604080518082019091526060815260006020820152611217602083611d06565b1561123f57611227602083611d06565b611232906020611d28565b61123c9083611c90565b91505b506020828101829052604080518085526000815290920101905290565b60178167ffffffffffffffff16116112815761057f8360e0600585901b1683176114f0565b60ff8167ffffffffffffffff16116112bf576112a8836018611fe0600586901b16176114f0565b5061057f8367ffffffffffffffff83166001611515565b61ffff8167ffffffffffffffff16116112fe576112e7836019611fe0600586901b16176114f0565b5061057f8367ffffffffffffffff83166002611515565b63ffffffff8167ffffffffffffffff161161133f5761132883601a611fe0600586901b16176114f0565b5061057f8367ffffffffffffffff83166004611515565b61135483601b611fe0600586901b16176114f0565b5061057f8367ffffffffffffffff83166008611515565b604080518082019091526060815260006020820152610e938384600001515184855161153b565b6040516bffffffffffffffffffffffff193060601b1660208201526034810184905260009060540160408051808303601f1901815282825280516020918201206000818152600690925291812080546001600160a01b0319166001600160a01b038a1617905590925082917fb5e6e01e79f91267dc17b4e6314d5d4d03593d2ceee0fbb452b750bd70ea5af99190a2600354604051630200057560e51b81526001600160a01b0390911690634000aea09061145590889087908790600401611d3b565b6020604051808303816000875af1158015611474573d6000803e3d6000fd5b505050506040513d601f19601f820116820180604052508101906114989190611d63565b6111305760405162461bcd60e51b815260206004820152602360248201527f756e61626c6520746f207472616e73666572416e6443616c6c20746f206f7261604482015262636c6560e81b6064820152608401610442565b604080518082019091526060815260006020820152610e938384600001515184611625565b604080518082019091526060815260006020820152611130848560000151518585611680565b604080518082019091526060815260006020820152825182111561155e57600080fd5b602085015161156d8386611c90565b11156115a0576115a0856115908760200151878661158b9190611c90565b611701565b61159b906002611b81565b611718565b6000808651805187602083010193508088870111156115bf5787860182525b505050602084015b602084106115ff57805182526115de602083611c90565b91506115eb602082611c90565b90506115f8602085611d28565b93506115c7565b51815160001960208690036101000a019081169019919091161790525083949350505050565b6040805180820190915260608152600060208201528360200151831061165a5761165a848560200151600261159b9190611b81565b8351805160208583010184815350808503611676576001810182525b5093949350505050565b60408051808201909152606081526000602082015260208501516116a48584611c90565b11156116b8576116b8856115908685611c90565b600060016116c884610100611e69565b6116d29190611d28565b90508551838682010185831982511617815250805184870111156116f65783860181525b509495945050505050565b600081831115611712575081610e96565b50919050565b815161172483836111f7565b5061057f838261136b565b60006020828403121561174157600080fd5b81356001600160a01b038116811461175857600080fd5b9392505050565b60005b8381101561177a578181015183820152602001611762565b50506000910152565b6000815180845261179b81602086016020860161175f565b601f01601f19169290920160200192915050565b602081526000610e936020830184611783565b600080604083850312156117d557600080fd5b50508035926020909101359150565b6000602082840312156117f657600080fd5b5035919050565b60006001600160a01b038089168352808816602084015250856040830152841515606083015260c0608083015261183760c0830185611783565b90508260a0830152979650505050505050565b6020815260006001600160a01b038084511660208401528060208501511660408401525060408301516060830152606083015115156080830152608083015160c060a084015261189d60e0840182611783565b905060a084015160c08401528091505092915050565b634e487b7160e01b600052604160045260246000fd5b600082601f8301126118da57600080fd5b813567ffffffffffffffff808211156118f5576118f56118b3565b604051601f8301601f19908116603f0116810190828211818310171561191d5761191d6118b3565b8160405283815286602085880101111561193657600080fd5b836020870160208301376000602085830101528094505050505092915050565b6000806040838503121561196957600080fd5b823567ffffffffffffffff8082111561198157600080fd5b61198d868387016118c9565b935060208501359150808211156119a357600080fd5b506119b0858286016118c9565b9150509250929050565b600080604083850312156119cd57600080fd5b82359150602083013567ffffffffffffffff8111156119eb57600080fd5b6119b0858286016118c9565b600181811c90821680611a0b57607f821691505b60208210810361171257634e487b7160e01b600052602260045260246000fd5b601f8211156109e157600081815260208120601f850160051c81016020861015611a525750805b601f850160051c820191505b81811015611a7157828155600101611a5e565b505050505050565b815167ffffffffffffffff811115611a9357611a936118b3565b611aa781611aa184546119f7565b84611a2b565b602080601f831160018114611adc5760008415611ac45750858301515b600019600386901b1c1916600185901b178555611a71565b600085815260208120601f198616915b82811015611b0b57888601518255948401946001909101908401611aec565b5085821015611b295787850151600019600388901b60f8161c191681555b5050505050600190811b01905550565b634e487b7160e01b600052601160045260246000fd5b600060018201611b6157611b61611b39565b5060010190565b8281526040602082015260006111306040830184611783565b8082028115828204841417610e9657610e96611b39565b676f726967696e733d60c01b815260008551611bbb816008850160208a0161175f565b7f2664657374696e6174696f6e733d0000000000000000000000000000000000006008918401918201528551611bf8816016840160208a0161175f565b6626756e6974733d60c81b601692909101918201528451611c2081601d84016020890161175f565b64266b65793d60d81b601d92909101918201528351611c4681602284016020880161175f565b016022019695505050505050565b60008351611c6681846020880161175f565b603f60f81b9083019081528351611c8481600184016020880161175f565b01600101949350505050565b80820180821115610e9657610e96611b39565b60006101006001600160a01b03808c1684528a602085015289604085015280891660608501525063ffffffff60e01b871660808401528560a08401528460c08401528060e0840152611cf781840185611783565b9b9a5050505050505050505050565b600082611d2357634e487b7160e01b600052601260045260246000fd5b500690565b81810381811115610e9657610e96611b39565b6001600160a01b03841681528260208201526060604082015260006110586060830184611783565b600060208284031215611d7557600080fd5b8151801515811461175857600080fd5b600181815b80851115611dc0578160001904821115611da657611da6611b39565b80851615611db357918102915b93841c9390800290611d8a565b509250929050565b600082611dd757506001610e96565b81611de457506000610e96565b8160018114611dfa5760028114611e0457611e20565b6001915050610e96565b60ff841115611e1557611e15611b39565b50506001821b610e96565b5060208310610133831016604e8410600b8410161715611e43575081810a610e96565b611e4d8383611d85565b8060001904821115611e6157611e61611b39565b029392505050565b6000610e938383611dc856fe41497a61537944463072677a31376a3951504939344e77443852506963386b745669773879495568747470733a2f2f6d6170732e676f6f676c65617069732e636f6d2f6d6170732f6170692f64697374616e63656d61747269782f6a736f6ea26469706673582212208c3530366938ac69d6a1720259ab15256b6e6ea2522c189224c5f9f257a97b0964736f6c63430008110033","opcodes":"PUSH1 0x80 PUSH1 0x40 MSTORE PUSH1 0x1 PUSH1 0x5 SSTORE PUSH2 0x3E8 PUSH1 0xA SSTORE CALLVALUE DUP1 ISZERO PUSH3 0x1C JUMPI PUSH1 0x0 DUP1 REVERT JUMPDEST POP PUSH3 0x28 CALLER PUSH3 0xEA JUMP JUMPDEST PUSH1 0x3 DUP1 SLOAD PUSH1 0x1 PUSH1 0x1 PUSH1 0xA0 SHL SUB NOT AND PUSH20 0x326C977E6EFC84E512BB9C30F76E30C160ED06FB OR SWAP1 SSTORE PUSH1 0x4 DUP1 SLOAD PUSH1 0x1 PUSH1 0x1 PUSH1 0xA0 SHL SUB NOT AND PUSH20 0x40193C8518BB267228FC409A613BDBD8EC5A97B3 OR SWAP1 SSTORE PUSH1 0xB DUP1 SLOAD PUSH1 0x1 PUSH1 0x1 PUSH1 0xA0 SHL SUB NOT AND PUSH20 0x40193C8518BB267228FC409A613BDBD8EC5A97B3 OR SWAP1 SSTORE PUSH32 0x3764383061363338366566353433613361626235323831376636373037653362 PUSH1 0xC SSTORE PUSH1 0xA PUSH3 0xD5 PUSH8 0xDE0B6B3A7640000 PUSH1 0x1 PUSH3 0x13A JUMP JUMPDEST PUSH3 0xE1 SWAP2 SWAP1 PUSH3 0x166 JUMP JUMPDEST PUSH1 0xD SSTORE PUSH3 0x189 JUMP JUMPDEST PUSH1 0x0 DUP1 SLOAD PUSH1 0x1 PUSH1 0x1 PUSH1 0xA0 SHL SUB DUP4 DUP2 AND PUSH1 0x1 PUSH1 0x1 PUSH1 0xA0 SHL SUB NOT DUP4 AND DUP2 OR DUP5 SSTORE PUSH1 0x40 MLOAD SWAP2 SWAP1 SWAP3 AND SWAP3 DUP4 SWAP2 PUSH32 0x8BE0079C531659141344CD1FD0A4F28419497F9722A3DAAFE3B4186F6B6457E0 SWAP2 SWAP1 LOG3 POP POP JUMP JUMPDEST DUP1 DUP3 MUL DUP2 ISZERO DUP3 DUP3 DIV DUP5 EQ OR PUSH3 0x160 JUMPI PUSH4 0x4E487B71 PUSH1 0xE0 SHL PUSH1 0x0 MSTORE PUSH1 0x11 PUSH1 0x4 MSTORE PUSH1 0x24 PUSH1 0x0 REVERT JUMPDEST SWAP3 SWAP2 POP POP JUMP JUMPDEST PUSH1 0x0 DUP3 PUSH3 0x184 JUMPI PUSH4 0x4E487B71 PUSH1 0xE0 SHL PUSH1 0x0 MSTORE PUSH1 0x12 PUSH1 0x4 MSTORE PUSH1 0x24 PUSH1 0x0 REVERT JUMPDEST POP DIV SWAP1 JUMP JUMPDEST PUSH2 0x1F0A DUP1 PUSH3 0x199 PUSH1 0x0 CODECOPY PUSH1 0x0 RETURN INVALID PUSH1 0x80 PUSH1 0x40 MSTORE PUSH1 0x4 CALLDATASIZE LT PUSH2 0x10D JUMPI PUSH1 0x0 CALLDATALOAD PUSH1 0xE0 SHR DUP1 PUSH4 0x7C7B0FF4 GT PUSH2 0x95 JUMPI DUP1 PUSH4 0xB47C1883 GT PUSH2 0x64 JUMPI DUP1 PUSH4 0xB47C1883 EQ PUSH2 0x2C5 JUMPI DUP1 PUSH4 0xC51562CB EQ PUSH2 0x2DB JUMPI DUP1 PUSH4 0xCDC230B0 EQ PUSH2 0x2FB JUMPI DUP1 PUSH4 0xF2FDE38B EQ PUSH2 0x31B JUMPI DUP1 PUSH4 0xFF46F4AD EQ PUSH2 0x33B JUMPI PUSH1 0x0 DUP1 REVERT JUMPDEST DUP1 PUSH4 0x7C7B0FF4 EQ PUSH2 0x24A JUMPI DUP1 PUSH4 0x8DA5CB5B EQ PUSH2 0x277 JUMPI DUP1 PUSH4 0xA6F07B29 EQ PUSH2 0x29F JUMPI DUP1 PUSH4 0xAC4BFB03 EQ PUSH2 0x2B2 JUMPI PUSH1 0x0 DUP1 REVERT JUMPDEST DUP1 PUSH4 0x4D3820EB GT PUSH2 0xDC JUMPI DUP1 PUSH4 0x4D3820EB EQ PUSH2 0x1B9 JUMPI DUP1 PUSH4 0x5205F112 EQ PUSH2 0x1CE JUMPI DUP1 PUSH4 0x6BAD66F6 EQ PUSH2 0x200 JUMPI DUP1 PUSH4 0x712BFA1E EQ PUSH2 0x220 JUMPI DUP1 PUSH4 0x715018A6 EQ PUSH2 0x235 JUMPI PUSH1 0x0 DUP1 REVERT JUMPDEST DUP1 PUSH4 0xE50CEE5 EQ PUSH2 0x119 JUMPI DUP1 PUSH4 0x200D2ED2 EQ PUSH2 0x15E JUMPI DUP1 PUSH4 0x46912FA5 EQ PUSH2 0x180 JUMPI DUP1 PUSH4 0x4851375C EQ PUSH2 0x195 JUMPI PUSH1 0x0 DUP1 REVERT JUMPDEST CALLDATASIZE PUSH2 0x114 JUMPI STOP JUMPDEST PUSH1 0x0 DUP1 REVERT JUMPDEST CALLVALUE DUP1 ISZERO PUSH2 0x125 JUMPI PUSH1 0x0 DUP1 REVERT JUMPDEST POP PUSH2 0x149 PUSH2 0x134 CALLDATASIZE PUSH1 0x4 PUSH2 0x172F JUMP JUMPDEST PUSH1 0x8 PUSH1 0x20 MSTORE PUSH1 0x0 SWAP1 DUP2 MSTORE PUSH1 0x40 SWAP1 KECCAK256 SLOAD PUSH1 0xFF AND DUP2 JUMP JUMPDEST PUSH1 0x40 MLOAD SWAP1 ISZERO ISZERO DUP2 MSTORE PUSH1 0x20 ADD JUMPDEST PUSH1 0x40 MLOAD DUP1 SWAP2 SUB SWAP1 RETURN JUMPDEST CALLVALUE DUP1 ISZERO PUSH2 0x16A JUMPI PUSH1 0x0 DUP1 REVERT JUMPDEST POP PUSH2 0x173 PUSH2 0x351 JUMP JUMPDEST PUSH1 0x40 MLOAD PUSH2 0x155 SWAP2 SWAP1 PUSH2 0x17AF JUMP JUMPDEST PUSH2 0x193 PUSH2 0x18E CALLDATASIZE PUSH1 0x4 PUSH2 0x17C2 JUMP JUMPDEST PUSH2 0x3DF JUMP JUMPDEST STOP JUMPDEST CALLVALUE DUP1 ISZERO PUSH2 0x1A1 JUMPI PUSH1 0x0 DUP1 REVERT JUMPDEST POP PUSH2 0x1AB PUSH1 0xE SLOAD DUP2 JUMP JUMPDEST PUSH1 0x40 MLOAD SWAP1 DUP2 MSTORE PUSH1 0x20 ADD PUSH2 0x155 JUMP JUMPDEST CALLVALUE DUP1 ISZERO PUSH2 0x1C5 JUMPI PUSH1 0x0 DUP1 REVERT JUMPDEST POP PUSH2 0x193 PUSH2 0x585 JUMP JUMPDEST CALLVALUE DUP1 ISZERO PUSH2 0x1DA JUMPI PUSH1 0x0 DUP1 REVERT JUMPDEST POP PUSH2 0x1EE PUSH2 0x1E9 CALLDATASIZE PUSH1 0x4 PUSH2 0x17E4 JUMP JUMPDEST PUSH2 0x627 JUMP JUMPDEST PUSH1 0x40 MLOAD PUSH2 0x155 SWAP7 SWAP6 SWAP5 SWAP4 SWAP3 SWAP2 SWAP1 PUSH2 0x17FD JUMP JUMPDEST CALLVALUE DUP1 ISZERO PUSH2 0x20C JUMPI PUSH1 0x0 DUP1 REVERT JUMPDEST POP PUSH2 0x193 PUSH2 0x21B CALLDATASIZE PUSH1 0x4 PUSH2 0x17E4 JUMP JUMPDEST PUSH2 0x6F7 JUMP JUMPDEST CALLVALUE DUP1 ISZERO PUSH2 0x22C JUMPI PUSH1 0x0 DUP1 REVERT JUMPDEST POP PUSH1 0xA SLOAD PUSH2 0x1AB JUMP JUMPDEST CALLVALUE DUP1 ISZERO PUSH2 0x241 JUMPI PUSH1 0x0 DUP1 REVERT JUMPDEST POP PUSH2 0x193 PUSH2 0x704 JUMP JUMPDEST CALLVALUE DUP1 ISZERO PUSH2 0x256 JUMPI PUSH1 0x0 DUP1 REVERT JUMPDEST POP PUSH2 0x26A PUSH2 0x265 CALLDATASIZE PUSH1 0x4 PUSH2 0x17E4 JUMP JUMPDEST PUSH2 0x718 JUMP JUMPDEST PUSH1 0x40 MLOAD PUSH2 0x155 SWAP2 SWAP1 PUSH2 0x184A JUMP JUMPDEST CALLVALUE DUP1 ISZERO PUSH2 0x283 JUMPI PUSH1 0x0 DUP1 REVERT JUMPDEST POP PUSH1 0x0 SLOAD PUSH1 0x40 MLOAD PUSH1 0x1 PUSH1 0x1 PUSH1 0xA0 SHL SUB SWAP1 SWAP2 AND DUP2 MSTORE PUSH1 0x20 ADD PUSH2 0x155 JUMP JUMPDEST PUSH2 0x193 PUSH2 0x2AD CALLDATASIZE PUSH1 0x4 PUSH2 0x17E4 JUMP JUMPDEST PUSH2 0x845 JUMP JUMPDEST PUSH2 0x193 PUSH2 0x2C0 CALLDATASIZE PUSH1 0x4 PUSH2 0x1956 JUMP JUMPDEST PUSH2 0x9E6 JUMP JUMPDEST CALLVALUE DUP1 ISZERO PUSH2 0x2D1 JUMPI PUSH1 0x0 DUP1 REVERT JUMPDEST POP PUSH2 0x1AB PUSH1 0x9 SLOAD DUP2 JUMP JUMPDEST CALLVALUE DUP1 ISZERO PUSH2 0x2E7 JUMPI PUSH1 0x0 DUP1 REVERT JUMPDEST POP PUSH2 0x193 PUSH2 0x2F6 CALLDATASIZE PUSH1 0x4 PUSH2 0x17E4 JUMP JUMPDEST PUSH2 0xB4F JUMP JUMPDEST CALLVALUE DUP1 ISZERO PUSH2 0x307 JUMPI PUSH1 0x0 DUP1 REVERT JUMPDEST POP PUSH2 0x193 PUSH2 0x316 CALLDATASIZE PUSH1 0x4 PUSH2 0x19BA JUMP JUMPDEST PUSH2 0xC53 JUMP JUMPDEST CALLVALUE DUP1 ISZERO PUSH2 0x327 JUMPI PUSH1 0x0 DUP1 REVERT JUMPDEST POP PUSH2 0x193 PUSH2 0x336 CALLDATASIZE PUSH1 0x4 PUSH2 0x172F JUMP JUMPDEST PUSH2 0xD54 JUMP JUMPDEST CALLVALUE DUP1 ISZERO PUSH2 0x347 JUMPI PUSH1 0x0 DUP1 REVERT JUMPDEST POP PUSH2 0x1AB PUSH1 0xA SLOAD DUP2 JUMP JUMPDEST PUSH1 0xF DUP1 SLOAD PUSH2 0x35E SWAP1 PUSH2 0x19F7 JUMP JUMPDEST DUP1 PUSH1 0x1F ADD PUSH1 0x20 DUP1 SWAP2 DIV MUL PUSH1 0x20 ADD PUSH1 0x40 MLOAD SWAP1 DUP2 ADD PUSH1 0x40 MSTORE DUP1 SWAP3 SWAP2 SWAP1 DUP2 DUP2 MSTORE PUSH1 0x20 ADD DUP3 DUP1 SLOAD PUSH2 0x38A SWAP1 PUSH2 0x19F7 JUMP JUMPDEST DUP1 ISZERO PUSH2 0x3D7 JUMPI DUP1 PUSH1 0x1F LT PUSH2 0x3AC JUMPI PUSH2 0x100 DUP1 DUP4 SLOAD DIV MUL DUP4 MSTORE SWAP2 PUSH1 0x20 ADD SWAP2 PUSH2 0x3D7 JUMP JUMPDEST DUP3 ADD SWAP2 SWAP1 PUSH1 0x0 MSTORE PUSH1 0x20 PUSH1 0x0 KECCAK256 SWAP1 JUMPDEST DUP2 SLOAD DUP2 MSTORE SWAP1 PUSH1 0x1 ADD SWAP1 PUSH1 0x20 ADD DUP1 DUP4 GT PUSH2 0x3BA JUMPI DUP3 SWAP1 SUB PUSH1 0x1F AND DUP3 ADD SWAP2 JUMPDEST POP POP POP POP POP DUP2 JUMP JUMPDEST PUSH1 0x0 DUP3 DUP2 MSTORE PUSH1 0x7 PUSH1 0x20 MSTORE PUSH1 0x40 SWAP1 KECCAK256 DUP1 SLOAD PUSH1 0x1 PUSH1 0x1 PUSH1 0xA0 SHL SUB AND CALLER EQ PUSH2 0x44B JUMPI PUSH1 0x40 MLOAD PUSH3 0x461BCD PUSH1 0xE5 SHL DUP2 MSTORE PUSH1 0x20 PUSH1 0x4 DUP3 ADD DUP2 SWAP1 MSTORE PUSH1 0x24 DUP3 ADD MSTORE PUSH32 0x4F6E6C792072696465722063616E20636F6D706C657465207468652072696465 PUSH1 0x44 DUP3 ADD MSTORE PUSH1 0x64 ADD JUMPDEST PUSH1 0x40 MLOAD DUP1 SWAP2 SUB SWAP1 REVERT JUMPDEST PUSH1 0x3 DUP2 ADD SLOAD PUSH1 0xFF AND ISZERO PUSH2 0x4A0 JUMPI PUSH1 0x40 MLOAD PUSH3 0x461BCD PUSH1 0xE5 SHL DUP2 MSTORE PUSH1 0x20 PUSH1 0x4 DUP3 ADD MSTORE PUSH1 0x16 PUSH1 0x24 DUP3 ADD MSTORE PUSH32 0x5269646520616C726561647920636F6D706C6574656400000000000000000000 PUSH1 0x44 DUP3 ADD MSTORE PUSH1 0x64 ADD PUSH2 0x442 JUMP JUMPDEST DUP1 PUSH1 0x2 ADD SLOAD CALLVALUE LT ISZERO PUSH2 0x4B1 JUMPI PUSH1 0x0 DUP1 REVERT JUMPDEST PUSH1 0x3 DUP2 ADD DUP1 SLOAD PUSH1 0xFF NOT AND PUSH1 0x1 OR SWAP1 SSTORE PUSH1 0x5 DUP2 ADD DUP3 SWAP1 SSTORE DUP1 SLOAD PUSH1 0x40 MLOAD DUP5 SWAP2 PUSH1 0x1 PUSH1 0x1 PUSH1 0xA0 SHL SUB AND SWAP1 PUSH32 0xED11881B5DD0F44958691C5AC088D3A81AC7E8F8BBD6DD990A8B427F8C3B38EF SWAP1 PUSH1 0x0 SWAP1 LOG3 DUP1 SLOAD PUSH1 0x40 MLOAD DUP4 DUP2 MSTORE DUP5 SWAP2 PUSH1 0x1 PUSH1 0x1 PUSH1 0xA0 SHL SUB AND SWAP1 PUSH32 0xE98CF6F49FE14BFCCCF0FE5DDA3A92E34AA6A8F8EFAE027D95930C416FCC3AC3 SWAP1 PUSH1 0x20 ADD PUSH1 0x40 MLOAD DUP1 SWAP2 SUB SWAP1 LOG3 PUSH1 0x1 DUP2 ADD SLOAD PUSH1 0x2 DUP3 ADD SLOAD PUSH1 0x40 MLOAD PUSH1 0x1 PUSH1 0x1 PUSH1 0xA0 SHL SUB SWAP1 SWAP3 AND SWAP2 DUP2 ISZERO PUSH2 0x8FC MUL SWAP2 SWAP1 PUSH1 0x0 DUP2 DUP2 DUP2 DUP6 DUP9 DUP9 CALL SWAP4 POP POP POP POP ISZERO DUP1 ISZERO PUSH2 0x57F JUMPI RETURNDATASIZE PUSH1 0x0 DUP1 RETURNDATACOPY RETURNDATASIZE PUSH1 0x0 REVERT JUMPDEST POP POP POP POP JUMP JUMPDEST CALLER PUSH1 0x0 SWAP1 DUP2 MSTORE PUSH1 0x8 PUSH1 0x20 MSTORE PUSH1 0x40 SWAP1 KECCAK256 SLOAD PUSH1 0xFF AND ISZERO PUSH2 0x5E5 JUMPI PUSH1 0x40 MLOAD PUSH3 0x461BCD PUSH1 0xE5 SHL DUP2 MSTORE PUSH1 0x20 PUSH1 0x4 DUP3 ADD MSTORE PUSH1 0x17 PUSH1 0x24 DUP3 ADD MSTORE PUSH32 0x5573657220616C72656164792072656769737465726564000000000000000000 PUSH1 0x44 DUP3 ADD MSTORE PUSH1 0x64 ADD PUSH2 0x442 JUMP JUMPDEST CALLER PUSH1 0x0 DUP2 DUP2 MSTORE PUSH1 0x8 PUSH1 0x20 MSTORE PUSH1 0x40 DUP1 DUP3 KECCAK256 DUP1 SLOAD PUSH1 0xFF NOT AND PUSH1 0x1 OR SWAP1 SSTORE MLOAD PUSH32 0x54DB7A5CB4735E1AAC1F53DB512D3390390BB6637BD30AD4BF9FC98667D9B9B9 SWAP2 SWAP1 LOG2 JUMP JUMPDEST PUSH1 0x7 PUSH1 0x20 MSTORE PUSH1 0x0 SWAP1 DUP2 MSTORE PUSH1 0x40 SWAP1 KECCAK256 DUP1 SLOAD PUSH1 0x1 DUP3 ADD SLOAD PUSH1 0x2 DUP4 ADD SLOAD PUSH1 0x3 DUP5 ADD SLOAD PUSH1 0x4 DUP6 ADD DUP1 SLOAD PUSH1 0x1 PUSH1 0x1 PUSH1 0xA0 SHL SUB SWAP6 DUP7 AND SWAP7 SWAP5 SWAP1 SWAP6 AND SWAP5 SWAP3 SWAP4 PUSH1 0xFF SWAP1 SWAP3 AND SWAP3 PUSH2 0x66E SWAP1 PUSH2 0x19F7 JUMP JUMPDEST DUP1 PUSH1 0x1F ADD PUSH1 0x20 DUP1 SWAP2 DIV MUL PUSH1 0x20 ADD PUSH1 0x40 MLOAD SWAP1 DUP2 ADD PUSH1 0x40 MSTORE DUP1 SWAP3 SWAP2 SWAP1 DUP2 DUP2 MSTORE PUSH1 0x20 ADD DUP3 DUP1 SLOAD PUSH2 0x69A SWAP1 PUSH2 0x19F7 JUMP JUMPDEST DUP1 ISZERO PUSH2 0x6E7 JUMPI DUP1 PUSH1 0x1F LT PUSH2 0x6BC JUMPI PUSH2 0x100 DUP1 DUP4 SLOAD DIV MUL DUP4 MSTORE SWAP2 PUSH1 0x20 ADD SWAP2 PUSH2 0x6E7 JUMP JUMPDEST DUP3 ADD SWAP2 SWAP1 PUSH1 0x0 MSTORE PUSH1 0x20 PUSH1 0x0 KECCAK256 SWAP1 JUMPDEST DUP2 SLOAD DUP2 MSTORE SWAP1 PUSH1 0x1 ADD SWAP1 PUSH1 0x20 ADD DUP1 DUP4 GT PUSH2 0x6CA JUMPI DUP3 SWAP1 SUB PUSH1 0x1F AND DUP3 ADD SWAP2 JUMPDEST POP POP POP POP POP SWAP1 DUP1 PUSH1 0x5 ADD SLOAD SWAP1 POP DUP7 JUMP JUMPDEST PUSH2 0x6FF PUSH2 0xDCD JUMP JUMPDEST PUSH1 0xA SSTORE JUMP JUMPDEST PUSH2 0x70C PUSH2 0xDCD JUMP JUMPDEST PUSH2 0x716 PUSH1 0x0 PUSH2 0xE27 JUMP JUMPDEST JUMP JUMPDEST PUSH1 0x40 DUP1 MLOAD PUSH1 0xC0 DUP2 ADD DUP3 MSTORE PUSH1 0x0 DUP1 DUP3 MSTORE PUSH1 0x20 DUP3 ADD DUP2 SWAP1 MSTORE SWAP2 DUP2 ADD DUP3 SWAP1 MSTORE PUSH1 0x60 DUP1 DUP3 ADD DUP4 SWAP1 MSTORE PUSH1 0x80 DUP3 ADD MSTORE PUSH1 0xA0 DUP2 ADD SWAP2 SWAP1 SWAP2 MSTORE PUSH1 0x0 DUP3 DUP2 MSTORE PUSH1 0x7 PUSH1 0x20 SWAP1 DUP2 MSTORE PUSH1 0x40 SWAP2 DUP3 SWAP1 KECCAK256 DUP3 MLOAD PUSH1 0xC0 DUP2 ADD DUP5 MSTORE DUP2 SLOAD PUSH1 0x1 PUSH1 0x1 PUSH1 0xA0 SHL SUB SWAP1 DUP2 AND DUP3 MSTORE PUSH1 0x1 DUP4 ADD SLOAD AND SWAP3 DUP2 ADD SWAP3 SWAP1 SWAP3 MSTORE PUSH1 0x2 DUP2 ADD SLOAD SWAP3 DUP3 ADD SWAP3 SWAP1 SWAP3 MSTORE PUSH1 0x3 DUP3 ADD SLOAD PUSH1 0xFF AND ISZERO ISZERO PUSH1 0x60 DUP3 ADD MSTORE PUSH1 0x4 DUP3 ADD DUP1 SLOAD SWAP2 SWAP3 SWAP2 PUSH1 0x80 DUP5 ADD SWAP2 SWAP1 PUSH2 0x7B2 SWAP1 PUSH2 0x19F7 JUMP JUMPDEST DUP1 PUSH1 0x1F ADD PUSH1 0x20 DUP1 SWAP2 DIV MUL PUSH1 0x20 ADD PUSH1 0x40 MLOAD SWAP1 DUP2 ADD PUSH1 0x40 MSTORE DUP1 SWAP3 SWAP2 SWAP1 DUP2 DUP2 MSTORE PUSH1 0x20 ADD DUP3 DUP1 SLOAD PUSH2 0x7DE SWAP1 PUSH2 0x19F7 JUMP JUMPDEST DUP1 ISZERO PUSH2 0x82B JUMPI DUP1 PUSH1 0x1F LT PUSH2 0x800 JUMPI PUSH2 0x100 DUP1 DUP4 SLOAD DIV MUL DUP4 MSTORE SWAP2 PUSH1 0x20 ADD SWAP2 PUSH2 0x82B JUMP JUMPDEST DUP3 ADD SWAP2 SWAP1 PUSH1 0x0 MSTORE PUSH1 0x20 PUSH1 0x0 KECCAK256 SWAP1 JUMPDEST DUP2 SLOAD DUP2 MSTORE SWAP1 PUSH1 0x1 ADD SWAP1 PUSH1 0x20 ADD DUP1 DUP4 GT PUSH2 0x80E JUMPI DUP3 SWAP1 SUB PUSH1 0x1F AND DUP3 ADD SWAP2 JUMPDEST POP POP POP POP POP DUP2 MSTORE PUSH1 0x20 ADD PUSH1 0x5 DUP3 ADD SLOAD DUP2 MSTORE POP POP SWAP1 POP SWAP2 SWAP1 POP JUMP JUMPDEST PUSH1 0x0 DUP2 DUP2 MSTORE PUSH1 0x7 PUSH1 0x20 MSTORE PUSH1 0x40 SWAP1 KECCAK256 DUP1 SLOAD PUSH1 0x1 PUSH1 0x1 PUSH1 0xA0 SHL SUB AND CALLER EQ PUSH2 0x8AC JUMPI PUSH1 0x40 MLOAD PUSH3 0x461BCD PUSH1 0xE5 SHL DUP2 MSTORE PUSH1 0x20 PUSH1 0x4 DUP3 ADD MSTORE PUSH1 0x1E PUSH1 0x24 DUP3 ADD MSTORE PUSH32 0x4F6E6C792072696465722063616E2063616E63656C2074686520726964650000 PUSH1 0x44 DUP3 ADD MSTORE PUSH1 0x64 ADD PUSH2 0x442 JUMP JUMPDEST PUSH1 0x1 DUP2 ADD SLOAD PUSH1 0x1 PUSH1 0x1 PUSH1 0xA0 SHL SUB AND ISZERO PUSH2 0x913 JUMPI PUSH1 0x40 MLOAD PUSH3 0x461BCD PUSH1 0xE5 SHL DUP2 MSTORE PUSH1 0x20 PUSH1 0x4 DUP3 ADD MSTORE PUSH1 0x24 DUP1 DUP3 ADD MSTORE PUSH32 0x5269646520616C72656164792061636365707465642C2063616E6E6F74206361 PUSH1 0x44 DUP3 ADD MSTORE PUSH4 0x1B98D95B PUSH1 0xE2 SHL PUSH1 0x64 DUP3 ADD MSTORE PUSH1 0x84 ADD PUSH2 0x442 JUMP JUMPDEST PUSH1 0x3 DUP2 ADD SLOAD PUSH1 0xFF AND ISZERO PUSH2 0x968 JUMPI PUSH1 0x40 MLOAD PUSH3 0x461BCD PUSH1 0xE5 SHL DUP2 MSTORE PUSH1 0x20 PUSH1 0x4 DUP3 ADD MSTORE PUSH1 0x16 PUSH1 0x24 DUP3 ADD MSTORE PUSH32 0x5269646520616C726561647920636F6D706C6574656400000000000000000000 PUSH1 0x44 DUP3 ADD MSTORE PUSH1 0x64 ADD PUSH2 0x442 JUMP JUMPDEST PUSH1 0x3 DUP2 ADD DUP1 SLOAD PUSH1 0xFF NOT AND PUSH1 0x1 OR SWAP1 SSTORE PUSH1 0x40 MLOAD DUP3 SWAP1 CALLER SWAP1 PUSH32 0x94654E1242C379BFA05E192407226C3E8B0862176F28E48C23AFF6057A82798D SWAP1 PUSH1 0x0 SWAP1 LOG3 DUP1 SLOAD PUSH1 0x2 DUP3 ADD SLOAD PUSH1 0x40 MLOAD PUSH1 0x1 PUSH1 0x1 PUSH1 0xA0 SHL SUB SWAP1 SWAP3 AND SWAP2 DUP2 ISZERO PUSH2 0x8FC MUL SWAP2 SWAP1 PUSH1 0x0 DUP2 DUP2 DUP2 DUP6 DUP9 DUP9 CALL SWAP4 POP POP POP POP ISZERO DUP1 ISZERO PUSH2 0x9E1 JUMPI RETURNDATASIZE PUSH1 0x0 DUP1 RETURNDATACOPY RETURNDATASIZE PUSH1 0x0 REVERT JUMPDEST POP POP POP JUMP JUMPDEST CALLER PUSH1 0x0 SWAP1 DUP2 MSTORE PUSH1 0x8 PUSH1 0x20 MSTORE PUSH1 0x40 SWAP1 KECCAK256 SLOAD PUSH1 0xFF AND PUSH2 0xA3B JUMPI PUSH1 0x40 MLOAD PUSH3 0x461BCD PUSH1 0xE5 SHL DUP2 MSTORE PUSH1 0x20 PUSH1 0x4 DUP3 ADD MSTORE PUSH1 0x13 PUSH1 0x24 DUP3 ADD MSTORE PUSH19 0x155CD95C881B9BDD081C9959DA5CDD195C9959 PUSH1 0x6A SHL PUSH1 0x44 DUP3 ADD MSTORE PUSH1 0x64 ADD PUSH2 0x442 JUMP JUMPDEST PUSH2 0xA45 DUP3 DUP3 PUSH2 0xE77 JUMP JUMPDEST POP PUSH1 0x40 DUP1 MLOAD PUSH1 0xC0 DUP2 ADD DUP3 MSTORE CALLER DUP2 MSTORE PUSH1 0x0 PUSH1 0x20 DUP1 DUP4 ADD DUP3 DUP2 MSTORE DUP4 DUP6 ADD DUP4 DUP2 MSTORE PUSH1 0x60 DUP6 ADD DUP5 DUP2 MSTORE DUP7 MLOAD DUP1 DUP6 ADD DUP9 MSTORE DUP6 DUP2 MSTORE PUSH1 0x80 DUP8 ADD SWAP1 DUP2 MSTORE PUSH1 0xA0 DUP8 ADD DUP7 SWAP1 MSTORE PUSH1 0x9 SLOAD DUP7 MSTORE PUSH1 0x7 SWAP1 SWAP5 MSTORE SWAP6 SWAP1 SWAP4 KECCAK256 DUP5 MLOAD DUP2 SLOAD PUSH1 0x1 PUSH1 0x1 PUSH1 0xA0 SHL SUB NOT SWAP1 DUP2 AND PUSH1 0x1 PUSH1 0x1 PUSH1 0xA0 SHL SUB SWAP3 DUP4 AND OR DUP4 SSTORE SWAP3 MLOAD PUSH1 0x1 DUP4 ADD DUP1 SLOAD SWAP1 SWAP5 AND SWAP2 AND OR SWAP1 SWAP2 SSTORE SWAP2 MLOAD PUSH1 0x2 DUP4 ADD SSTORE SWAP3 MLOAD PUSH1 0x3 DUP3 ADD DUP1 SLOAD PUSH1 0xFF NOT AND SWAP2 ISZERO ISZERO SWAP2 SWAP1 SWAP2 OR SWAP1 SSTORE SWAP2 MLOAD SWAP1 SWAP2 SWAP1 PUSH1 0x4 DUP3 ADD SWAP1 PUSH2 0xAEF SWAP1 DUP3 PUSH2 0x1A79 JUMP JUMPDEST POP PUSH1 0xA0 SWAP2 SWAP1 SWAP2 ADD MLOAD PUSH1 0x5 SWAP1 SWAP2 ADD SSTORE PUSH1 0x9 SLOAD PUSH1 0x40 MLOAD PUSH1 0x0 DUP2 MSTORE CALLER SWAP1 PUSH32 0xB365DF8B2EDEB27D7B308AAF9AD3E1F2FF53483D6893AB98C780885BA4BC639 SWAP1 PUSH1 0x20 ADD PUSH1 0x40 MLOAD DUP1 SWAP2 SUB SWAP1 LOG3 PUSH1 0x9 DUP1 SLOAD SWAP1 PUSH1 0x0 PUSH2 0xB46 DUP4 PUSH2 0x1B4F JUMP JUMPDEST SWAP2 SWAP1 POP SSTORE POP POP POP JUMP JUMPDEST PUSH1 0x0 DUP2 DUP2 MSTORE PUSH1 0x7 PUSH1 0x20 SWAP1 DUP2 MSTORE PUSH1 0x40 DUP1 DUP4 KECCAK256 CALLER DUP5 MSTORE PUSH1 0x8 SWAP1 SWAP3 MSTORE SWAP1 SWAP2 KECCAK256 SLOAD PUSH1 0xFF AND PUSH2 0xBB1 JUMPI PUSH1 0x40 MLOAD PUSH3 0x461BCD PUSH1 0xE5 SHL DUP2 MSTORE PUSH1 0x20 PUSH1 0x4 DUP3 ADD MSTORE PUSH1 0x13 PUSH1 0x24 DUP3 ADD MSTORE PUSH19 0x155CD95C881B9BDD081C9959DA5CDD195C9959 PUSH1 0x6A SHL PUSH1 0x44 DUP3 ADD MSTORE PUSH1 0x64 ADD PUSH2 0x442 JUMP JUMPDEST PUSH1 0x1 DUP2 ADD SLOAD PUSH1 0x1 PUSH1 0x1 PUSH1 0xA0 SHL SUB AND ISZERO PUSH2 0xC0C JUMPI PUSH1 0x40 MLOAD PUSH3 0x461BCD PUSH1 0xE5 SHL DUP2 MSTORE PUSH1 0x20 PUSH1 0x4 DUP3 ADD MSTORE PUSH1 0x15 PUSH1 0x24 DUP3 ADD MSTORE PUSH32 0x5269646520616C72656164792061636365707465640000000000000000000000 PUSH1 0x44 DUP3 ADD MSTORE PUSH1 0x64 ADD PUSH2 0x442 JUMP JUMPDEST PUSH1 0x1 DUP2 ADD DUP1 SLOAD PUSH1 0x1 PUSH1 0x1 PUSH1 0xA0 SHL SUB NOT AND CALLER SWAP1 DUP2 OR SWAP1 SWAP2 SSTORE PUSH1 0x40 MLOAD DUP4 SWAP2 SWAP1 PUSH32 0x87348E58C77A96989AAEF43C7D87D383C1F283C3A3C3D319B96630EF2C0F906A SWAP1 PUSH1 0x0 SWAP1 LOG3 POP POP JUMP JUMPDEST PUSH1 0x0 DUP3 DUP2 MSTORE PUSH1 0x6 PUSH1 0x20 MSTORE PUSH1 0x40 SWAP1 KECCAK256 SLOAD DUP3 SWAP1 PUSH1 0x1 PUSH1 0x1 PUSH1 0xA0 SHL SUB AND CALLER EQ PUSH2 0xCCC JUMPI PUSH1 0x40 MLOAD PUSH3 0x461BCD PUSH1 0xE5 SHL DUP2 MSTORE PUSH1 0x20 PUSH1 0x4 DUP3 ADD MSTORE PUSH1 0x28 PUSH1 0x24 DUP3 ADD MSTORE PUSH32 0x536F75726365206D75737420626520746865206F7261636C65206F6620746865 PUSH1 0x44 DUP3 ADD MSTORE PUSH8 0x81C995C5D595CDD PUSH1 0xC2 SHL PUSH1 0x64 DUP3 ADD MSTORE PUSH1 0x84 ADD PUSH2 0x442 JUMP JUMPDEST PUSH1 0x0 DUP2 DUP2 MSTORE PUSH1 0x6 PUSH1 0x20 MSTORE PUSH1 0x40 DUP1 DUP3 KECCAK256 DUP1 SLOAD PUSH1 0x1 PUSH1 0x1 PUSH1 0xA0 SHL SUB NOT AND SWAP1 SSTORE MLOAD DUP3 SWAP2 PUSH32 0x7CC135E0CEBB02C3480AE5D74D377283180A2601F8F644EDF7987B009316C63A SWAP2 LOG2 PUSH32 0x9BA3B568D237411B006CD782AA975FD1783097CB4198316E11A24CF10F4F3F8E DUP4 DUP4 PUSH1 0x40 MLOAD PUSH2 0xD40 SWAP3 SWAP2 SWAP1 PUSH2 0x1B68 JUMP JUMPDEST PUSH1 0x40 MLOAD DUP1 SWAP2 SUB SWAP1 LOG1 PUSH1 0xF PUSH2 0x57F DUP4 DUP3 PUSH2 0x1A79 JUMP JUMPDEST PUSH2 0xD5C PUSH2 0xDCD JUMP JUMPDEST PUSH1 0x1 PUSH1 0x1 PUSH1 0xA0 SHL SUB DUP2 AND PUSH2 0xDC1 JUMPI PUSH1 0x40 MLOAD PUSH3 0x461BCD PUSH1 0xE5 SHL DUP2 MSTORE PUSH1 0x20 PUSH1 0x4 DUP3 ADD MSTORE PUSH1 0x26 PUSH1 0x24 DUP3 ADD MSTORE PUSH32 0x4F776E61626C653A206E6577206F776E657220697320746865207A65726F2061 PUSH1 0x44 DUP3 ADD MSTORE PUSH6 0x646472657373 PUSH1 0xD0 SHL PUSH1 0x64 DUP3 ADD MSTORE PUSH1 0x84 ADD PUSH2 0x442 JUMP JUMPDEST PUSH2 0xDCA DUP2 PUSH2 0xE27 JUMP JUMPDEST POP JUMP JUMPDEST PUSH1 0x0 SLOAD PUSH1 0x1 PUSH1 0x1 PUSH1 0xA0 SHL SUB AND CALLER EQ PUSH2 0x716 JUMPI PUSH1 0x40 MLOAD PUSH3 0x461BCD PUSH1 0xE5 SHL DUP2 MSTORE PUSH1 0x20 PUSH1 0x4 DUP3 ADD DUP2 SWAP1 MSTORE PUSH1 0x24 DUP3 ADD MSTORE PUSH32 0x4F776E61626C653A2063616C6C6572206973206E6F7420746865206F776E6572 PUSH1 0x44 DUP3 ADD MSTORE PUSH1 0x64 ADD PUSH2 0x442 JUMP JUMPDEST PUSH1 0x0 DUP1 SLOAD PUSH1 0x1 PUSH1 0x1 PUSH1 0xA0 SHL SUB DUP4 DUP2 AND PUSH1 0x1 PUSH1 0x1 PUSH1 0xA0 SHL SUB NOT DUP4 AND DUP2 OR DUP5 SSTORE PUSH1 0x40 MLOAD SWAP2 SWAP1 SWAP3 AND SWAP3 DUP4 SWAP2 PUSH32 0x8BE0079C531659141344CD1FD0A4F28419497F9722A3DAAFE3B4186F6B6457E0 SWAP2 SWAP1 LOG3 POP POP JUMP JUMPDEST PUSH1 0x0 PUSH2 0xE83 DUP4 DUP4 PUSH2 0xE9C JUMP JUMPDEST PUSH1 0xA SLOAD PUSH1 0xE SLOAD PUSH2 0xE93 SWAP2 SWAP1 PUSH2 0x1B81 JUMP JUMPDEST SWAP1 POP JUMPDEST SWAP3 SWAP2 POP POP JUMP JUMPDEST PUSH1 0x0 PUSH2 0xEB2 PUSH1 0xC SLOAD ADDRESS PUSH4 0xCDC230B0 PUSH1 0xE0 SHL PUSH2 0xFD0 JUMP JUMPDEST SWAP1 POP PUSH1 0x0 PUSH1 0x40 MLOAD DUP1 PUSH1 0x60 ADD PUSH1 0x40 MSTORE DUP1 PUSH1 0x38 DUP2 MSTORE PUSH1 0x20 ADD PUSH2 0x1E9D PUSH1 0x38 SWAP2 CODECOPY PUSH1 0x40 DUP1 MLOAD DUP1 DUP3 ADD SWAP1 SWAP2 MSTORE PUSH1 0x8 DUP2 MSTORE PUSH8 0x1A5B5C195C9A585B PUSH1 0xC2 SHL PUSH1 0x20 DUP3 ADD MSTORE SWAP1 SWAP2 POP PUSH1 0x0 DUP6 DUP6 DUP4 PUSH2 0xEFE PUSH2 0x1061 JUMP JUMPDEST PUSH1 0x40 MLOAD PUSH1 0x20 ADD PUSH2 0xF11 SWAP5 SWAP4 SWAP3 SWAP2 SWAP1 PUSH2 0x1B98 JUMP JUMPDEST PUSH1 0x40 MLOAD PUSH1 0x20 DUP2 DUP4 SUB SUB DUP2 MSTORE SWAP1 PUSH1 0x40 MSTORE SWAP1 POP PUSH2 0xF6C PUSH1 0x40 MLOAD DUP1 PUSH1 0x40 ADD PUSH1 0x40 MSTORE DUP1 PUSH1 0x3 DUP2 MSTORE PUSH1 0x20 ADD PUSH3 0x19D95D PUSH1 0xEA SHL DUP2 MSTORE POP DUP5 DUP4 PUSH1 0x40 MLOAD PUSH1 0x20 ADD PUSH2 0xF54 SWAP3 SWAP2 SWAP1 PUSH2 0x1C54 JUMP JUMPDEST PUSH1 0x40 DUP1 MLOAD PUSH1 0x1F NOT DUP2 DUP5 SUB ADD DUP2 MSTORE SWAP2 SWAP1 MSTORE DUP7 SWAP2 SWAP1 PUSH2 0x1084 JUMP JUMPDEST PUSH2 0xFBB PUSH1 0x40 MLOAD DUP1 PUSH1 0x40 ADD PUSH1 0x40 MSTORE DUP1 PUSH1 0x4 DUP2 MSTORE PUSH1 0x20 ADD PUSH4 0xE0C2E8D PUSH1 0xE3 SHL DUP2 MSTORE POP PUSH1 0x40 MLOAD DUP1 PUSH1 0x40 ADD PUSH1 0x40 MSTORE DUP1 PUSH1 0x6 DUP2 MSTORE PUSH1 0x20 ADD PUSH6 0x737461747573 PUSH1 0xD0 SHL DUP2 MSTORE POP DUP7 PUSH2 0x1084 SWAP1 SWAP3 SWAP2 SWAP1 PUSH4 0xFFFFFFFF AND JUMP JUMPDEST PUSH2 0xFC7 DUP5 PUSH1 0xD SLOAD PUSH2 0x10A2 JUMP JUMPDEST POP POP POP POP POP POP POP JUMP JUMPDEST PUSH2 0x100E PUSH1 0x40 DUP1 MLOAD PUSH1 0xA0 DUP2 ADD DUP3 MSTORE PUSH1 0x0 DUP1 DUP3 MSTORE PUSH1 0x20 DUP1 DUP4 ADD DUP3 SWAP1 MSTORE DUP3 DUP5 ADD DUP3 SWAP1 MSTORE PUSH1 0x60 DUP1 DUP5 ADD DUP4 SWAP1 MSTORE DUP5 MLOAD DUP1 DUP7 ADD SWAP1 SWAP6 MSTORE DUP5 MSTORE DUP4 ADD MSTORE SWAP1 PUSH1 0x80 DUP3 ADD MSTORE SWAP1 JUMP JUMPDEST PUSH2 0x104C PUSH1 0x40 DUP1 MLOAD PUSH1 0xA0 DUP2 ADD DUP3 MSTORE PUSH1 0x0 DUP1 DUP3 MSTORE PUSH1 0x20 DUP1 DUP4 ADD DUP3 SWAP1 MSTORE DUP3 DUP5 ADD DUP3 SWAP1 MSTORE PUSH1 0x60 DUP1 DUP5 ADD DUP4 SWAP1 MSTORE DUP5 MLOAD DUP1 DUP7 ADD SWAP1 SWAP6 MSTORE DUP5 MSTORE DUP4 ADD MSTORE SWAP1 PUSH1 0x80 DUP3 ADD MSTORE SWAP1 JUMP JUMPDEST PUSH2 0x1058 DUP2 DUP7 DUP7 DUP7 PUSH2 0x10BC JUMP JUMPDEST SWAP6 SWAP5 POP POP POP POP POP JUMP JUMPDEST PUSH1 0x60 PUSH1 0x0 PUSH1 0x40 MLOAD DUP1 PUSH1 0x60 ADD PUSH1 0x40 MSTORE DUP1 PUSH1 0x27 DUP2 MSTORE PUSH1 0x20 ADD PUSH2 0x1E76 PUSH1 0x27 SWAP2 CODECOPY SWAP3 SWAP2 POP POP JUMP JUMPDEST PUSH1 0x80 DUP4 ADD MLOAD PUSH2 0x1093 SWAP1 DUP4 PUSH2 0x1138 JUMP JUMPDEST PUSH1 0x80 DUP4 ADD MLOAD PUSH2 0x9E1 SWAP1 DUP3 PUSH2 0x1138 JUMP JUMPDEST PUSH1 0x4 SLOAD PUSH1 0x0 SWAP1 PUSH2 0xE93 SWAP1 PUSH1 0x1 PUSH1 0x1 PUSH1 0xA0 SHL SUB AND DUP5 DUP5 PUSH2 0x114F JUMP JUMPDEST PUSH2 0x10FA PUSH1 0x40 DUP1 MLOAD PUSH1 0xA0 DUP2 ADD DUP3 MSTORE PUSH1 0x0 DUP1 DUP3 MSTORE PUSH1 0x20 DUP1 DUP4 ADD DUP3 SWAP1 MSTORE DUP3 DUP5 ADD DUP3 SWAP1 MSTORE PUSH1 0x60 DUP1 DUP5 ADD DUP4 SWAP1 MSTORE DUP5 MLOAD DUP1 DUP7 ADD SWAP1 SWAP6 MSTORE DUP5 MSTORE DUP4 ADD MSTORE SWAP1 PUSH1 0x80 DUP3 ADD MSTORE SWAP1 JUMP JUMPDEST PUSH2 0x110A DUP6 PUSH1 0x80 ADD MLOAD PUSH2 0x100 PUSH2 0x11F7 JUMP JUMPDEST POP POP DUP3 DUP5 MSTORE PUSH1 0x1 PUSH1 0x1 PUSH1 0xA0 SHL SUB DUP3 AND PUSH1 0x20 DUP6 ADD MSTORE PUSH1 0x1 PUSH1 0x1 PUSH1 0xE0 SHL SUB NOT DUP2 AND PUSH1 0x40 DUP6 ADD MSTORE DUP4 JUMPDEST SWAP5 SWAP4 POP POP POP POP JUMP JUMPDEST PUSH2 0x1145 DUP3 PUSH1 0x3 DUP4 MLOAD PUSH2 0x125C JUMP JUMPDEST PUSH2 0x9E1 DUP3 DUP3 PUSH2 0x136B JUMP JUMPDEST PUSH1 0x5 SLOAD PUSH1 0x0 SWAP1 PUSH2 0x1160 DUP2 PUSH1 0x1 PUSH2 0x1C90 JUMP JUMPDEST PUSH1 0x5 SSTORE DUP4 MLOAD PUSH1 0x40 DUP1 DUP7 ADD MLOAD PUSH1 0x80 DUP8 ADD MLOAD MLOAD SWAP2 MLOAD PUSH1 0x0 SWAP4 PUSH4 0x20214CA3 PUSH1 0xE1 SHL SWAP4 PUSH2 0x1198 SWAP4 DUP7 SWAP4 DUP5 SWAP4 SWAP3 ADDRESS SWAP3 SWAP2 DUP11 SWAP2 PUSH1 0x1 SWAP2 PUSH1 0x24 ADD PUSH2 0x1CA3 JUMP JUMPDEST PUSH1 0x40 DUP1 MLOAD PUSH1 0x1F NOT DUP2 DUP5 SUB ADD DUP2 MSTORE SWAP2 SWAP1 MSTORE PUSH1 0x20 DUP2 ADD DUP1 MLOAD PUSH28 0xFFFFFFFFFFFFFFFFFFFFFFFFFFFFFFFFFFFFFFFFFFFFFFFFFFFFFFFF AND PUSH1 0x1 PUSH1 0x1 PUSH1 0xE0 SHL SUB NOT SWAP1 SWAP4 AND SWAP3 SWAP1 SWAP3 OR SWAP1 SWAP2 MSTORE SWAP1 POP PUSH2 0x11ED DUP7 DUP4 DUP7 DUP5 PUSH2 0x1392 JUMP JUMPDEST SWAP7 SWAP6 POP POP POP POP POP POP JUMP JUMPDEST PUSH1 0x40 DUP1 MLOAD DUP1 DUP3 ADD SWAP1 SWAP2 MSTORE PUSH1 0x60 DUP2 MSTORE PUSH1 0x0 PUSH1 0x20 DUP3 ADD MSTORE PUSH2 0x1217 PUSH1 0x20 DUP4 PUSH2 0x1D06 JUMP JUMPDEST ISZERO PUSH2 0x123F JUMPI PUSH2 0x1227 PUSH1 0x20 DUP4 PUSH2 0x1D06 JUMP JUMPDEST PUSH2 0x1232 SWAP1 PUSH1 0x20 PUSH2 0x1D28 JUMP JUMPDEST PUSH2 0x123C SWAP1 DUP4 PUSH2 0x1C90 JUMP JUMPDEST SWAP2 POP JUMPDEST POP PUSH1 0x20 DUP3 DUP2 ADD DUP3 SWAP1 MSTORE PUSH1 0x40 DUP1 MLOAD DUP1 DUP6 MSTORE PUSH1 0x0 DUP2 MSTORE SWAP1 SWAP3 ADD ADD SWAP1 MSTORE SWAP1 JUMP JUMPDEST PUSH1 0x17 DUP2 PUSH8 0xFFFFFFFFFFFFFFFF AND GT PUSH2 0x1281 JUMPI PUSH2 0x57F DUP4 PUSH1 0xE0 PUSH1 0x5 DUP6 SWAP1 SHL AND DUP4 OR PUSH2 0x14F0 JUMP JUMPDEST PUSH1 0xFF DUP2 PUSH8 0xFFFFFFFFFFFFFFFF AND GT PUSH2 0x12BF JUMPI PUSH2 0x12A8 DUP4 PUSH1 0x18 PUSH2 0x1FE0 PUSH1 0x5 DUP7 SWAP1 SHL AND OR PUSH2 0x14F0 JUMP JUMPDEST POP PUSH2 0x57F DUP4 PUSH8 0xFFFFFFFFFFFFFFFF DUP4 AND PUSH1 0x1 PUSH2 0x1515 JUMP JUMPDEST PUSH2 0xFFFF DUP2 PUSH8 0xFFFFFFFFFFFFFFFF AND GT PUSH2 0x12FE JUMPI PUSH2 0x12E7 DUP4 PUSH1 0x19 PUSH2 0x1FE0 PUSH1 0x5 DUP7 SWAP1 SHL AND OR PUSH2 0x14F0 JUMP JUMPDEST POP PUSH2 0x57F DUP4 PUSH8 0xFFFFFFFFFFFFFFFF DUP4 AND PUSH1 0x2 PUSH2 0x1515 JUMP JUMPDEST PUSH4 0xFFFFFFFF DUP2 PUSH8 0xFFFFFFFFFFFFFFFF AND GT PUSH2 0x133F JUMPI PUSH2 0x1328 DUP4 PUSH1 0x1A PUSH2 0x1FE0 PUSH1 0x5 DUP7 SWAP1 SHL AND OR PUSH2 0x14F0 JUMP JUMPDEST POP PUSH2 0x57F DUP4 PUSH8 0xFFFFFFFFFFFFFFFF DUP4 AND PUSH1 0x4 PUSH2 0x1515 JUMP JUMPDEST PUSH2 0x1354 DUP4 PUSH1 0x1B PUSH2 0x1FE0 PUSH1 0x5 DUP7 SWAP1 SHL AND OR PUSH2 0x14F0 JUMP JUMPDEST POP PUSH2 0x57F DUP4 PUSH8 0xFFFFFFFFFFFFFFFF DUP4 AND PUSH1 0x8 PUSH2 0x1515 JUMP JUMPDEST PUSH1 0x40 DUP1 MLOAD DUP1 DUP3 ADD SWAP1 SWAP2 MSTORE PUSH1 0x60 DUP2 MSTORE PUSH1 0x0 PUSH1 0x20 DUP3 ADD MSTORE PUSH2 0xE93 DUP4 DUP5 PUSH1 0x0 ADD MLOAD MLOAD DUP5 DUP6 MLOAD PUSH2 0x153B JUMP JUMPDEST PUSH1 0x40 MLOAD PUSH12 0xFFFFFFFFFFFFFFFFFFFFFFFF NOT ADDRESS PUSH1 0x60 SHL AND PUSH1 0x20 DUP3 ADD MSTORE PUSH1 0x34 DUP2 ADD DUP5 SWAP1 MSTORE PUSH1 0x0 SWAP1 PUSH1 0x54 ADD PUSH1 0x40 DUP1 MLOAD DUP1 DUP4 SUB PUSH1 0x1F NOT ADD DUP2 MSTORE DUP3 DUP3 MSTORE DUP1 MLOAD PUSH1 0x20 SWAP2 DUP3 ADD KECCAK256 PUSH1 0x0 DUP2 DUP2 MSTORE PUSH1 0x6 SWAP1 SWAP3 MSTORE SWAP2 DUP2 KECCAK256 DUP1 SLOAD PUSH1 0x1 PUSH1 0x1 PUSH1 0xA0 SHL SUB NOT AND PUSH1 0x1 PUSH1 0x1 PUSH1 0xA0 SHL SUB DUP11 AND OR SWAP1 SSTORE SWAP1 SWAP3 POP DUP3 SWAP2 PUSH32 0xB5E6E01E79F91267DC17B4E6314D5D4D03593D2CEEE0FBB452B750BD70EA5AF9 SWAP2 SWAP1 LOG2 PUSH1 0x3 SLOAD PUSH1 0x40 MLOAD PUSH4 0x2000575 PUSH1 0xE5 SHL DUP2 MSTORE PUSH1 0x1 PUSH1 0x1 PUSH1 0xA0 SHL SUB SWAP1 SWAP2 AND SWAP1 PUSH4 0x4000AEA0 SWAP1 PUSH2 0x1455 SWAP1 DUP9 SWAP1 DUP8 SWAP1 DUP8 SWAP1 PUSH1 0x4 ADD PUSH2 0x1D3B JUMP JUMPDEST PUSH1 0x20 PUSH1 0x40 MLOAD DUP1 DUP4 SUB DUP2 PUSH1 0x0 DUP8 GAS CALL ISZERO DUP1 ISZERO PUSH2 0x1474 JUMPI RETURNDATASIZE PUSH1 0x0 DUP1 RETURNDATACOPY RETURNDATASIZE PUSH1 0x0 REVERT JUMPDEST POP POP POP POP PUSH1 0x40 MLOAD RETURNDATASIZE PUSH1 0x1F NOT PUSH1 0x1F DUP3 ADD AND DUP3 ADD DUP1 PUSH1 0x40 MSTORE POP DUP2 ADD SWAP1 PUSH2 0x1498 SWAP2 SWAP1 PUSH2 0x1D63 JUMP JUMPDEST PUSH2 0x1130 JUMPI PUSH1 0x40 MLOAD PUSH3 0x461BCD PUSH1 0xE5 SHL DUP2 MSTORE PUSH1 0x20 PUSH1 0x4 DUP3 ADD MSTORE PUSH1 0x23 PUSH1 0x24 DUP3 ADD MSTORE PUSH32 0x756E61626C6520746F207472616E73666572416E6443616C6C20746F206F7261 PUSH1 0x44 DUP3 ADD MSTORE PUSH3 0x636C65 PUSH1 0xE8 SHL PUSH1 0x64 DUP3 ADD MSTORE PUSH1 0x84 ADD PUSH2 0x442 JUMP JUMPDEST PUSH1 0x40 DUP1 MLOAD DUP1 DUP3 ADD SWAP1 SWAP2 MSTORE PUSH1 0x60 DUP2 MSTORE PUSH1 0x0 PUSH1 0x20 DUP3 ADD MSTORE PUSH2 0xE93 DUP4 DUP5 PUSH1 0x0 ADD MLOAD MLOAD DUP5 PUSH2 0x1625 JUMP JUMPDEST PUSH1 0x40 DUP1 MLOAD DUP1 DUP3 ADD SWAP1 SWAP2 MSTORE PUSH1 0x60 DUP2 MSTORE PUSH1 0x0 PUSH1 0x20 DUP3 ADD MSTORE PUSH2 0x1130 DUP5 DUP6 PUSH1 0x0 ADD MLOAD MLOAD DUP6 DUP6 PUSH2 0x1680 JUMP JUMPDEST PUSH1 0x40 DUP1 MLOAD DUP1 DUP3 ADD SWAP1 SWAP2 MSTORE PUSH1 0x60 DUP2 MSTORE PUSH1 0x0 PUSH1 0x20 DUP3 ADD MSTORE DUP3 MLOAD DUP3 GT ISZERO PUSH2 0x155E JUMPI PUSH1 0x0 DUP1 REVERT JUMPDEST PUSH1 0x20 DUP6 ADD MLOAD PUSH2 0x156D DUP4 DUP7 PUSH2 0x1C90 JUMP JUMPDEST GT ISZERO PUSH2 0x15A0 JUMPI PUSH2 0x15A0 DUP6 PUSH2 0x1590 DUP8 PUSH1 0x20 ADD MLOAD DUP8 DUP7 PUSH2 0x158B SWAP2 SWAP1 PUSH2 0x1C90 JUMP JUMPDEST PUSH2 0x1701 JUMP JUMPDEST PUSH2 0x159B SWAP1 PUSH1 0x2 PUSH2 0x1B81 JUMP JUMPDEST PUSH2 0x1718 JUMP JUMPDEST PUSH1 0x0 DUP1 DUP7 MLOAD DUP1 MLOAD DUP8 PUSH1 0x20 DUP4 ADD ADD SWAP4 POP DUP1 DUP9 DUP8 ADD GT ISZERO PUSH2 0x15BF JUMPI DUP8 DUP7 ADD DUP3 MSTORE JUMPDEST POP POP POP PUSH1 0x20 DUP5 ADD JUMPDEST PUSH1 0x20 DUP5 LT PUSH2 0x15FF JUMPI DUP1 MLOAD DUP3 MSTORE PUSH2 0x15DE PUSH1 0x20 DUP4 PUSH2 0x1C90 JUMP JUMPDEST SWAP2 POP PUSH2 0x15EB PUSH1 0x20 DUP3 PUSH2 0x1C90 JUMP JUMPDEST SWAP1 POP PUSH2 0x15F8 PUSH1 0x20 DUP6 PUSH2 0x1D28 JUMP JUMPDEST SWAP4 POP PUSH2 0x15C7 JUMP JUMPDEST MLOAD DUP2 MLOAD PUSH1 0x0 NOT PUSH1 0x20 DUP7 SWAP1 SUB PUSH2 0x100 EXP ADD SWAP1 DUP2 AND SWAP1 NOT SWAP2 SWAP1 SWAP2 AND OR SWAP1 MSTORE POP DUP4 SWAP5 SWAP4 POP POP POP POP JUMP JUMPDEST PUSH1 0x40 DUP1 MLOAD DUP1 DUP3 ADD SWAP1 SWAP2 MSTORE PUSH1 0x60 DUP2 MSTORE PUSH1 0x0 PUSH1 0x20 DUP3 ADD MSTORE DUP4 PUSH1 0x20 ADD MLOAD DUP4 LT PUSH2 0x165A JUMPI PUSH2 0x165A DUP5 DUP6 PUSH1 0x20 ADD MLOAD PUSH1 0x2 PUSH2 0x159B SWAP2 SWAP1 PUSH2 0x1B81 JUMP JUMPDEST DUP4 MLOAD DUP1 MLOAD PUSH1 0x20 DUP6 DUP4 ADD ADD DUP5 DUP2 MSTORE8 POP DUP1 DUP6 SUB PUSH2 0x1676 JUMPI PUSH1 0x1 DUP2 ADD DUP3 MSTORE JUMPDEST POP SWAP4 SWAP5 SWAP4 POP POP POP POP JUMP JUMPDEST PUSH1 0x40 DUP1 MLOAD DUP1 DUP3 ADD SWAP1 SWAP2 MSTORE PUSH1 0x60 DUP2 MSTORE PUSH1 0x0 PUSH1 0x20 DUP3 ADD MSTORE PUSH1 0x20 DUP6 ADD MLOAD PUSH2 0x16A4 DUP6 DUP5 PUSH2 0x1C90 JUMP JUMPDEST GT ISZERO PUSH2 0x16B8 JUMPI PUSH2 0x16B8 DUP6 PUSH2 0x1590 DUP7 DUP6 PUSH2 0x1C90 JUMP JUMPDEST PUSH1 0x0 PUSH1 0x1 PUSH2 0x16C8 DUP5 PUSH2 0x100 PUSH2 0x1E69 JUMP JUMPDEST PUSH2 0x16D2 SWAP2 SWAP1 PUSH2 0x1D28 JUMP JUMPDEST SWAP1 POP DUP6 MLOAD DUP4 DUP7 DUP3 ADD ADD DUP6 DUP4 NOT DUP3 MLOAD AND OR DUP2 MSTORE POP DUP1 MLOAD DUP5 DUP8 ADD GT ISZERO PUSH2 0x16F6 JUMPI DUP4 DUP7 ADD DUP2 MSTORE JUMPDEST POP SWAP5 SWAP6 SWAP5 POP POP POP POP POP JUMP JUMPDEST PUSH1 0x0 DUP2 DUP4 GT ISZERO PUSH2 0x1712 JUMPI POP DUP2 PUSH2 0xE96 JUMP JUMPDEST POP SWAP2 SWAP1 POP JUMP JUMPDEST DUP2 MLOAD PUSH2 0x1724 DUP4 DUP4 PUSH2 0x11F7 JUMP JUMPDEST POP PUSH2 0x57F DUP4 DUP3 PUSH2 0x136B JUMP JUMPDEST PUSH1 0x0 PUSH1 0x20 DUP3 DUP5 SUB SLT ISZERO PUSH2 0x1741 JUMPI PUSH1 0x0 DUP1 REVERT JUMPDEST DUP2 CALLDATALOAD PUSH1 0x1 PUSH1 0x1 PUSH1 0xA0 SHL SUB DUP2 AND DUP2 EQ PUSH2 0x1758 JUMPI PUSH1 0x0 DUP1 REVERT JUMPDEST SWAP4 SWAP3 POP POP POP JUMP JUMPDEST PUSH1 0x0 JUMPDEST DUP4 DUP2 LT ISZERO PUSH2 0x177A JUMPI DUP2 DUP2 ADD MLOAD DUP4 DUP3 ADD MSTORE PUSH1 0x20 ADD PUSH2 0x1762 JUMP JUMPDEST POP POP PUSH1 0x0 SWAP2 ADD MSTORE JUMP JUMPDEST PUSH1 0x0 DUP2 MLOAD DUP1 DUP5 MSTORE PUSH2 0x179B DUP2 PUSH1 0x20 DUP7 ADD PUSH1 0x20 DUP7 ADD PUSH2 0x175F JUMP JUMPDEST PUSH1 0x1F ADD PUSH1 0x1F NOT AND SWAP3 SWAP1 SWAP3 ADD PUSH1 0x20 ADD SWAP3 SWAP2 POP POP JUMP JUMPDEST PUSH1 0x20 DUP2 MSTORE PUSH1 0x0 PUSH2 0xE93 PUSH1 0x20 DUP4 ADD DUP5 PUSH2 0x1783 JUMP JUMPDEST PUSH1 0x0 DUP1 PUSH1 0x40 DUP4 DUP6 SUB SLT ISZERO PUSH2 0x17D5 JUMPI PUSH1 0x0 DUP1 REVERT JUMPDEST POP POP DUP1 CALLDATALOAD SWAP3 PUSH1 0x20 SWAP1 SWAP2 ADD CALLDATALOAD SWAP2 POP JUMP JUMPDEST PUSH1 0x0 PUSH1 0x20 DUP3 DUP5 SUB SLT ISZERO PUSH2 0x17F6 JUMPI PUSH1 0x0 DUP1 REVERT JUMPDEST POP CALLDATALOAD SWAP2 SWAP1 POP JUMP JUMPDEST PUSH1 0x0 PUSH1 0x1 PUSH1 0x1 PUSH1 0xA0 SHL SUB DUP1 DUP10 AND DUP4 MSTORE DUP1 DUP9 AND PUSH1 0x20 DUP5 ADD MSTORE POP DUP6 PUSH1 0x40 DUP4 ADD MSTORE DUP5 ISZERO ISZERO PUSH1 0x60 DUP4 ADD MSTORE PUSH1 0xC0 PUSH1 0x80 DUP4 ADD MSTORE PUSH2 0x1837 PUSH1 0xC0 DUP4 ADD DUP6 PUSH2 0x1783 JUMP JUMPDEST SWAP1 POP DUP3 PUSH1 0xA0 DUP4 ADD MSTORE SWAP8 SWAP7 POP POP POP POP POP POP POP JUMP JUMPDEST PUSH1 0x20 DUP2 MSTORE PUSH1 0x0 PUSH1 0x1 PUSH1 0x1 PUSH1 0xA0 SHL SUB DUP1 DUP5 MLOAD AND PUSH1 0x20 DUP5 ADD MSTORE DUP1 PUSH1 0x20 DUP6 ADD MLOAD AND PUSH1 0x40 DUP5 ADD MSTORE POP PUSH1 0x40 DUP4 ADD MLOAD PUSH1 0x60 DUP4 ADD MSTORE PUSH1 0x60 DUP4 ADD MLOAD ISZERO ISZERO PUSH1 0x80 DUP4 ADD MSTORE PUSH1 0x80 DUP4 ADD MLOAD PUSH1 0xC0 PUSH1 0xA0 DUP5 ADD MSTORE PUSH2 0x189D PUSH1 0xE0 DUP5 ADD DUP3 PUSH2 0x1783 JUMP JUMPDEST SWAP1 POP PUSH1 0xA0 DUP5 ADD MLOAD PUSH1 0xC0 DUP5 ADD MSTORE DUP1 SWAP2 POP POP SWAP3 SWAP2 POP POP JUMP JUMPDEST PUSH4 0x4E487B71 PUSH1 0xE0 SHL PUSH1 0x0 MSTORE PUSH1 0x41 PUSH1 0x4 MSTORE PUSH1 0x24 PUSH1 0x0 REVERT JUMPDEST PUSH1 0x0 DUP3 PUSH1 0x1F DUP4 ADD SLT PUSH2 0x18DA JUMPI PUSH1 0x0 DUP1 REVERT JUMPDEST DUP2 CALLDATALOAD PUSH8 0xFFFFFFFFFFFFFFFF DUP1 DUP3 GT ISZERO PUSH2 0x18F5 JUMPI PUSH2 0x18F5 PUSH2 0x18B3 JUMP JUMPDEST PUSH1 0x40 MLOAD PUSH1 0x1F DUP4 ADD PUSH1 0x1F NOT SWAP1 DUP2 AND PUSH1 0x3F ADD AND DUP2 ADD SWAP1 DUP3 DUP3 GT DUP2 DUP4 LT OR ISZERO PUSH2 0x191D JUMPI PUSH2 0x191D PUSH2 0x18B3 JUMP JUMPDEST DUP2 PUSH1 0x40 MSTORE DUP4 DUP2 MSTORE DUP7 PUSH1 0x20 DUP6 DUP9 ADD ADD GT ISZERO PUSH2 0x1936 JUMPI PUSH1 0x0 DUP1 REVERT JUMPDEST DUP4 PUSH1 0x20 DUP8 ADD PUSH1 0x20 DUP4 ADD CALLDATACOPY PUSH1 0x0 PUSH1 0x20 DUP6 DUP4 ADD ADD MSTORE DUP1 SWAP5 POP POP POP POP POP SWAP3 SWAP2 POP POP JUMP JUMPDEST PUSH1 0x0 DUP1 PUSH1 0x40 DUP4 DUP6 SUB SLT ISZERO PUSH2 0x1969 JUMPI PUSH1 0x0 DUP1 REVERT JUMPDEST DUP3 CALLDATALOAD PUSH8 0xFFFFFFFFFFFFFFFF DUP1 DUP3 GT ISZERO PUSH2 0x1981 JUMPI PUSH1 0x0 DUP1 REVERT JUMPDEST PUSH2 0x198D DUP7 DUP4 DUP8 ADD PUSH2 0x18C9 JUMP JUMPDEST SWAP4 POP PUSH1 0x20 DUP6 ADD CALLDATALOAD SWAP2 POP DUP1 DUP3 GT ISZERO PUSH2 0x19A3 JUMPI PUSH1 0x0 DUP1 REVERT JUMPDEST POP PUSH2 0x19B0 DUP6 DUP3 DUP7 ADD PUSH2 0x18C9 JUMP JUMPDEST SWAP2 POP POP SWAP3 POP SWAP3 SWAP1 POP JUMP JUMPDEST PUSH1 0x0 DUP1 PUSH1 0x40 DUP4 DUP6 SUB SLT ISZERO PUSH2 0x19CD JUMPI PUSH1 0x0 DUP1 REVERT JUMPDEST DUP3 CALLDATALOAD SWAP2 POP PUSH1 0x20 DUP4 ADD CALLDATALOAD PUSH8 0xFFFFFFFFFFFFFFFF DUP2 GT ISZERO PUSH2 0x19EB JUMPI PUSH1 0x0 DUP1 REVERT JUMPDEST PUSH2 0x19B0 DUP6 DUP3 DUP7 ADD PUSH2 0x18C9 JUMP JUMPDEST PUSH1 0x1 DUP2 DUP2 SHR SWAP1 DUP3 AND DUP1 PUSH2 0x1A0B JUMPI PUSH1 0x7F DUP3 AND SWAP2 POP JUMPDEST PUSH1 0x20 DUP3 LT DUP2 SUB PUSH2 0x1712 JUMPI PUSH4 0x4E487B71 PUSH1 0xE0 SHL PUSH1 0x0 MSTORE PUSH1 0x22 PUSH1 0x4 MSTORE PUSH1 0x24 PUSH1 0x0 REVERT JUMPDEST PUSH1 0x1F DUP3 GT ISZERO PUSH2 0x9E1 JUMPI PUSH1 0x0 DUP2 DUP2 MSTORE PUSH1 0x20 DUP2 KECCAK256 PUSH1 0x1F DUP6 ADD PUSH1 0x5 SHR DUP2 ADD PUSH1 0x20 DUP7 LT ISZERO PUSH2 0x1A52 JUMPI POP DUP1 JUMPDEST PUSH1 0x1F DUP6 ADD PUSH1 0x5 SHR DUP3 ADD SWAP2 POP JUMPDEST DUP2 DUP2 LT ISZERO PUSH2 0x1A71 JUMPI DUP3 DUP2 SSTORE PUSH1 0x1 ADD PUSH2 0x1A5E JUMP JUMPDEST POP POP POP POP POP POP JUMP JUMPDEST DUP2 MLOAD PUSH8 0xFFFFFFFFFFFFFFFF DUP2 GT ISZERO PUSH2 0x1A93 JUMPI PUSH2 0x1A93 PUSH2 0x18B3 JUMP JUMPDEST PUSH2 0x1AA7 DUP2 PUSH2 0x1AA1 DUP5 SLOAD PUSH2 0x19F7 JUMP JUMPDEST DUP5 PUSH2 0x1A2B JUMP JUMPDEST PUSH1 0x20 DUP1 PUSH1 0x1F DUP4 GT PUSH1 0x1 DUP2 EQ PUSH2 0x1ADC JUMPI PUSH1 0x0 DUP5 ISZERO PUSH2 0x1AC4 JUMPI POP DUP6 DUP4 ADD MLOAD JUMPDEST PUSH1 0x0 NOT PUSH1 0x3 DUP7 SWAP1 SHL SHR NOT AND PUSH1 0x1 DUP6 SWAP1 SHL OR DUP6 SSTORE PUSH2 0x1A71 JUMP JUMPDEST PUSH1 0x0 DUP6 DUP2 MSTORE PUSH1 0x20 DUP2 KECCAK256 PUSH1 0x1F NOT DUP7 AND SWAP2 JUMPDEST DUP3 DUP2 LT ISZERO PUSH2 0x1B0B JUMPI DUP9 DUP7 ADD MLOAD DUP3 SSTORE SWAP5 DUP5 ADD SWAP5 PUSH1 0x1 SWAP1 SWAP2 ADD SWAP1 DUP5 ADD PUSH2 0x1AEC JUMP JUMPDEST POP DUP6 DUP3 LT ISZERO PUSH2 0x1B29 JUMPI DUP8 DUP6 ADD MLOAD PUSH1 0x0 NOT PUSH1 0x3 DUP9 SWAP1 SHL PUSH1 0xF8 AND SHR NOT AND DUP2 SSTORE JUMPDEST POP POP POP POP POP PUSH1 0x1 SWAP1 DUP2 SHL ADD SWAP1 SSTORE POP JUMP JUMPDEST PUSH4 0x4E487B71 PUSH1 0xE0 SHL PUSH1 0x0 MSTORE PUSH1 0x11 PUSH1 0x4 MSTORE PUSH1 0x24 PUSH1 0x0 REVERT JUMPDEST PUSH1 0x0 PUSH1 0x1 DUP3 ADD PUSH2 0x1B61 JUMPI PUSH2 0x1B61 PUSH2 0x1B39 JUMP JUMPDEST POP PUSH1 0x1 ADD SWAP1 JUMP JUMPDEST DUP3 DUP2 MSTORE PUSH1 0x40 PUSH1 0x20 DUP3 ADD MSTORE PUSH1 0x0 PUSH2 0x1130 PUSH1 0x40 DUP4 ADD DUP5 PUSH2 0x1783 JUMP JUMPDEST DUP1 DUP3 MUL DUP2 ISZERO DUP3 DUP3 DIV DUP5 EQ OR PUSH2 0xE96 JUMPI PUSH2 0xE96 PUSH2 0x1B39 JUMP JUMPDEST PUSH8 0x6F726967696E733D PUSH1 0xC0 SHL DUP2 MSTORE PUSH1 0x0 DUP6 MLOAD PUSH2 0x1BBB DUP2 PUSH1 0x8 DUP6 ADD PUSH1 0x20 DUP11 ADD PUSH2 0x175F JUMP JUMPDEST PUSH32 0x2664657374696E6174696F6E733D000000000000000000000000000000000000 PUSH1 0x8 SWAP2 DUP5 ADD SWAP2 DUP3 ADD MSTORE DUP6 MLOAD PUSH2 0x1BF8 DUP2 PUSH1 0x16 DUP5 ADD PUSH1 0x20 DUP11 ADD PUSH2 0x175F JUMP JUMPDEST PUSH7 0x26756E6974733D PUSH1 0xC8 SHL PUSH1 0x16 SWAP3 SWAP1 SWAP2 ADD SWAP2 DUP3 ADD MSTORE DUP5 MLOAD PUSH2 0x1C20 DUP2 PUSH1 0x1D DUP5 ADD PUSH1 0x20 DUP10 ADD PUSH2 0x175F JUMP JUMPDEST PUSH5 0x266B65793D PUSH1 0xD8 SHL PUSH1 0x1D SWAP3 SWAP1 SWAP2 ADD SWAP2 DUP3 ADD MSTORE DUP4 MLOAD PUSH2 0x1C46 DUP2 PUSH1 0x22 DUP5 ADD PUSH1 0x20 DUP9 ADD PUSH2 0x175F JUMP JUMPDEST ADD PUSH1 0x22 ADD SWAP7 SWAP6 POP POP POP POP POP POP JUMP JUMPDEST PUSH1 0x0 DUP4 MLOAD PUSH2 0x1C66 DUP2 DUP5 PUSH1 0x20 DUP9 ADD PUSH2 0x175F JUMP JUMPDEST PUSH1 0x3F PUSH1 0xF8 SHL SWAP1 DUP4 ADD SWAP1 DUP2 MSTORE DUP4 MLOAD PUSH2 0x1C84 DUP2 PUSH1 0x1 DUP5 ADD PUSH1 0x20 DUP9 ADD PUSH2 0x175F JUMP JUMPDEST ADD PUSH1 0x1 ADD SWAP5 SWAP4 POP POP POP POP JUMP JUMPDEST DUP1 DUP3 ADD DUP1 DUP3 GT ISZERO PUSH2 0xE96 JUMPI PUSH2 0xE96 PUSH2 0x1B39 JUMP JUMPDEST PUSH1 0x0 PUSH2 0x100 PUSH1 0x1 PUSH1 0x1 PUSH1 0xA0 SHL SUB DUP1 DUP13 AND DUP5 MSTORE DUP11 PUSH1 0x20 DUP6 ADD MSTORE DUP10 PUSH1 0x40 DUP6 ADD MSTORE DUP1 DUP10 AND PUSH1 0x60 DUP6 ADD MSTORE POP PUSH4 0xFFFFFFFF PUSH1 0xE0 SHL DUP8 AND PUSH1 0x80 DUP5 ADD MSTORE DUP6 PUSH1 0xA0 DUP5 ADD MSTORE DUP5 PUSH1 0xC0 DUP5 ADD MSTORE DUP1 PUSH1 0xE0 DUP5 ADD MSTORE PUSH2 0x1CF7 DUP2 DUP5 ADD DUP6 PUSH2 0x1783 JUMP JUMPDEST SWAP12 SWAP11 POP POP POP POP POP POP POP POP POP POP POP JUMP JUMPDEST PUSH1 0x0 DUP3 PUSH2 0x1D23 JUMPI PUSH4 0x4E487B71 PUSH1 0xE0 SHL PUSH1 0x0 MSTORE PUSH1 0x12 PUSH1 0x4 MSTORE PUSH1 0x24 PUSH1 0x0 REVERT JUMPDEST POP MOD SWAP1 JUMP JUMPDEST DUP2 DUP2 SUB DUP2 DUP2 GT ISZERO PUSH2 0xE96 JUMPI PUSH2 0xE96 PUSH2 0x1B39 JUMP JUMPDEST PUSH1 0x1 PUSH1 0x1 PUSH1 0xA0 SHL SUB DUP5 AND DUP2 MSTORE DUP3 PUSH1 0x20 DUP3 ADD MSTORE PUSH1 0x60 PUSH1 0x40 DUP3 ADD MSTORE PUSH1 0x0 PUSH2 0x1058 PUSH1 0x60 DUP4 ADD DUP5 PUSH2 0x1783 JUMP JUMPDEST PUSH1 0x0 PUSH1 0x20 DUP3 DUP5 SUB SLT ISZERO PUSH2 0x1D75 JUMPI PUSH1 0x0 DUP1 REVERT JUMPDEST DUP2 MLOAD DUP1 ISZERO ISZERO DUP2 EQ PUSH2 0x1758 JUMPI PUSH1 0x0 DUP1 REVERT JUMPDEST PUSH1 0x1 DUP2 DUP2 JUMPDEST DUP1 DUP6 GT ISZERO PUSH2 0x1DC0 JUMPI DUP2 PUSH1 0x0 NOT DIV DUP3 GT ISZERO PUSH2 0x1DA6 JUMPI PUSH2 0x1DA6 PUSH2 0x1B39 JUMP JUMPDEST DUP1 DUP6 AND ISZERO PUSH2 0x1DB3 JUMPI SWAP2 DUP2 MUL SWAP2 JUMPDEST SWAP4 DUP5 SHR SWAP4 SWAP1 DUP1 MUL SWAP1 PUSH2 0x1D8A JUMP JUMPDEST POP SWAP3 POP SWAP3 SWAP1 POP JUMP JUMPDEST PUSH1 0x0 DUP3 PUSH2 0x1DD7 JUMPI POP PUSH1 0x1 PUSH2 0xE96 JUMP JUMPDEST DUP2 PUSH2 0x1DE4 JUMPI POP PUSH1 0x0 PUSH2 0xE96 JUMP JUMPDEST DUP2 PUSH1 0x1 DUP2 EQ PUSH2 0x1DFA JUMPI PUSH1 0x2 DUP2 EQ PUSH2 0x1E04 JUMPI PUSH2 0x1E20 JUMP JUMPDEST PUSH1 0x1 SWAP2 POP POP PUSH2 0xE96 JUMP JUMPDEST PUSH1 0xFF DUP5 GT ISZERO PUSH2 0x1E15 JUMPI PUSH2 0x1E15 PUSH2 0x1B39 JUMP JUMPDEST POP POP PUSH1 0x1 DUP3 SHL PUSH2 0xE96 JUMP JUMPDEST POP PUSH1 0x20 DUP4 LT PUSH2 0x133 DUP4 LT AND PUSH1 0x4E DUP5 LT PUSH1 0xB DUP5 LT AND OR ISZERO PUSH2 0x1E43 JUMPI POP DUP2 DUP2 EXP PUSH2 0xE96 JUMP JUMPDEST PUSH2 0x1E4D DUP4 DUP4 PUSH2 0x1D85 JUMP JUMPDEST DUP1 PUSH1 0x0 NOT DIV DUP3 GT ISZERO PUSH2 0x1E61 JUMPI PUSH2 0x1E61 PUSH2 0x1B39 JUMP JUMPDEST MUL SWAP4 SWAP3 POP POP POP JUMP JUMPDEST PUSH1 0x0 PUSH2 0xE93 DUP4 DUP4 PUSH2 0x1DC8 JUMP INVALID COINBASE 0x49 PUSH27 0x61537944463072677A31376A3951504939344E7744385250696338 PUSH12 0x745669773879495568747470 PUSH20 0x3A2F2F6D6170732E676F6F676C65617069732E63 PUSH16 0x6D2F6D6170732F6170692F6469737461 PUSH15 0x63656D61747269782F6A736F6EA264 PUSH10 0x706673582212208C3530 CALLDATASIZE PUSH10 0x38AC69D6A1720259AB15 0x25 PUSH12 0x6E6EA2522C189224C5F9F257 0xA9 PUSH28 0x964736F6C6343000811003300000000000000000000000000000000 "},"gasEstimates":{"creation":{"codeDepositCost":"1589200","executionCost":"188790","totalCost":"1777990"},"external":{"acceptRide(uint256)":"30456","cancelRide(uint256)":"infinite","completeRideAndRateDriver(uint256,uint256)":"infinite","distance()":"2385","fulfillDistance(bytes32,string)":"infinite","getPricePerMeter()":"2381","getRide(uint256)":"infinite","owner()":"2346","pricePerMeter()":"2405","registerUser()":"27793","registeredUsers(address)":"2509","renounceOwnership()":"infinite","requestRide(string,string)":"infinite","rideCount()":"2317","rides(uint256)":"infinite","setPricePerMeter(uint256)":"24555","status()":"infinite","transferOwnership(address)":"28386"},"internal":{"calculateDistance(string memory,string memory)":"infinite","calculateFare(string memory,string memory)":"infinite","getApiKey()":"infinite","surgePricing(uint256)":"infinite"}},"methodIdentifiers":{"acceptRide(uint256)":"c51562cb","cancelRide(uint256)":"a6f07b29","completeRideAndRateDriver(uint256,uint256)":"46912fa5","distance()":"4851375c","fulfillDistance(bytes32,string)":"cdc230b0","getPricePerMeter()":"712bfa1e","getRide(uint256)":"7c7b0ff4","owner()":"8da5cb5b","pricePerMeter()":"ff46f4ad","registerUser()":"4d3820eb","registeredUsers(address)":"0e50cee5","renounceOwnership()":"715018a6","requestRide(string,string)":"ac4bfb03","rideCount()":"b47c1883","rides(uint256)":"5205f112","setPricePerMeter(uint256)":"6bad66f6","status()":"200d2ed2","transferOwnership(address)":"f2fde38b"}},"storageLayout":{"storage":[{"astId":2183,"contract":"contracts/RideHailing.sol:RideHailing","label":"_owner","offset":0,"slot":"0","type":"t_address"},{"astId":319,"contract":"contracts/RideHailing.sol:RideHailing","label":"s_ens","offset":0,"slot":"1","type":"t_contract(ENSInterface)974"},{"astId":321,"contract":"contracts/RideHailing.sol:RideHailing","label":"s_ensNode","offset":0,"slot":"2","type":"t_bytes32"},{"astId":324,"contract":"contracts/RideHailing.sol:RideHailing","label":"s_link","offset":0,"slot":"3","type":"t_contract(LinkTokenInterface)1069"},{"astId":327,"contract":"contracts/RideHailing.sol:RideHailing","label":"s_oracle","offset":0,"slot":"4","type":"t_contract(OperatorInterface)1149"},{"astId":330,"contract":"contracts/RideHailing.sol:RideHailing","label":"s_requestCount","offset":0,"slot":"5","type":"t_uint256"},{"astId":334,"contract":"contracts/RideHailing.sol:RideHailing","label":"s_pendingRequests","offset":0,"slot":"6","type":"t_mapping(t_bytes32,t_address)"},{"astId":2341,"contract":"contracts/RideHailing.sol:RideHailing","label":"rides","offset":0,"slot":"7","type":"t_mapping(t_uint256,t_struct(Ride)2336_storage)"},{"astId":2345,"contract":"contracts/RideHailing.sol:RideHailing","label":"registeredUsers","offset":0,"slot":"8","type":"t_mapping(t_address,t_bool)"},{"astId":2347,"contract":"contracts/RideHailing.sol:RideHailing","label":"rideCount","offset":0,"slot":"9","type":"t_uint256"},{"astId":2350,"contract":"contracts/RideHailing.sol:RideHailing","label":"pricePerMeter","offset":0,"slot":"10","type":"t_uint256"},{"astId":2396,"contract":"contracts/RideHailing.sol:RideHailing","label":"oracle","offset":0,"slot":"11","type":"t_address"},{"astId":2398,"contract":"contracts/RideHailing.sol:RideHailing","label":"jobId","offset":0,"slot":"12","type":"t_bytes32"},{"astId":2400,"contract":"contracts/RideHailing.sol:RideHailing","label":"fee","offset":0,"slot":"13","type":"t_uint256"},{"astId":2402,"contract":"contracts/RideHailing.sol:RideHailing","label":"distance","offset":0,"slot":"14","type":"t_uint256"},{"astId":2404,"contract":"contracts/RideHailing.sol:RideHailing","label":"status","offset":0,"slot":"15","type":"t_string_storage"}],"types":{"t_address":{"encoding":"inplace","label":"address","numberOfBytes":"20"},"t_address_payable":{"encoding":"inplace","label":"address payable","numberOfBytes":"20"},"t_bool":{"encoding":"inplace","label":"bool","numberOfBytes":"1"},"t_bytes32":{"encoding":"inplace","label":"bytes32","numberOfBytes":"32"},"t_contract(ENSInterface)974":{"encoding":"inplace","label":"contract ENSInterface","numberOfBytes":"20"},"t_contract(LinkTokenInterface)1069":{"encoding":"inplace","label":"contract LinkTokenInterface","numberOfBytes":"20"},"t_contract(OperatorInterface)1149":{"encoding":"inplace","label":"contract OperatorInterface","numberOfBytes":"20"},"t_mapping(t_address,t_bool)":{"encoding":"mapping","key":"t_address","label":"mapping(address => bool)","numberOfBytes":"32","value":"t_bool"},"t_mapping(t_bytes32,t_address)":{"encoding":"mapping","key":"t_bytes32","label":"mapping(bytes32 => address)","numberOfBytes":"32","value":"t_address"},"t_mapping(t_uint256,t_struct(Ride)2336_storage)":{"encoding":"mapping","key":"t_uint256","label":"mapping(uint256 => struct RideHailing.Ride)","numberOfBytes":"32","value":"t_struct(Ride)2336_storage"},"t_string_storage":{"encoding":"bytes","label":"string","numberOfBytes":"32"},"t_struct(Ride)2336_storage":{"encoding":"inplace","label":"struct RideHailing.Ride","members":[{"astId":2325,"contract":"contracts/RideHailing.sol:RideHailing","label":"rider","offset":0,"slot":"0","type":"t_address_payable"},{"astId":2327,"contract":"contracts/RideHailing.sol:RideHailing","label":"driver","offset":0,"slot":"1","type":"t_address_payable"},{"astId":2329,"contract":"contracts/RideHailing.sol:RideHailing","label":"fare","offset":0,"slot":"2","type":"t_uint256"},{"astId":2331,"contract":"contracts/RideHailing.sol:RideHailing","label":"rideCompleted","offset":0,"slot":"3","type":"t_bool"},{"astId":2333,"contract":"contracts/RideHailing.sol:RideHailing","label":"estdTime","offset":0,"slot":"4","type":"t_string_storage"},{"astId":2335,"contract":"contracts/RideHailing.sol:RideHailing","label":"rating","offset":0,"slot":"5","type":"t_uint256"}],"numberOfBytes":"192"},"t_uint256":{"encoding":"inplace","label":"uint256","numberOfBytes":"32"}}},"userdoc":{"kind":"user","methods":{"acceptRide(uint256)":{"notice":"Accept a ride"},"cancelRide(uint256)":{"notice":"Cancel a ride"},"completeRideAndRateDriver(uint256,uint256)":{"notice":"Complete a ride"},"getPricePerMeter()":{"notice":"Get the price per meter"},"registerUser()":{"notice":"Register a new user"},"requestRide(string,string)":{"notice":"Request a ride"},"setPricePerMeter(uint256)":{"notice":"Set the price per meter"}},"version":1}}}}