{"contracts/RideHailing.sol":{"RideHailing":{"abi":[{"inputs":[{"internalType":"address","name":"_oracle","type":"address"},{"internalType":"bytes32","name":"_jobId","type":"bytes32"},{"internalType":"uint256","name":"_fee","type":"uint256"}],"stateMutability":"nonpayable","type":"constructor"},{"anonymous":false,"inputs":[{"indexed":true,"internalType":"bytes32","name":"id","type":"bytes32"}],"name":"ChainlinkCancelled","type":"event"},{"anonymous":false,"inputs":[{"indexed":true,"internalType":"bytes32","name":"id","type":"bytes32"}],"name":"ChainlinkFulfilled","type":"event"},{"anonymous":false,"inputs":[{"indexed":true,"internalType":"bytes32","name":"id","type":"bytes32"}],"name":"ChainlinkRequested","type":"event"},{"anonymous":false,"inputs":[{"indexed":true,"internalType":"address","name":"previousOwner","type":"address"},{"indexed":true,"internalType":"address","name":"newOwner","type":"address"}],"name":"OwnershipTransferred","type":"event"},{"anonymous":false,"inputs":[{"indexed":true,"internalType":"address","name":"driver","type":"address"},{"indexed":true,"internalType":"uint256","name":"rideId","type":"uint256"}],"name":"RideAccepted","type":"event"},{"anonymous":false,"inputs":[{"indexed":true,"internalType":"address","name":"rider","type":"address"},{"indexed":true,"internalType":"uint256","name":"rideId","type":"uint256"}],"name":"RideCancelled","type":"event"},{"anonymous":false,"inputs":[{"indexed":true,"internalType":"address","name":"rider","type":"address"},{"indexed":true,"internalType":"uint256","name":"rideId","type":"uint256"}],"name":"RideCompleted","type":"event"},{"anonymous":false,"inputs":[{"indexed":true,"internalType":"address","name":"rider","type":"address"},{"indexed":true,"internalType":"uint256","name":"rideId","type":"uint256"},{"indexed":false,"internalType":"uint256","name":"fare","type":"uint256"}],"name":"RideRequested","type":"event"},{"anonymous":false,"inputs":[{"indexed":true,"internalType":"address","name":"user","type":"address"}],"name":"UserRegistered","type":"event"},{"inputs":[{"internalType":"uint256","name":"_rideId","type":"uint256"}],"name":"acceptRide","outputs":[],"stateMutability":"nonpayable","type":"function"},{"inputs":[{"internalType":"uint256","name":"_rideId","type":"uint256"}],"name":"cancelRide","outputs":[],"stateMutability":"payable","type":"function"},{"inputs":[{"internalType":"uint256","name":"_rideId","type":"uint256"}],"name":"completeRide","outputs":[],"stateMutability":"payable","type":"function"},{"inputs":[{"internalType":"bytes32","name":"_requestId","type":"bytes32"},{"internalType":"uint256","name":"_price","type":"uint256"}],"name":"fulfillPrice","outputs":[{"internalType":"uint256","name":"","type":"uint256"}],"stateMutability":"nonpayable","type":"function"},{"inputs":[],"name":"getPricePerMeter","outputs":[{"internalType":"uint256","name":"","type":"uint256"}],"stateMutability":"view","type":"function"},{"inputs":[{"internalType":"uint256","name":"_rideId","type":"uint256"}],"name":"getRide","outputs":[{"components":[{"internalType":"address payable","name":"rider","type":"address"},{"internalType":"address payable","name":"driver","type":"address"},{"internalType":"uint256","name":"fare","type":"uint256"},{"internalType":"bool","name":"rideCompleted","type":"bool"}],"internalType":"struct RideHailing.Ride","name":"ride","type":"tuple"}],"stateMutability":"view","type":"function"},{"inputs":[],"name":"owner","outputs":[{"internalType":"address","name":"","type":"address"}],"stateMutability":"view","type":"function"},{"inputs":[],"name":"pricePerMeter","outputs":[{"internalType":"uint256","name":"","type":"uint256"}],"stateMutability":"view","type":"function"},{"inputs":[],"name":"registerUser","outputs":[],"stateMutability":"nonpayable","type":"function"},{"inputs":[{"internalType":"address","name":"","type":"address"}],"name":"registeredUsers","outputs":[{"internalType":"bool","name":"","type":"bool"}],"stateMutability":"view","type":"function"},{"inputs":[],"name":"renounceOwnership","outputs":[],"stateMutability":"nonpayable","type":"function"},{"inputs":[{"internalType":"string","name":"_pickup","type":"string"},{"internalType":"string","name":"_drop","type":"string"}],"name":"requestRide","outputs":[],"stateMutability":"payable","type":"function"},{"inputs":[],"name":"rideCount","outputs":[{"internalType":"uint256","name":"","type":"uint256"}],"stateMutability":"view","type":"function"},{"inputs":[{"internalType":"uint256","name":"","type":"uint256"}],"name":"rides","outputs":[{"internalType":"address payable","name":"rider","type":"address"},{"internalType":"address payable","name":"driver","type":"address"},{"internalType":"uint256","name":"fare","type":"uint256"},{"internalType":"bool","name":"rideCompleted","type":"bool"}],"stateMutability":"view","type":"function"},{"inputs":[{"internalType":"uint256","name":"newPrice","type":"uint256"}],"name":"setPricePerMeter","outputs":[],"stateMutability":"nonpayable","type":"function"},{"inputs":[{"internalType":"address","name":"newOwner","type":"address"}],"name":"transferOwnership","outputs":[],"stateMutability":"nonpayable","type":"function"},{"stateMutability":"payable","type":"receive"}],"devdoc":{"kind":"dev","methods":{"acceptRide(uint256)":{"params":{"_rideId":"The ID of the ride to accept"}},"cancelRide(uint256)":{"params":{"_rideId":"The ID of the ride to cancel"}},"completeRide(uint256)":{"params":{"_rideId":"The ID of the ride to complete"}},"fulfillPrice(bytes32,uint256)":{"details":"Callback function for Chainlink oracle response"},"owner()":{"details":"Returns the address of the current owner."},"renounceOwnership()":{"details":"Leaves the contract without owner. It will not be possible to call `onlyOwner` functions. Can only be called by the current owner. NOTE: Renouncing ownership will leave the contract without an owner, thereby disabling any functionality that is only available to the owner."},"requestRide(string,string)":{"params":{"_drop":"The drop location","_pickup":"The pickup location"}},"setPricePerMeter(uint256)":{"params":{"newPrice":"The new price per meter"}},"transferOwnership(address)":{"details":"Transfers ownership of the contract to a new account (`newOwner`). Can only be called by the current owner."}},"title":"A Ride Hailing smart contract","version":1},"evm":{"bytecode":{"linkReferences":{},"object":"608060405260016005556103e8600a5534801561001b57600080fd5b5060405161170738038061170783398101604081905261003a916100bf565b6100433361006f565b600b80546001600160a01b0319166001600160a01b039490941693909317909255600c55600d55610102565b600080546001600160a01b038381166001600160a01b0319831681178455604051919092169283917f8be0079c531659141344cd1fd0a4f28419497f9722a3daafe3b4186f6b6457e09190a35050565b6000806000606084860312156100d457600080fd5b83516001600160a01b03811681146100eb57600080fd5b602085015160409095015190969495509392505050565b6115f6806101116000396000f3fe6080604052600436106100f75760003560e01c80638da5cb5b1161008a578063c416dd0b11610059578063c416dd0b1461038c578063c51562cb1461039f578063f2fde38b146103bf578063ff46f4ad146103df57600080fd5b80638da5cb5b14610328578063a6f07b2914610350578063ac4bfb0314610363578063b47c18831461037657600080fd5b8063712bfa1e116100c6578063712bfa1e146101fe578063715018a61461021d5780637c7b0ff4146102325780638d2a648d1461030857600080fd5b80630e50cee5146101035780634d3820eb146101485780635205f1121461015f5780636bad66f6146101de57600080fd5b366100fe57005b600080fd5b34801561010f57600080fd5b5061013361011e3660046111c1565b60086020526000908152604090205460ff1681565b60405190151581526020015b60405180910390f35b34801561015457600080fd5b5061015d6103f5565b005b34801561016b57600080fd5b506101b161017a3660046111ea565b60076020526000908152604090208054600182015460028301546003909301546001600160a01b0392831693919092169160ff1684565b604080516001600160a01b039586168152949093166020850152918301521515606082015260800161013f565b3480156101ea57600080fd5b5061015d6101f93660046111ea565b61049c565b34801561020a57600080fd5b50600a545b60405190815260200161013f565b34801561022957600080fd5b5061015d6104a9565b34801561023e57600080fd5b506102c161024d3660046111ea565b6040805160808082018352600080835260208084018290528385018290526060938401829052948152600785528390208351918201845280546001600160a01b0390811683526001820154169482019490945260028401549281019290925260039092015460ff1615159181019190915290565b60405161013f919060006080820190506001600160a01b03808451168352806020850151166020840152506040830151604083015260608301511515606083015292915050565b34801561031457600080fd5b5061020f610323366004611203565b6104bd565b34801561033457600080fd5b506000546040516001600160a01b03909116815260200161013f565b61015d61035e3660046111ea565b6104c5565b61015d6103713660046112c8565b610666565b34801561038257600080fd5b5061020f60095481565b61015d61039a3660046111ea565b6107e4565b3480156103ab57600080fd5b5061015d6103ba3660046111ea565b610937565b3480156103cb57600080fd5b5061015d6103da3660046111c1565b610a3b565b3480156103eb57600080fd5b5061020f600a5481565b3360009081526008602052604090205460ff161561045a5760405162461bcd60e51b815260206004820152601760248201527f5573657220616c7265616479207265676973746572656400000000000000000060448201526064015b60405180910390fd5b33600081815260086020526040808220805460ff19166001179055517f54db7a5cb4735e1aac1f53db512d3390390bb6637bd30ad4bf9fc98667d9b9b99190a2565b6104a4610ab4565b600a55565b6104b1610ab4565b6104bb6000610b0e565b565b805b92915050565b600081815260076020526040902080546001600160a01b0316331461052c5760405162461bcd60e51b815260206004820152601e60248201527f4f6e6c792072696465722063616e2063616e63656c20746865207269646500006044820152606401610451565b60018101546001600160a01b0316156105935760405162461bcd60e51b8152602060048201526024808201527f5269646520616c72656164792061636365707465642c2063616e6e6f742063616044820152631b98d95b60e21b6064820152608401610451565b600381015460ff16156105e85760405162461bcd60e51b815260206004820152601660248201527f5269646520616c726561647920636f6d706c65746564000000000000000000006044820152606401610451565b60038101805460ff19166001179055604051829033907f94654e1242c379bfa05e192407226c3e8b0862176f28e48c23aff6057a82798d90600090a3805460028201546040516001600160a01b039092169181156108fc0291906000818181858888f19350505050158015610661573d6000803e3d6000fd5b505050565b3360009081526008602052604090205460ff166106bb5760405162461bcd60e51b8152602060048201526013602482015272155cd95c881b9bdd081c9959da5cdd195c9959606a1b6044820152606401610451565b60006106c78383610b5e565b9050803411156107195760405162461bcd60e51b815260206004820152601560248201527f4e6f7420656e6f7567682066756e64732073656e7400000000000000000000006044820152606401610451565b604080516080810182523380825260006020808401828152848601878152606086018481526009805486526007855294889020965187546001600160a01b03199081166001600160a01b039283161789559351600189018054909516911617909255516002860155516003909401805460ff19169415159490941790935554925184815290917f0b365df8b2edeb27d7b308aaf9ad3e1f2ff53483d6893ab98c780885ba4bc639910160405180910390a3600980549060006107da83611342565b9190505550505050565b600081815260076020526040902080546001600160a01b0316331461084b5760405162461bcd60e51b815260206004820181905260248201527f4f6e6c792072696465722063616e20636f6d706c6574652074686520726964656044820152606401610451565b600381015460ff16156108a05760405162461bcd60e51b815260206004820152601660248201527f5269646520616c726561647920636f6d706c65746564000000000000000000006044820152606401610451565b80600201543410156108b157600080fd5b60038101805460ff19166001179055805460405183916001600160a01b0316907fed11881b5dd0f44958691c5ac088d3a81ac7e8f8bbd6dd990a8b427f8c3b38ef90600090a3600181015460028201546040516001600160a01b039092169181156108fc0291906000818181858888f19350505050158015610661573d6000803e3d6000fd5b600081815260076020908152604080832033845260089092529091205460ff166109995760405162461bcd60e51b8152602060048201526013602482015272155cd95c881b9bdd081c9959da5cdd195c9959606a1b6044820152606401610451565b60018101546001600160a01b0316156109f45760405162461bcd60e51b815260206004820152601560248201527f5269646520616c726561647920616363657074656400000000000000000000006044820152606401610451565b6001810180546001600160a01b031916339081179091556040518391907f87348e58c77a96989aaef43c7d87d383c1f283c3a3c3d319b96630ef2c0f906a90600090a35050565b610a43610ab4565b6001600160a01b038116610aa85760405162461bcd60e51b815260206004820152602660248201527f4f776e61626c653a206e6577206f776e657220697320746865207a65726f206160448201526564647265737360d01b6064820152608401610451565b610ab181610b0e565b50565b6000546001600160a01b031633146104bb5760405162461bcd60e51b815260206004820181905260248201527f4f776e61626c653a2063616c6c6572206973206e6f7420746865206f776e65726044820152606401610451565b600080546001600160a01b038381166001600160a01b0319831681178455604051919092169283917f8be0079c531659141344cd1fd0a4f28419497f9722a3daafe3b4186f6b6457e09190a35050565b600080610b6b8484610b83565b9050600a5481610b7b919061135b565b949350505050565b600080610b9a600c5430638d2a648d60e01b610c66565b9050610c01604051806040016040528060038152602001621d5c9b60ea1b8152506040518060400160405280601f81526020017f68747470733a2f2f6d6170732e676f6f676c65617069732e636f6d2f2e2e2e0081525083610cf79092919063ffffffff16565b610c5c6040518060400160405280600b81526020016a7175657279506172616d7360a81b8152508585610c32610d15565b604051602001610c44939291906113b8565b60408051601f19818403018152919052839190610cf7565b5060019392505050565b610ca46040805160a0810182526000808252602080830182905282840182905260608084018390528451808601909552845283015290608082015290565b610ce26040805160a0810182526000808252602080830182905282840182905260608084018390528451808601909552845283015290608082015290565b610cee81868686610d38565b95945050505050565b6080830151610d069083610dc3565b60808301516106619082610dc3565b6060600060405180606001604052806027815260200161159a6027913992915050565b610d766040805160a0810182526000808252602080830182905282840182905260608084018390528451808601909552845283015290608082015290565b610d868560800151610100610dda565b50509183526001600160a01b031660208301527fffffffff0000000000000000000000000000000000000000000000000000000016604082015290565b610dd08260038351610e3f565b6106618282610f54565b604080518082019091526060815260006020820152610dfa602083611461565b15610e2257610e0a602083611461565b610e15906020611483565b610e1f9083611496565b91505b506020828101829052604080518085526000815290920101905290565b60178167ffffffffffffffff1611610e6a57610e648360e0600585901b168317610f82565b50505050565b60ff8167ffffffffffffffff1611610ea857610e91836018611fe0600586901b1617610f82565b50610e648367ffffffffffffffff83166001610fa7565b61ffff8167ffffffffffffffff1611610ee757610ed0836019611fe0600586901b1617610f82565b50610e648367ffffffffffffffff83166002610fa7565b63ffffffff8167ffffffffffffffff1611610f2857610f1183601a611fe0600586901b1617610f82565b50610e648367ffffffffffffffff83166004610fa7565b610f3d83601b611fe0600586901b1617610f82565b50610e648367ffffffffffffffff83166008610fa7565b604080518082019091526060815260006020820152610f7b83846000015151848551610fcd565b9392505050565b604080518082019091526060815260006020820152610f7b83846000015151846110b7565b604080518082019091526060815260006020820152610b7b848560000151518585611112565b6040805180820190915260608152600060208201528251821115610ff057600080fd5b6020850151610fff8386611496565b111561103257611032856110228760200151878661101d9190611496565b611193565b61102d90600261135b565b6111aa565b6000808651805187602083010193508088870111156110515787860182525b505050602084015b602084106110915780518252611070602083611496565b915061107d602082611496565b905061108a602085611483565b9350611059565b51815160001960208690036101000a019081169019919091161790525083949350505050565b604080518082019091526060815260006020820152836020015183106110ec576110ec848560200151600261102d919061135b565b8351805160208583010184815350808503611108576001810182525b5093949350505050565b60408051808201909152606081526000602082015260208501516111368584611496565b111561114a5761114a856110228685611496565b6000600161115a8461010061158d565b6111649190611483565b90508551838682010185831982511617815250805184870111156111885783860181525b509495945050505050565b6000818311156111a45750816104bf565b50919050565b81516111b68383610dda565b50610e648382610f54565b6000602082840312156111d357600080fd5b81356001600160a01b0381168114610f7b57600080fd5b6000602082840312156111fc57600080fd5b5035919050565b6000806040838503121561121657600080fd5b50508035926020909101359150565b634e487b7160e01b600052604160045260246000fd5b600082601f83011261124c57600080fd5b813567ffffffffffffffff8082111561126757611267611225565b604051601f8301601f19908116603f0116810190828211818310171561128f5761128f611225565b816040528381528660208588010111156112a857600080fd5b836020870160208301376000602085830101528094505050505092915050565b600080604083850312156112db57600080fd5b823567ffffffffffffffff808211156112f357600080fd5b6112ff8683870161123b565b9350602085013591508082111561131557600080fd5b506113228582860161123b565b9150509250929050565b634e487b7160e01b600052601160045260246000fd5b6000600182016113545761135461132c565b5060010190565b80820281158282048414176104bf576104bf61132c565b6000815180845260005b818110156113985760208185018101518683018201520161137c565b506000602082860101526020601f19601f83011685010191505092915050565b60c08152600760c0820152665069636b75703d60c81b60e082015260006101008060208401526113ea81840187611372565b905082810380604085015260068252652664726f703d60d01b60208301526040810160608501525061141f6040820186611372565b90508281038060808501526009825268266170695f6b65793d60b81b60208301526040810160a0850152506114576040820185611372565b9695505050505050565b60008261147e57634e487b7160e01b600052601260045260246000fd5b500690565b818103818111156104bf576104bf61132c565b808201808211156104bf576104bf61132c565b600181815b808511156114e45781600019048211156114ca576114ca61132c565b808516156114d757918102915b93841c93908002906114ae565b509250929050565b6000826114fb575060016104bf565b81611508575060006104bf565b816001811461151e576002811461152857611544565b60019150506104bf565b60ff8411156115395761153961132c565b50506001821b6104bf565b5060208310610133831016604e8410600b8410161715611567575081810a6104bf565b61157183836114a9565b80600019048211156115855761158561132c565b029392505050565b6000610f7b83836114ec56fe41497a6153794143435a705f466d49464e31546756376e36476e4e317a7545764553315133474da2646970667358221220c97b94c338777fb0ffc79eea5b344e8f50cc660860e9c8e7c53aff2d2236542564736f6c63430008110033","opcodes":"PUSH1 0x80 PUSH1 0x40 MSTORE PUSH1 0x1 PUSH1 0x5 SSTORE PUSH2 0x3E8 PUSH1 0xA SSTORE CALLVALUE DUP1 ISZERO PUSH2 0x1B JUMPI PUSH1 0x0 DUP1 REVERT JUMPDEST POP PUSH1 0x40 MLOAD PUSH2 0x1707 CODESIZE SUB DUP1 PUSH2 0x1707 DUP4 CODECOPY DUP2 ADD PUSH1 0x40 DUP2 SWAP1 MSTORE PUSH2 0x3A SWAP2 PUSH2 0xBF JUMP JUMPDEST PUSH2 0x43 CALLER PUSH2 0x6F JUMP JUMPDEST PUSH1 0xB DUP1 SLOAD PUSH1 0x1 PUSH1 0x1 PUSH1 0xA0 SHL SUB NOT AND PUSH1 0x1 PUSH1 0x1 PUSH1 0xA0 SHL SUB SWAP5 SWAP1 SWAP5 AND SWAP4 SWAP1 SWAP4 OR SWAP1 SWAP3 SSTORE PUSH1 0xC SSTORE PUSH1 0xD SSTORE PUSH2 0x102 JUMP JUMPDEST PUSH1 0x0 DUP1 SLOAD PUSH1 0x1 PUSH1 0x1 PUSH1 0xA0 SHL SUB DUP4 DUP2 AND PUSH1 0x1 PUSH1 0x1 PUSH1 0xA0 SHL SUB NOT DUP4 AND DUP2 OR DUP5 SSTORE PUSH1 0x40 MLOAD SWAP2 SWAP1 SWAP3 AND SWAP3 DUP4 SWAP2 PUSH32 0x8BE0079C531659141344CD1FD0A4F28419497F9722A3DAAFE3B4186F6B6457E0 SWAP2 SWAP1 LOG3 POP POP JUMP JUMPDEST PUSH1 0x0 DUP1 PUSH1 0x0 PUSH1 0x60 DUP5 DUP7 SUB SLT ISZERO PUSH2 0xD4 JUMPI PUSH1 0x0 DUP1 REVERT JUMPDEST DUP4 MLOAD PUSH1 0x1 PUSH1 0x1 PUSH1 0xA0 SHL SUB DUP2 AND DUP2 EQ PUSH2 0xEB JUMPI PUSH1 0x0 DUP1 REVERT JUMPDEST PUSH1 0x20 DUP6 ADD MLOAD PUSH1 0x40 SWAP1 SWAP6 ADD MLOAD SWAP1 SWAP7 SWAP5 SWAP6 POP SWAP4 SWAP3 POP POP POP JUMP JUMPDEST PUSH2 0x15F6 DUP1 PUSH2 0x111 PUSH1 0x0 CODECOPY PUSH1 0x0 RETURN INVALID PUSH1 0x80 PUSH1 0x40 MSTORE PUSH1 0x4 CALLDATASIZE LT PUSH2 0xF7 JUMPI PUSH1 0x0 CALLDATALOAD PUSH1 0xE0 SHR DUP1 PUSH4 0x8DA5CB5B GT PUSH2 0x8A JUMPI DUP1 PUSH4 0xC416DD0B GT PUSH2 0x59 JUMPI DUP1 PUSH4 0xC416DD0B EQ PUSH2 0x38C JUMPI DUP1 PUSH4 0xC51562CB EQ PUSH2 0x39F JUMPI DUP1 PUSH4 0xF2FDE38B EQ PUSH2 0x3BF JUMPI DUP1 PUSH4 0xFF46F4AD EQ PUSH2 0x3DF JUMPI PUSH1 0x0 DUP1 REVERT JUMPDEST DUP1 PUSH4 0x8DA5CB5B EQ PUSH2 0x328 JUMPI DUP1 PUSH4 0xA6F07B29 EQ PUSH2 0x350 JUMPI DUP1 PUSH4 0xAC4BFB03 EQ PUSH2 0x363 JUMPI DUP1 PUSH4 0xB47C1883 EQ PUSH2 0x376 JUMPI PUSH1 0x0 DUP1 REVERT JUMPDEST DUP1 PUSH4 0x712BFA1E GT PUSH2 0xC6 JUMPI DUP1 PUSH4 0x712BFA1E EQ PUSH2 0x1FE JUMPI DUP1 PUSH4 0x715018A6 EQ PUSH2 0x21D JUMPI DUP1 PUSH4 0x7C7B0FF4 EQ PUSH2 0x232 JUMPI DUP1 PUSH4 0x8D2A648D EQ PUSH2 0x308 JUMPI PUSH1 0x0 DUP1 REVERT JUMPDEST DUP1 PUSH4 0xE50CEE5 EQ PUSH2 0x103 JUMPI DUP1 PUSH4 0x4D3820EB EQ PUSH2 0x148 JUMPI DUP1 PUSH4 0x5205F112 EQ PUSH2 0x15F JUMPI DUP1 PUSH4 0x6BAD66F6 EQ PUSH2 0x1DE JUMPI PUSH1 0x0 DUP1 REVERT JUMPDEST CALLDATASIZE PUSH2 0xFE JUMPI STOP JUMPDEST PUSH1 0x0 DUP1 REVERT JUMPDEST CALLVALUE DUP1 ISZERO PUSH2 0x10F JUMPI PUSH1 0x0 DUP1 REVERT JUMPDEST POP PUSH2 0x133 PUSH2 0x11E CALLDATASIZE PUSH1 0x4 PUSH2 0x11C1 JUMP JUMPDEST PUSH1 0x8 PUSH1 0x20 MSTORE PUSH1 0x0 SWAP1 DUP2 MSTORE PUSH1 0x40 SWAP1 KECCAK256 SLOAD PUSH1 0xFF AND DUP2 JUMP JUMPDEST PUSH1 0x40 MLOAD SWAP1 ISZERO ISZERO DUP2 MSTORE PUSH1 0x20 ADD JUMPDEST PUSH1 0x40 MLOAD DUP1 SWAP2 SUB SWAP1 RETURN JUMPDEST CALLVALUE DUP1 ISZERO PUSH2 0x154 JUMPI PUSH1 0x0 DUP1 REVERT JUMPDEST POP PUSH2 0x15D PUSH2 0x3F5 JUMP JUMPDEST STOP JUMPDEST CALLVALUE DUP1 ISZERO PUSH2 0x16B JUMPI PUSH1 0x0 DUP1 REVERT JUMPDEST POP PUSH2 0x1B1 PUSH2 0x17A CALLDATASIZE PUSH1 0x4 PUSH2 0x11EA JUMP JUMPDEST PUSH1 0x7 PUSH1 0x20 MSTORE PUSH1 0x0 SWAP1 DUP2 MSTORE PUSH1 0x40 SWAP1 KECCAK256 DUP1 SLOAD PUSH1 0x1 DUP3 ADD SLOAD PUSH1 0x2 DUP4 ADD SLOAD PUSH1 0x3 SWAP1 SWAP4 ADD SLOAD PUSH1 0x1 PUSH1 0x1 PUSH1 0xA0 SHL SUB SWAP3 DUP4 AND SWAP4 SWAP2 SWAP1 SWAP3 AND SWAP2 PUSH1 0xFF AND DUP5 JUMP JUMPDEST PUSH1 0x40 DUP1 MLOAD PUSH1 0x1 PUSH1 0x1 PUSH1 0xA0 SHL SUB SWAP6 DUP7 AND DUP2 MSTORE SWAP5 SWAP1 SWAP4 AND PUSH1 0x20 DUP6 ADD MSTORE SWAP2 DUP4 ADD MSTORE ISZERO ISZERO PUSH1 0x60 DUP3 ADD MSTORE PUSH1 0x80 ADD PUSH2 0x13F JUMP JUMPDEST CALLVALUE DUP1 ISZERO PUSH2 0x1EA JUMPI PUSH1 0x0 DUP1 REVERT JUMPDEST POP PUSH2 0x15D PUSH2 0x1F9 CALLDATASIZE PUSH1 0x4 PUSH2 0x11EA JUMP JUMPDEST PUSH2 0x49C JUMP JUMPDEST CALLVALUE DUP1 ISZERO PUSH2 0x20A JUMPI PUSH1 0x0 DUP1 REVERT JUMPDEST POP PUSH1 0xA SLOAD JUMPDEST PUSH1 0x40 MLOAD SWAP1 DUP2 MSTORE PUSH1 0x20 ADD PUSH2 0x13F JUMP JUMPDEST CALLVALUE DUP1 ISZERO PUSH2 0x229 JUMPI PUSH1 0x0 DUP1 REVERT JUMPDEST POP PUSH2 0x15D PUSH2 0x4A9 JUMP JUMPDEST CALLVALUE DUP1 ISZERO PUSH2 0x23E JUMPI PUSH1 0x0 DUP1 REVERT JUMPDEST POP PUSH2 0x2C1 PUSH2 0x24D CALLDATASIZE PUSH1 0x4 PUSH2 0x11EA JUMP JUMPDEST PUSH1 0x40 DUP1 MLOAD PUSH1 0x80 DUP1 DUP3 ADD DUP4 MSTORE PUSH1 0x0 DUP1 DUP4 MSTORE PUSH1 0x20 DUP1 DUP5 ADD DUP3 SWAP1 MSTORE DUP4 DUP6 ADD DUP3 SWAP1 MSTORE PUSH1 0x60 SWAP4 DUP5 ADD DUP3 SWAP1 MSTORE SWAP5 DUP2 MSTORE PUSH1 0x7 DUP6 MSTORE DUP4 SWAP1 KECCAK256 DUP4 MLOAD SWAP2 DUP3 ADD DUP5 MSTORE DUP1 SLOAD PUSH1 0x1 PUSH1 0x1 PUSH1 0xA0 SHL SUB SWAP1 DUP2 AND DUP4 MSTORE PUSH1 0x1 DUP3 ADD SLOAD AND SWAP5 DUP3 ADD SWAP5 SWAP1 SWAP5 MSTORE PUSH1 0x2 DUP5 ADD SLOAD SWAP3 DUP2 ADD SWAP3 SWAP1 SWAP3 MSTORE PUSH1 0x3 SWAP1 SWAP3 ADD SLOAD PUSH1 0xFF AND ISZERO ISZERO SWAP2 DUP2 ADD SWAP2 SWAP1 SWAP2 MSTORE SWAP1 JUMP JUMPDEST PUSH1 0x40 MLOAD PUSH2 0x13F SWAP2 SWAP1 PUSH1 0x0 PUSH1 0x80 DUP3 ADD SWAP1 POP PUSH1 0x1 PUSH1 0x1 PUSH1 0xA0 SHL SUB DUP1 DUP5 MLOAD AND DUP4 MSTORE DUP1 PUSH1 0x20 DUP6 ADD MLOAD AND PUSH1 0x20 DUP5 ADD MSTORE POP PUSH1 0x40 DUP4 ADD MLOAD PUSH1 0x40 DUP4 ADD MSTORE PUSH1 0x60 DUP4 ADD MLOAD ISZERO ISZERO PUSH1 0x60 DUP4 ADD MSTORE SWAP3 SWAP2 POP POP JUMP JUMPDEST CALLVALUE DUP1 ISZERO PUSH2 0x314 JUMPI PUSH1 0x0 DUP1 REVERT JUMPDEST POP PUSH2 0x20F PUSH2 0x323 CALLDATASIZE PUSH1 0x4 PUSH2 0x1203 JUMP JUMPDEST PUSH2 0x4BD JUMP JUMPDEST CALLVALUE DUP1 ISZERO PUSH2 0x334 JUMPI PUSH1 0x0 DUP1 REVERT JUMPDEST POP PUSH1 0x0 SLOAD PUSH1 0x40 MLOAD PUSH1 0x1 PUSH1 0x1 PUSH1 0xA0 SHL SUB SWAP1 SWAP2 AND DUP2 MSTORE PUSH1 0x20 ADD PUSH2 0x13F JUMP JUMPDEST PUSH2 0x15D PUSH2 0x35E CALLDATASIZE PUSH1 0x4 PUSH2 0x11EA JUMP JUMPDEST PUSH2 0x4C5 JUMP JUMPDEST PUSH2 0x15D PUSH2 0x371 CALLDATASIZE PUSH1 0x4 PUSH2 0x12C8 JUMP JUMPDEST PUSH2 0x666 JUMP JUMPDEST CALLVALUE DUP1 ISZERO PUSH2 0x382 JUMPI PUSH1 0x0 DUP1 REVERT JUMPDEST POP PUSH2 0x20F PUSH1 0x9 SLOAD DUP2 JUMP JUMPDEST PUSH2 0x15D PUSH2 0x39A CALLDATASIZE PUSH1 0x4 PUSH2 0x11EA JUMP JUMPDEST PUSH2 0x7E4 JUMP JUMPDEST CALLVALUE DUP1 ISZERO PUSH2 0x3AB JUMPI PUSH1 0x0 DUP1 REVERT JUMPDEST POP PUSH2 0x15D PUSH2 0x3BA CALLDATASIZE PUSH1 0x4 PUSH2 0x11EA JUMP JUMPDEST PUSH2 0x937 JUMP JUMPDEST CALLVALUE DUP1 ISZERO PUSH2 0x3CB JUMPI PUSH1 0x0 DUP1 REVERT JUMPDEST POP PUSH2 0x15D PUSH2 0x3DA CALLDATASIZE PUSH1 0x4 PUSH2 0x11C1 JUMP JUMPDEST PUSH2 0xA3B JUMP JUMPDEST CALLVALUE DUP1 ISZERO PUSH2 0x3EB JUMPI PUSH1 0x0 DUP1 REVERT JUMPDEST POP PUSH2 0x20F PUSH1 0xA SLOAD DUP2 JUMP JUMPDEST CALLER PUSH1 0x0 SWAP1 DUP2 MSTORE PUSH1 0x8 PUSH1 0x20 MSTORE PUSH1 0x40 SWAP1 KECCAK256 SLOAD PUSH1 0xFF AND ISZERO PUSH2 0x45A JUMPI PUSH1 0x40 MLOAD PUSH3 0x461BCD PUSH1 0xE5 SHL DUP2 MSTORE PUSH1 0x20 PUSH1 0x4 DUP3 ADD MSTORE PUSH1 0x17 PUSH1 0x24 DUP3 ADD MSTORE PUSH32 0x5573657220616C72656164792072656769737465726564000000000000000000 PUSH1 0x44 DUP3 ADD MSTORE PUSH1 0x64 ADD JUMPDEST PUSH1 0x40 MLOAD DUP1 SWAP2 SUB SWAP1 REVERT JUMPDEST CALLER PUSH1 0x0 DUP2 DUP2 MSTORE PUSH1 0x8 PUSH1 0x20 MSTORE PUSH1 0x40 DUP1 DUP3 KECCAK256 DUP1 SLOAD PUSH1 0xFF NOT AND PUSH1 0x1 OR SWAP1 SSTORE MLOAD PUSH32 0x54DB7A5CB4735E1AAC1F53DB512D3390390BB6637BD30AD4BF9FC98667D9B9B9 SWAP2 SWAP1 LOG2 JUMP JUMPDEST PUSH2 0x4A4 PUSH2 0xAB4 JUMP JUMPDEST PUSH1 0xA SSTORE JUMP JUMPDEST PUSH2 0x4B1 PUSH2 0xAB4 JUMP JUMPDEST PUSH2 0x4BB PUSH1 0x0 PUSH2 0xB0E JUMP JUMPDEST JUMP JUMPDEST DUP1 JUMPDEST SWAP3 SWAP2 POP POP JUMP JUMPDEST PUSH1 0x0 DUP2 DUP2 MSTORE PUSH1 0x7 PUSH1 0x20 MSTORE PUSH1 0x40 SWAP1 KECCAK256 DUP1 SLOAD PUSH1 0x1 PUSH1 0x1 PUSH1 0xA0 SHL SUB AND CALLER EQ PUSH2 0x52C JUMPI PUSH1 0x40 MLOAD PUSH3 0x461BCD PUSH1 0xE5 SHL DUP2 MSTORE PUSH1 0x20 PUSH1 0x4 DUP3 ADD MSTORE PUSH1 0x1E PUSH1 0x24 DUP3 ADD MSTORE PUSH32 0x4F6E6C792072696465722063616E2063616E63656C2074686520726964650000 PUSH1 0x44 DUP3 ADD MSTORE PUSH1 0x64 ADD PUSH2 0x451 JUMP JUMPDEST PUSH1 0x1 DUP2 ADD SLOAD PUSH1 0x1 PUSH1 0x1 PUSH1 0xA0 SHL SUB AND ISZERO PUSH2 0x593 JUMPI PUSH1 0x40 MLOAD PUSH3 0x461BCD PUSH1 0xE5 SHL DUP2 MSTORE PUSH1 0x20 PUSH1 0x4 DUP3 ADD MSTORE PUSH1 0x24 DUP1 DUP3 ADD MSTORE PUSH32 0x5269646520616C72656164792061636365707465642C2063616E6E6F74206361 PUSH1 0x44 DUP3 ADD MSTORE PUSH4 0x1B98D95B PUSH1 0xE2 SHL PUSH1 0x64 DUP3 ADD MSTORE PUSH1 0x84 ADD PUSH2 0x451 JUMP JUMPDEST PUSH1 0x3 DUP2 ADD SLOAD PUSH1 0xFF AND ISZERO PUSH2 0x5E8 JUMPI PUSH1 0x40 MLOAD PUSH3 0x461BCD PUSH1 0xE5 SHL DUP2 MSTORE PUSH1 0x20 PUSH1 0x4 DUP3 ADD MSTORE PUSH1 0x16 PUSH1 0x24 DUP3 ADD MSTORE PUSH32 0x5269646520616C726561647920636F6D706C6574656400000000000000000000 PUSH1 0x44 DUP3 ADD MSTORE PUSH1 0x64 ADD PUSH2 0x451 JUMP JUMPDEST PUSH1 0x3 DUP2 ADD DUP1 SLOAD PUSH1 0xFF NOT AND PUSH1 0x1 OR SWAP1 SSTORE PUSH1 0x40 MLOAD DUP3 SWAP1 CALLER SWAP1 PUSH32 0x94654E1242C379BFA05E192407226C3E8B0862176F28E48C23AFF6057A82798D SWAP1 PUSH1 0x0 SWAP1 LOG3 DUP1 SLOAD PUSH1 0x2 DUP3 ADD SLOAD PUSH1 0x40 MLOAD PUSH1 0x1 PUSH1 0x1 PUSH1 0xA0 SHL SUB SWAP1 SWAP3 AND SWAP2 DUP2 ISZERO PUSH2 0x8FC MUL SWAP2 SWAP1 PUSH1 0x0 DUP2 DUP2 DUP2 DUP6 DUP9 DUP9 CALL SWAP4 POP POP POP POP ISZERO DUP1 ISZERO PUSH2 0x661 JUMPI RETURNDATASIZE PUSH1 0x0 DUP1 RETURNDATACOPY RETURNDATASIZE PUSH1 0x0 REVERT JUMPDEST POP POP POP JUMP JUMPDEST CALLER PUSH1 0x0 SWAP1 DUP2 MSTORE PUSH1 0x8 PUSH1 0x20 MSTORE PUSH1 0x40 SWAP1 KECCAK256 SLOAD PUSH1 0xFF AND PUSH2 0x6BB JUMPI PUSH1 0x40 MLOAD PUSH3 0x461BCD PUSH1 0xE5 SHL DUP2 MSTORE PUSH1 0x20 PUSH1 0x4 DUP3 ADD MSTORE PUSH1 0x13 PUSH1 0x24 DUP3 ADD MSTORE PUSH19 0x155CD95C881B9BDD081C9959DA5CDD195C9959 PUSH1 0x6A SHL PUSH1 0x44 DUP3 ADD MSTORE PUSH1 0x64 ADD PUSH2 0x451 JUMP JUMPDEST PUSH1 0x0 PUSH2 0x6C7 DUP4 DUP4 PUSH2 0xB5E JUMP JUMPDEST SWAP1 POP DUP1 CALLVALUE GT ISZERO PUSH2 0x719 JUMPI PUSH1 0x40 MLOAD PUSH3 0x461BCD PUSH1 0xE5 SHL DUP2 MSTORE PUSH1 0x20 PUSH1 0x4 DUP3 ADD MSTORE PUSH1 0x15 PUSH1 0x24 DUP3 ADD MSTORE PUSH32 0x4E6F7420656E6F7567682066756E64732073656E740000000000000000000000 PUSH1 0x44 DUP3 ADD MSTORE PUSH1 0x64 ADD PUSH2 0x451 JUMP JUMPDEST PUSH1 0x40 DUP1 MLOAD PUSH1 0x80 DUP2 ADD DUP3 MSTORE CALLER DUP1 DUP3 MSTORE PUSH1 0x0 PUSH1 0x20 DUP1 DUP5 ADD DUP3 DUP2 MSTORE DUP5 DUP7 ADD DUP8 DUP2 MSTORE PUSH1 0x60 DUP7 ADD DUP5 DUP2 MSTORE PUSH1 0x9 DUP1 SLOAD DUP7 MSTORE PUSH1 0x7 DUP6 MSTORE SWAP5 DUP9 SWAP1 KECCAK256 SWAP7 MLOAD DUP8 SLOAD PUSH1 0x1 PUSH1 0x1 PUSH1 0xA0 SHL SUB NOT SWAP1 DUP2 AND PUSH1 0x1 PUSH1 0x1 PUSH1 0xA0 SHL SUB SWAP3 DUP4 AND OR DUP10 SSTORE SWAP4 MLOAD PUSH1 0x1 DUP10 ADD DUP1 SLOAD SWAP1 SWAP6 AND SWAP2 AND OR SWAP1 SWAP3 SSTORE MLOAD PUSH1 0x2 DUP7 ADD SSTORE MLOAD PUSH1 0x3 SWAP1 SWAP5 ADD DUP1 SLOAD PUSH1 0xFF NOT AND SWAP5 ISZERO ISZERO SWAP5 SWAP1 SWAP5 OR SWAP1 SWAP4 SSTORE SLOAD SWAP3 MLOAD DUP5 DUP2 MSTORE SWAP1 SWAP2 PUSH32 0xB365DF8B2EDEB27D7B308AAF9AD3E1F2FF53483D6893AB98C780885BA4BC639 SWAP2 ADD PUSH1 0x40 MLOAD DUP1 SWAP2 SUB SWAP1 LOG3 PUSH1 0x9 DUP1 SLOAD SWAP1 PUSH1 0x0 PUSH2 0x7DA DUP4 PUSH2 0x1342 JUMP JUMPDEST SWAP2 SWAP1 POP SSTORE POP POP POP POP JUMP JUMPDEST PUSH1 0x0 DUP2 DUP2 MSTORE PUSH1 0x7 PUSH1 0x20 MSTORE PUSH1 0x40 SWAP1 KECCAK256 DUP1 SLOAD PUSH1 0x1 PUSH1 0x1 PUSH1 0xA0 SHL SUB AND CALLER EQ PUSH2 0x84B JUMPI PUSH1 0x40 MLOAD PUSH3 0x461BCD PUSH1 0xE5 SHL DUP2 MSTORE PUSH1 0x20 PUSH1 0x4 DUP3 ADD DUP2 SWAP1 MSTORE PUSH1 0x24 DUP3 ADD MSTORE PUSH32 0x4F6E6C792072696465722063616E20636F6D706C657465207468652072696465 PUSH1 0x44 DUP3 ADD MSTORE PUSH1 0x64 ADD PUSH2 0x451 JUMP JUMPDEST PUSH1 0x3 DUP2 ADD SLOAD PUSH1 0xFF AND ISZERO PUSH2 0x8A0 JUMPI PUSH1 0x40 MLOAD PUSH3 0x461BCD PUSH1 0xE5 SHL DUP2 MSTORE PUSH1 0x20 PUSH1 0x4 DUP3 ADD MSTORE PUSH1 0x16 PUSH1 0x24 DUP3 ADD MSTORE PUSH32 0x5269646520616C726561647920636F6D706C6574656400000000000000000000 PUSH1 0x44 DUP3 ADD MSTORE PUSH1 0x64 ADD PUSH2 0x451 JUMP JUMPDEST DUP1 PUSH1 0x2 ADD SLOAD CALLVALUE LT ISZERO PUSH2 0x8B1 JUMPI PUSH1 0x0 DUP1 REVERT JUMPDEST PUSH1 0x3 DUP2 ADD DUP1 SLOAD PUSH1 0xFF NOT AND PUSH1 0x1 OR SWAP1 SSTORE DUP1 SLOAD PUSH1 0x40 MLOAD DUP4 SWAP2 PUSH1 0x1 PUSH1 0x1 PUSH1 0xA0 SHL SUB AND SWAP1 PUSH32 0xED11881B5DD0F44958691C5AC088D3A81AC7E8F8BBD6DD990A8B427F8C3B38EF SWAP1 PUSH1 0x0 SWAP1 LOG3 PUSH1 0x1 DUP2 ADD SLOAD PUSH1 0x2 DUP3 ADD SLOAD PUSH1 0x40 MLOAD PUSH1 0x1 PUSH1 0x1 PUSH1 0xA0 SHL SUB SWAP1 SWAP3 AND SWAP2 DUP2 ISZERO PUSH2 0x8FC MUL SWAP2 SWAP1 PUSH1 0x0 DUP2 DUP2 DUP2 DUP6 DUP9 DUP9 CALL SWAP4 POP POP POP POP ISZERO DUP1 ISZERO PUSH2 0x661 JUMPI RETURNDATASIZE PUSH1 0x0 DUP1 RETURNDATACOPY RETURNDATASIZE PUSH1 0x0 REVERT JUMPDEST PUSH1 0x0 DUP2 DUP2 MSTORE PUSH1 0x7 PUSH1 0x20 SWAP1 DUP2 MSTORE PUSH1 0x40 DUP1 DUP4 KECCAK256 CALLER DUP5 MSTORE PUSH1 0x8 SWAP1 SWAP3 MSTORE SWAP1 SWAP2 KECCAK256 SLOAD PUSH1 0xFF AND PUSH2 0x999 JUMPI PUSH1 0x40 MLOAD PUSH3 0x461BCD PUSH1 0xE5 SHL DUP2 MSTORE PUSH1 0x20 PUSH1 0x4 DUP3 ADD MSTORE PUSH1 0x13 PUSH1 0x24 DUP3 ADD MSTORE PUSH19 0x155CD95C881B9BDD081C9959DA5CDD195C9959 PUSH1 0x6A SHL PUSH1 0x44 DUP3 ADD MSTORE PUSH1 0x64 ADD PUSH2 0x451 JUMP JUMPDEST PUSH1 0x1 DUP2 ADD SLOAD PUSH1 0x1 PUSH1 0x1 PUSH1 0xA0 SHL SUB AND ISZERO PUSH2 0x9F4 JUMPI PUSH1 0x40 MLOAD PUSH3 0x461BCD PUSH1 0xE5 SHL DUP2 MSTORE PUSH1 0x20 PUSH1 0x4 DUP3 ADD MSTORE PUSH1 0x15 PUSH1 0x24 DUP3 ADD MSTORE PUSH32 0x5269646520616C72656164792061636365707465640000000000000000000000 PUSH1 0x44 DUP3 ADD MSTORE PUSH1 0x64 ADD PUSH2 0x451 JUMP JUMPDEST PUSH1 0x1 DUP2 ADD DUP1 SLOAD PUSH1 0x1 PUSH1 0x1 PUSH1 0xA0 SHL SUB NOT AND CALLER SWAP1 DUP2 OR SWAP1 SWAP2 SSTORE PUSH1 0x40 MLOAD DUP4 SWAP2 SWAP1 PUSH32 0x87348E58C77A96989AAEF43C7D87D383C1F283C3A3C3D319B96630EF2C0F906A SWAP1 PUSH1 0x0 SWAP1 LOG3 POP POP JUMP JUMPDEST PUSH2 0xA43 PUSH2 0xAB4 JUMP JUMPDEST PUSH1 0x1 PUSH1 0x1 PUSH1 0xA0 SHL SUB DUP2 AND PUSH2 0xAA8 JUMPI PUSH1 0x40 MLOAD PUSH3 0x461BCD PUSH1 0xE5 SHL DUP2 MSTORE PUSH1 0x20 PUSH1 0x4 DUP3 ADD MSTORE PUSH1 0x26 PUSH1 0x24 DUP3 ADD MSTORE PUSH32 0x4F776E61626C653A206E6577206F776E657220697320746865207A65726F2061 PUSH1 0x44 DUP3 ADD MSTORE PUSH6 0x646472657373 PUSH1 0xD0 SHL PUSH1 0x64 DUP3 ADD MSTORE PUSH1 0x84 ADD PUSH2 0x451 JUMP JUMPDEST PUSH2 0xAB1 DUP2 PUSH2 0xB0E JUMP JUMPDEST POP JUMP JUMPDEST PUSH1 0x0 SLOAD PUSH1 0x1 PUSH1 0x1 PUSH1 0xA0 SHL SUB AND CALLER EQ PUSH2 0x4BB JUMPI PUSH1 0x40 MLOAD PUSH3 0x461BCD PUSH1 0xE5 SHL DUP2 MSTORE PUSH1 0x20 PUSH1 0x4 DUP3 ADD DUP2 SWAP1 MSTORE PUSH1 0x24 DUP3 ADD MSTORE PUSH32 0x4F776E61626C653A2063616C6C6572206973206E6F7420746865206F776E6572 PUSH1 0x44 DUP3 ADD MSTORE PUSH1 0x64 ADD PUSH2 0x451 JUMP JUMPDEST PUSH1 0x0 DUP1 SLOAD PUSH1 0x1 PUSH1 0x1 PUSH1 0xA0 SHL SUB DUP4 DUP2 AND PUSH1 0x1 PUSH1 0x1 PUSH1 0xA0 SHL SUB NOT DUP4 AND DUP2 OR DUP5 SSTORE PUSH1 0x40 MLOAD SWAP2 SWAP1 SWAP3 AND SWAP3 DUP4 SWAP2 PUSH32 0x8BE0079C531659141344CD1FD0A4F28419497F9722A3DAAFE3B4186F6B6457E0 SWAP2 SWAP1 LOG3 POP POP JUMP JUMPDEST PUSH1 0x0 DUP1 PUSH2 0xB6B DUP5 DUP5 PUSH2 0xB83 JUMP JUMPDEST SWAP1 POP PUSH1 0xA SLOAD DUP2 PUSH2 0xB7B SWAP2 SWAP1 PUSH2 0x135B JUMP JUMPDEST SWAP5 SWAP4 POP POP POP POP JUMP JUMPDEST PUSH1 0x0 DUP1 PUSH2 0xB9A PUSH1 0xC SLOAD ADDRESS PUSH4 0x8D2A648D PUSH1 0xE0 SHL PUSH2 0xC66 JUMP JUMPDEST SWAP1 POP PUSH2 0xC01 PUSH1 0x40 MLOAD DUP1 PUSH1 0x40 ADD PUSH1 0x40 MSTORE DUP1 PUSH1 0x3 DUP2 MSTORE PUSH1 0x20 ADD PUSH3 0x1D5C9B PUSH1 0xEA SHL DUP2 MSTORE POP PUSH1 0x40 MLOAD DUP1 PUSH1 0x40 ADD PUSH1 0x40 MSTORE DUP1 PUSH1 0x1F DUP2 MSTORE PUSH1 0x20 ADD PUSH32 0x68747470733A2F2F6D6170732E676F6F676C65617069732E636F6D2F2E2E2E00 DUP2 MSTORE POP DUP4 PUSH2 0xCF7 SWAP1 SWAP3 SWAP2 SWAP1 PUSH4 0xFFFFFFFF AND JUMP JUMPDEST PUSH2 0xC5C PUSH1 0x40 MLOAD DUP1 PUSH1 0x40 ADD PUSH1 0x40 MSTORE DUP1 PUSH1 0xB DUP2 MSTORE PUSH1 0x20 ADD PUSH11 0x7175657279506172616D73 PUSH1 0xA8 SHL DUP2 MSTORE POP DUP6 DUP6 PUSH2 0xC32 PUSH2 0xD15 JUMP JUMPDEST PUSH1 0x40 MLOAD PUSH1 0x20 ADD PUSH2 0xC44 SWAP4 SWAP3 SWAP2 SWAP1 PUSH2 0x13B8 JUMP JUMPDEST PUSH1 0x40 DUP1 MLOAD PUSH1 0x1F NOT DUP2 DUP5 SUB ADD DUP2 MSTORE SWAP2 SWAP1 MSTORE DUP4 SWAP2 SWAP1 PUSH2 0xCF7 JUMP JUMPDEST POP PUSH1 0x1 SWAP4 SWAP3 POP POP POP JUMP JUMPDEST PUSH2 0xCA4 PUSH1 0x40 DUP1 MLOAD PUSH1 0xA0 DUP2 ADD DUP3 MSTORE PUSH1 0x0 DUP1 DUP3 MSTORE PUSH1 0x20 DUP1 DUP4 ADD DUP3 SWAP1 MSTORE DUP3 DUP5 ADD DUP3 SWAP1 MSTORE PUSH1 0x60 DUP1 DUP5 ADD DUP4 SWAP1 MSTORE DUP5 MLOAD DUP1 DUP7 ADD SWAP1 SWAP6 MSTORE DUP5 MSTORE DUP4 ADD MSTORE SWAP1 PUSH1 0x80 DUP3 ADD MSTORE SWAP1 JUMP JUMPDEST PUSH2 0xCE2 PUSH1 0x40 DUP1 MLOAD PUSH1 0xA0 DUP2 ADD DUP3 MSTORE PUSH1 0x0 DUP1 DUP3 MSTORE PUSH1 0x20 DUP1 DUP4 ADD DUP3 SWAP1 MSTORE DUP3 DUP5 ADD DUP3 SWAP1 MSTORE PUSH1 0x60 DUP1 DUP5 ADD DUP4 SWAP1 MSTORE DUP5 MLOAD DUP1 DUP7 ADD SWAP1 SWAP6 MSTORE DUP5 MSTORE DUP4 ADD MSTORE SWAP1 PUSH1 0x80 DUP3 ADD MSTORE SWAP1 JUMP JUMPDEST PUSH2 0xCEE DUP2 DUP7 DUP7 DUP7 PUSH2 0xD38 JUMP JUMPDEST SWAP6 SWAP5 POP POP POP POP POP JUMP JUMPDEST PUSH1 0x80 DUP4 ADD MLOAD PUSH2 0xD06 SWAP1 DUP4 PUSH2 0xDC3 JUMP JUMPDEST PUSH1 0x80 DUP4 ADD MLOAD PUSH2 0x661 SWAP1 DUP3 PUSH2 0xDC3 JUMP JUMPDEST PUSH1 0x60 PUSH1 0x0 PUSH1 0x40 MLOAD DUP1 PUSH1 0x60 ADD PUSH1 0x40 MSTORE DUP1 PUSH1 0x27 DUP2 MSTORE PUSH1 0x20 ADD PUSH2 0x159A PUSH1 0x27 SWAP2 CODECOPY SWAP3 SWAP2 POP POP JUMP JUMPDEST PUSH2 0xD76 PUSH1 0x40 DUP1 MLOAD PUSH1 0xA0 DUP2 ADD DUP3 MSTORE PUSH1 0x0 DUP1 DUP3 MSTORE PUSH1 0x20 DUP1 DUP4 ADD DUP3 SWAP1 MSTORE DUP3 DUP5 ADD DUP3 SWAP1 MSTORE PUSH1 0x60 DUP1 DUP5 ADD DUP4 SWAP1 MSTORE DUP5 MLOAD DUP1 DUP7 ADD SWAP1 SWAP6 MSTORE DUP5 MSTORE DUP4 ADD MSTORE SWAP1 PUSH1 0x80 DUP3 ADD MSTORE SWAP1 JUMP JUMPDEST PUSH2 0xD86 DUP6 PUSH1 0x80 ADD MLOAD PUSH2 0x100 PUSH2 0xDDA JUMP JUMPDEST POP POP SWAP2 DUP4 MSTORE PUSH1 0x1 PUSH1 0x1 PUSH1 0xA0 SHL SUB AND PUSH1 0x20 DUP4 ADD MSTORE PUSH32 0xFFFFFFFF00000000000000000000000000000000000000000000000000000000 AND PUSH1 0x40 DUP3 ADD MSTORE SWAP1 JUMP JUMPDEST PUSH2 0xDD0 DUP3 PUSH1 0x3 DUP4 MLOAD PUSH2 0xE3F JUMP JUMPDEST PUSH2 0x661 DUP3 DUP3 PUSH2 0xF54 JUMP JUMPDEST PUSH1 0x40 DUP1 MLOAD DUP1 DUP3 ADD SWAP1 SWAP2 MSTORE PUSH1 0x60 DUP2 MSTORE PUSH1 0x0 PUSH1 0x20 DUP3 ADD MSTORE PUSH2 0xDFA PUSH1 0x20 DUP4 PUSH2 0x1461 JUMP JUMPDEST ISZERO PUSH2 0xE22 JUMPI PUSH2 0xE0A PUSH1 0x20 DUP4 PUSH2 0x1461 JUMP JUMPDEST PUSH2 0xE15 SWAP1 PUSH1 0x20 PUSH2 0x1483 JUMP JUMPDEST PUSH2 0xE1F SWAP1 DUP4 PUSH2 0x1496 JUMP JUMPDEST SWAP2 POP JUMPDEST POP PUSH1 0x20 DUP3 DUP2 ADD DUP3 SWAP1 MSTORE PUSH1 0x40 DUP1 MLOAD DUP1 DUP6 MSTORE PUSH1 0x0 DUP2 MSTORE SWAP1 SWAP3 ADD ADD SWAP1 MSTORE SWAP1 JUMP JUMPDEST PUSH1 0x17 DUP2 PUSH8 0xFFFFFFFFFFFFFFFF AND GT PUSH2 0xE6A JUMPI PUSH2 0xE64 DUP4 PUSH1 0xE0 PUSH1 0x5 DUP6 SWAP1 SHL AND DUP4 OR PUSH2 0xF82 JUMP JUMPDEST POP POP POP POP JUMP JUMPDEST PUSH1 0xFF DUP2 PUSH8 0xFFFFFFFFFFFFFFFF AND GT PUSH2 0xEA8 JUMPI PUSH2 0xE91 DUP4 PUSH1 0x18 PUSH2 0x1FE0 PUSH1 0x5 DUP7 SWAP1 SHL AND OR PUSH2 0xF82 JUMP JUMPDEST POP PUSH2 0xE64 DUP4 PUSH8 0xFFFFFFFFFFFFFFFF DUP4 AND PUSH1 0x1 PUSH2 0xFA7 JUMP JUMPDEST PUSH2 0xFFFF DUP2 PUSH8 0xFFFFFFFFFFFFFFFF AND GT PUSH2 0xEE7 JUMPI PUSH2 0xED0 DUP4 PUSH1 0x19 PUSH2 0x1FE0 PUSH1 0x5 DUP7 SWAP1 SHL AND OR PUSH2 0xF82 JUMP JUMPDEST POP PUSH2 0xE64 DUP4 PUSH8 0xFFFFFFFFFFFFFFFF DUP4 AND PUSH1 0x2 PUSH2 0xFA7 JUMP JUMPDEST PUSH4 0xFFFFFFFF DUP2 PUSH8 0xFFFFFFFFFFFFFFFF AND GT PUSH2 0xF28 JUMPI PUSH2 0xF11 DUP4 PUSH1 0x1A PUSH2 0x1FE0 PUSH1 0x5 DUP7 SWAP1 SHL AND OR PUSH2 0xF82 JUMP JUMPDEST POP PUSH2 0xE64 DUP4 PUSH8 0xFFFFFFFFFFFFFFFF DUP4 AND PUSH1 0x4 PUSH2 0xFA7 JUMP JUMPDEST PUSH2 0xF3D DUP4 PUSH1 0x1B PUSH2 0x1FE0 PUSH1 0x5 DUP7 SWAP1 SHL AND OR PUSH2 0xF82 JUMP JUMPDEST POP PUSH2 0xE64 DUP4 PUSH8 0xFFFFFFFFFFFFFFFF DUP4 AND PUSH1 0x8 PUSH2 0xFA7 JUMP JUMPDEST PUSH1 0x40 DUP1 MLOAD DUP1 DUP3 ADD SWAP1 SWAP2 MSTORE PUSH1 0x60 DUP2 MSTORE PUSH1 0x0 PUSH1 0x20 DUP3 ADD MSTORE PUSH2 0xF7B DUP4 DUP5 PUSH1 0x0 ADD MLOAD MLOAD DUP5 DUP6 MLOAD PUSH2 0xFCD JUMP JUMPDEST SWAP4 SWAP3 POP POP POP JUMP JUMPDEST PUSH1 0x40 DUP1 MLOAD DUP1 DUP3 ADD SWAP1 SWAP2 MSTORE PUSH1 0x60 DUP2 MSTORE PUSH1 0x0 PUSH1 0x20 DUP3 ADD MSTORE PUSH2 0xF7B DUP4 DUP5 PUSH1 0x0 ADD MLOAD MLOAD DUP5 PUSH2 0x10B7 JUMP JUMPDEST PUSH1 0x40 DUP1 MLOAD DUP1 DUP3 ADD SWAP1 SWAP2 MSTORE PUSH1 0x60 DUP2 MSTORE PUSH1 0x0 PUSH1 0x20 DUP3 ADD MSTORE PUSH2 0xB7B DUP5 DUP6 PUSH1 0x0 ADD MLOAD MLOAD DUP6 DUP6 PUSH2 0x1112 JUMP JUMPDEST PUSH1 0x40 DUP1 MLOAD DUP1 DUP3 ADD SWAP1 SWAP2 MSTORE PUSH1 0x60 DUP2 MSTORE PUSH1 0x0 PUSH1 0x20 DUP3 ADD MSTORE DUP3 MLOAD DUP3 GT ISZERO PUSH2 0xFF0 JUMPI PUSH1 0x0 DUP1 REVERT JUMPDEST PUSH1 0x20 DUP6 ADD MLOAD PUSH2 0xFFF DUP4 DUP7 PUSH2 0x1496 JUMP JUMPDEST GT ISZERO PUSH2 0x1032 JUMPI PUSH2 0x1032 DUP6 PUSH2 0x1022 DUP8 PUSH1 0x20 ADD MLOAD DUP8 DUP7 PUSH2 0x101D SWAP2 SWAP1 PUSH2 0x1496 JUMP JUMPDEST PUSH2 0x1193 JUMP JUMPDEST PUSH2 0x102D SWAP1 PUSH1 0x2 PUSH2 0x135B JUMP JUMPDEST PUSH2 0x11AA JUMP JUMPDEST PUSH1 0x0 DUP1 DUP7 MLOAD DUP1 MLOAD DUP8 PUSH1 0x20 DUP4 ADD ADD SWAP4 POP DUP1 DUP9 DUP8 ADD GT ISZERO PUSH2 0x1051 JUMPI DUP8 DUP7 ADD DUP3 MSTORE JUMPDEST POP POP POP PUSH1 0x20 DUP5 ADD JUMPDEST PUSH1 0x20 DUP5 LT PUSH2 0x1091 JUMPI DUP1 MLOAD DUP3 MSTORE PUSH2 0x1070 PUSH1 0x20 DUP4 PUSH2 0x1496 JUMP JUMPDEST SWAP2 POP PUSH2 0x107D PUSH1 0x20 DUP3 PUSH2 0x1496 JUMP JUMPDEST SWAP1 POP PUSH2 0x108A PUSH1 0x20 DUP6 PUSH2 0x1483 JUMP JUMPDEST SWAP4 POP PUSH2 0x1059 JUMP JUMPDEST MLOAD DUP2 MLOAD PUSH1 0x0 NOT PUSH1 0x20 DUP7 SWAP1 SUB PUSH2 0x100 EXP ADD SWAP1 DUP2 AND SWAP1 NOT SWAP2 SWAP1 SWAP2 AND OR SWAP1 MSTORE POP DUP4 SWAP5 SWAP4 POP POP POP POP JUMP JUMPDEST PUSH1 0x40 DUP1 MLOAD DUP1 DUP3 ADD SWAP1 SWAP2 MSTORE PUSH1 0x60 DUP2 MSTORE PUSH1 0x0 PUSH1 0x20 DUP3 ADD MSTORE DUP4 PUSH1 0x20 ADD MLOAD DUP4 LT PUSH2 0x10EC JUMPI PUSH2 0x10EC DUP5 DUP6 PUSH1 0x20 ADD MLOAD PUSH1 0x2 PUSH2 0x102D SWAP2 SWAP1 PUSH2 0x135B JUMP JUMPDEST DUP4 MLOAD DUP1 MLOAD PUSH1 0x20 DUP6 DUP4 ADD ADD DUP5 DUP2 MSTORE8 POP DUP1 DUP6 SUB PUSH2 0x1108 JUMPI PUSH1 0x1 DUP2 ADD DUP3 MSTORE JUMPDEST POP SWAP4 SWAP5 SWAP4 POP POP POP POP JUMP JUMPDEST PUSH1 0x40 DUP1 MLOAD DUP1 DUP3 ADD SWAP1 SWAP2 MSTORE PUSH1 0x60 DUP2 MSTORE PUSH1 0x0 PUSH1 0x20 DUP3 ADD MSTORE PUSH1 0x20 DUP6 ADD MLOAD PUSH2 0x1136 DUP6 DUP5 PUSH2 0x1496 JUMP JUMPDEST GT ISZERO PUSH2 0x114A JUMPI PUSH2 0x114A DUP6 PUSH2 0x1022 DUP7 DUP6 PUSH2 0x1496 JUMP JUMPDEST PUSH1 0x0 PUSH1 0x1 PUSH2 0x115A DUP5 PUSH2 0x100 PUSH2 0x158D JUMP JUMPDEST PUSH2 0x1164 SWAP2 SWAP1 PUSH2 0x1483 JUMP JUMPDEST SWAP1 POP DUP6 MLOAD DUP4 DUP7 DUP3 ADD ADD DUP6 DUP4 NOT DUP3 MLOAD AND OR DUP2 MSTORE POP DUP1 MLOAD DUP5 DUP8 ADD GT ISZERO PUSH2 0x1188 JUMPI DUP4 DUP7 ADD DUP2 MSTORE JUMPDEST POP SWAP5 SWAP6 SWAP5 POP POP POP POP POP JUMP JUMPDEST PUSH1 0x0 DUP2 DUP4 GT ISZERO PUSH2 0x11A4 JUMPI POP DUP2 PUSH2 0x4BF JUMP JUMPDEST POP SWAP2 SWAP1 POP JUMP JUMPDEST DUP2 MLOAD PUSH2 0x11B6 DUP4 DUP4 PUSH2 0xDDA JUMP JUMPDEST POP PUSH2 0xE64 DUP4 DUP3 PUSH2 0xF54 JUMP JUMPDEST PUSH1 0x0 PUSH1 0x20 DUP3 DUP5 SUB SLT ISZERO PUSH2 0x11D3 JUMPI PUSH1 0x0 DUP1 REVERT JUMPDEST DUP2 CALLDATALOAD PUSH1 0x1 PUSH1 0x1 PUSH1 0xA0 SHL SUB DUP2 AND DUP2 EQ PUSH2 0xF7B JUMPI PUSH1 0x0 DUP1 REVERT JUMPDEST PUSH1 0x0 PUSH1 0x20 DUP3 DUP5 SUB SLT ISZERO PUSH2 0x11FC JUMPI PUSH1 0x0 DUP1 REVERT JUMPDEST POP CALLDATALOAD SWAP2 SWAP1 POP JUMP JUMPDEST PUSH1 0x0 DUP1 PUSH1 0x40 DUP4 DUP6 SUB SLT ISZERO PUSH2 0x1216 JUMPI PUSH1 0x0 DUP1 REVERT JUMPDEST POP POP DUP1 CALLDATALOAD SWAP3 PUSH1 0x20 SWAP1 SWAP2 ADD CALLDATALOAD SWAP2 POP JUMP JUMPDEST PUSH4 0x4E487B71 PUSH1 0xE0 SHL PUSH1 0x0 MSTORE PUSH1 0x41 PUSH1 0x4 MSTORE PUSH1 0x24 PUSH1 0x0 REVERT JUMPDEST PUSH1 0x0 DUP3 PUSH1 0x1F DUP4 ADD SLT PUSH2 0x124C JUMPI PUSH1 0x0 DUP1 REVERT JUMPDEST DUP2 CALLDATALOAD PUSH8 0xFFFFFFFFFFFFFFFF DUP1 DUP3 GT ISZERO PUSH2 0x1267 JUMPI PUSH2 0x1267 PUSH2 0x1225 JUMP JUMPDEST PUSH1 0x40 MLOAD PUSH1 0x1F DUP4 ADD PUSH1 0x1F NOT SWAP1 DUP2 AND PUSH1 0x3F ADD AND DUP2 ADD SWAP1 DUP3 DUP3 GT DUP2 DUP4 LT OR ISZERO PUSH2 0x128F JUMPI PUSH2 0x128F PUSH2 0x1225 JUMP JUMPDEST DUP2 PUSH1 0x40 MSTORE DUP4 DUP2 MSTORE DUP7 PUSH1 0x20 DUP6 DUP9 ADD ADD GT ISZERO PUSH2 0x12A8 JUMPI PUSH1 0x0 DUP1 REVERT JUMPDEST DUP4 PUSH1 0x20 DUP8 ADD PUSH1 0x20 DUP4 ADD CALLDATACOPY PUSH1 0x0 PUSH1 0x20 DUP6 DUP4 ADD ADD MSTORE DUP1 SWAP5 POP POP POP POP POP SWAP3 SWAP2 POP POP JUMP JUMPDEST PUSH1 0x0 DUP1 PUSH1 0x40 DUP4 DUP6 SUB SLT ISZERO PUSH2 0x12DB JUMPI PUSH1 0x0 DUP1 REVERT JUMPDEST DUP3 CALLDATALOAD PUSH8 0xFFFFFFFFFFFFFFFF DUP1 DUP3 GT ISZERO PUSH2 0x12F3 JUMPI PUSH1 0x0 DUP1 REVERT JUMPDEST PUSH2 0x12FF DUP7 DUP4 DUP8 ADD PUSH2 0x123B JUMP JUMPDEST SWAP4 POP PUSH1 0x20 DUP6 ADD CALLDATALOAD SWAP2 POP DUP1 DUP3 GT ISZERO PUSH2 0x1315 JUMPI PUSH1 0x0 DUP1 REVERT JUMPDEST POP PUSH2 0x1322 DUP6 DUP3 DUP7 ADD PUSH2 0x123B JUMP JUMPDEST SWAP2 POP POP SWAP3 POP SWAP3 SWAP1 POP JUMP JUMPDEST PUSH4 0x4E487B71 PUSH1 0xE0 SHL PUSH1 0x0 MSTORE PUSH1 0x11 PUSH1 0x4 MSTORE PUSH1 0x24 PUSH1 0x0 REVERT JUMPDEST PUSH1 0x0 PUSH1 0x1 DUP3 ADD PUSH2 0x1354 JUMPI PUSH2 0x1354 PUSH2 0x132C JUMP JUMPDEST POP PUSH1 0x1 ADD SWAP1 JUMP JUMPDEST DUP1 DUP3 MUL DUP2 ISZERO DUP3 DUP3 DIV DUP5 EQ OR PUSH2 0x4BF JUMPI PUSH2 0x4BF PUSH2 0x132C JUMP JUMPDEST PUSH1 0x0 DUP2 MLOAD DUP1 DUP5 MSTORE PUSH1 0x0 JUMPDEST DUP2 DUP2 LT ISZERO PUSH2 0x1398 JUMPI PUSH1 0x20 DUP2 DUP6 ADD DUP2 ADD MLOAD DUP7 DUP4 ADD DUP3 ADD MSTORE ADD PUSH2 0x137C JUMP JUMPDEST POP PUSH1 0x0 PUSH1 0x20 DUP3 DUP7 ADD ADD MSTORE PUSH1 0x20 PUSH1 0x1F NOT PUSH1 0x1F DUP4 ADD AND DUP6 ADD ADD SWAP2 POP POP SWAP3 SWAP2 POP POP JUMP JUMPDEST PUSH1 0xC0 DUP2 MSTORE PUSH1 0x7 PUSH1 0xC0 DUP3 ADD MSTORE PUSH7 0x5069636B75703D PUSH1 0xC8 SHL PUSH1 0xE0 DUP3 ADD MSTORE PUSH1 0x0 PUSH2 0x100 DUP1 PUSH1 0x20 DUP5 ADD MSTORE PUSH2 0x13EA DUP2 DUP5 ADD DUP8 PUSH2 0x1372 JUMP JUMPDEST SWAP1 POP DUP3 DUP2 SUB DUP1 PUSH1 0x40 DUP6 ADD MSTORE PUSH1 0x6 DUP3 MSTORE PUSH6 0x2664726F703D PUSH1 0xD0 SHL PUSH1 0x20 DUP4 ADD MSTORE PUSH1 0x40 DUP2 ADD PUSH1 0x60 DUP6 ADD MSTORE POP PUSH2 0x141F PUSH1 0x40 DUP3 ADD DUP7 PUSH2 0x1372 JUMP JUMPDEST SWAP1 POP DUP3 DUP2 SUB DUP1 PUSH1 0x80 DUP6 ADD MSTORE PUSH1 0x9 DUP3 MSTORE PUSH9 0x266170695F6B65793D PUSH1 0xB8 SHL PUSH1 0x20 DUP4 ADD MSTORE PUSH1 0x40 DUP2 ADD PUSH1 0xA0 DUP6 ADD MSTORE POP PUSH2 0x1457 PUSH1 0x40 DUP3 ADD DUP6 PUSH2 0x1372 JUMP JUMPDEST SWAP7 SWAP6 POP POP POP POP POP POP JUMP JUMPDEST PUSH1 0x0 DUP3 PUSH2 0x147E JUMPI PUSH4 0x4E487B71 PUSH1 0xE0 SHL PUSH1 0x0 MSTORE PUSH1 0x12 PUSH1 0x4 MSTORE PUSH1 0x24 PUSH1 0x0 REVERT JUMPDEST POP MOD SWAP1 JUMP JUMPDEST DUP2 DUP2 SUB DUP2 DUP2 GT ISZERO PUSH2 0x4BF JUMPI PUSH2 0x4BF PUSH2 0x132C JUMP JUMPDEST DUP1 DUP3 ADD DUP1 DUP3 GT ISZERO PUSH2 0x4BF JUMPI PUSH2 0x4BF PUSH2 0x132C JUMP JUMPDEST PUSH1 0x1 DUP2 DUP2 JUMPDEST DUP1 DUP6 GT ISZERO PUSH2 0x14E4 JUMPI DUP2 PUSH1 0x0 NOT DIV DUP3 GT ISZERO PUSH2 0x14CA JUMPI PUSH2 0x14CA PUSH2 0x132C JUMP JUMPDEST DUP1 DUP6 AND ISZERO PUSH2 0x14D7 JUMPI SWAP2 DUP2 MUL SWAP2 JUMPDEST SWAP4 DUP5 SHR SWAP4 SWAP1 DUP1 MUL SWAP1 PUSH2 0x14AE JUMP JUMPDEST POP SWAP3 POP SWAP3 SWAP1 POP JUMP JUMPDEST PUSH1 0x0 DUP3 PUSH2 0x14FB JUMPI POP PUSH1 0x1 PUSH2 0x4BF JUMP JUMPDEST DUP2 PUSH2 0x1508 JUMPI POP PUSH1 0x0 PUSH2 0x4BF JUMP JUMPDEST DUP2 PUSH1 0x1 DUP2 EQ PUSH2 0x151E JUMPI PUSH1 0x2 DUP2 EQ PUSH2 0x1528 JUMPI PUSH2 0x1544 JUMP JUMPDEST PUSH1 0x1 SWAP2 POP POP PUSH2 0x4BF JUMP JUMPDEST PUSH1 0xFF DUP5 GT ISZERO PUSH2 0x1539 JUMPI PUSH2 0x1539 PUSH2 0x132C JUMP JUMPDEST POP POP PUSH1 0x1 DUP3 SHL PUSH2 0x4BF JUMP JUMPDEST POP PUSH1 0x20 DUP4 LT PUSH2 0x133 DUP4 LT AND PUSH1 0x4E DUP5 LT PUSH1 0xB DUP5 LT AND OR ISZERO PUSH2 0x1567 JUMPI POP DUP2 DUP2 EXP PUSH2 0x4BF JUMP JUMPDEST PUSH2 0x1571 DUP4 DUP4 PUSH2 0x14A9 JUMP JUMPDEST DUP1 PUSH1 0x0 NOT DIV DUP3 GT ISZERO PUSH2 0x1585 JUMPI PUSH2 0x1585 PUSH2 0x132C JUMP JUMPDEST MUL SWAP4 SWAP3 POP POP POP JUMP JUMPDEST PUSH1 0x0 PUSH2 0xF7B DUP4 DUP4 PUSH2 0x14EC JUMP INVALID COINBASE 0x49 PUSH27 0x6153794143435A705F466D49464E31546756376E36476E4E317A75 GASLIMIT PUSH23 0x4553315133474DA2646970667358221220C97B94C33877 PUSH32 0xB0FFC79EEA5B344E8F50CC660860E9C8E7C53AFF2D2236542564736F6C634300 ADDMOD GT STOP CALLER "},"gasEstimates":{"creation":{"codeDepositCost":"1124400","executionCost":"infinite","totalCost":"infinite"},"external":{"acceptRide(uint256)":"30456","cancelRide(uint256)":"infinite","completeRide(uint256)":"infinite","fulfillPrice(bytes32,uint256)":"404","getPricePerMeter()":"2304","getRide(uint256)":"9233","owner()":"2324","pricePerMeter()":"2383","registerUser()":"27816","registeredUsers(address)":"2509","renounceOwnership()":"infinite","requestRide(string,string)":"infinite","rideCount()":"2384","rides(uint256)":"8974","setPricePerMeter(uint256)":"24578","transferOwnership(address)":"28364"},"internal":{"calculateDistance(string memory,string memory)":"infinite","calculateFare(string memory,string memory)":"infinite","getApiKey()":"infinite"}},"methodIdentifiers":{"acceptRide(uint256)":"c51562cb","cancelRide(uint256)":"a6f07b29","completeRide(uint256)":"c416dd0b","fulfillPrice(bytes32,uint256)":"8d2a648d","getPricePerMeter()":"712bfa1e","getRide(uint256)":"7c7b0ff4","owner()":"8da5cb5b","pricePerMeter()":"ff46f4ad","registerUser()":"4d3820eb","registeredUsers(address)":"0e50cee5","renounceOwnership()":"715018a6","requestRide(string,string)":"ac4bfb03","rideCount()":"b47c1883","rides(uint256)":"5205f112","setPricePerMeter(uint256)":"6bad66f6","transferOwnership(address)":"f2fde38b"}},"storageLayout":{"storage":[{"astId":2229,"contract":"contracts/RideHailing.sol:RideHailing","label":"_owner","offset":0,"slot":"0","type":"t_address"},{"astId":319,"contract":"contracts/RideHailing.sol:RideHailing","label":"s_ens","offset":0,"slot":"1","type":"t_contract(ENSInterface)1020"},{"astId":321,"contract":"contracts/RideHailing.sol:RideHailing","label":"s_ensNode","offset":0,"slot":"2","type":"t_bytes32"},{"astId":324,"contract":"contracts/RideHailing.sol:RideHailing","label":"s_link","offset":0,"slot":"3","type":"t_contract(LinkTokenInterface)1115"},{"astId":327,"contract":"contracts/RideHailing.sol:RideHailing","label":"s_oracle","offset":0,"slot":"4","type":"t_contract(OperatorInterface)1195"},{"astId":330,"contract":"contracts/RideHailing.sol:RideHailing","label":"s_requestCount","offset":0,"slot":"5","type":"t_uint256"},{"astId":334,"contract":"contracts/RideHailing.sol:RideHailing","label":"s_pendingRequests","offset":0,"slot":"6","type":"t_mapping(t_bytes32,t_address)"},{"astId":2384,"contract":"contracts/RideHailing.sol:RideHailing","label":"rides","offset":0,"slot":"7","type":"t_mapping(t_uint256,t_struct(Ride)2379_storage)"},{"astId":2388,"contract":"contracts/RideHailing.sol:RideHailing","label":"registeredUsers","offset":0,"slot":"8","type":"t_mapping(t_address,t_bool)"},{"astId":2390,"contract":"contracts/RideHailing.sol:RideHailing","label":"rideCount","offset":0,"slot":"9","type":"t_uint256"},{"astId":2393,"contract":"contracts/RideHailing.sol:RideHailing","label":"pricePerMeter","offset":0,"slot":"10","type":"t_uint256"},{"astId":2425,"contract":"contracts/RideHailing.sol:RideHailing","label":"oracle","offset":0,"slot":"11","type":"t_address"},{"astId":2427,"contract":"contracts/RideHailing.sol:RideHailing","label":"jobId","offset":0,"slot":"12","type":"t_bytes32"},{"astId":2429,"contract":"contracts/RideHailing.sol:RideHailing","label":"fee","offset":0,"slot":"13","type":"t_uint256"}],"types":{"t_address":{"encoding":"inplace","label":"address","numberOfBytes":"20"},"t_address_payable":{"encoding":"inplace","label":"address payable","numberOfBytes":"20"},"t_bool":{"encoding":"inplace","label":"bool","numberOfBytes":"1"},"t_bytes32":{"encoding":"inplace","label":"bytes32","numberOfBytes":"32"},"t_contract(ENSInterface)1020":{"encoding":"inplace","label":"contract ENSInterface","numberOfBytes":"20"},"t_contract(LinkTokenInterface)1115":{"encoding":"inplace","label":"contract LinkTokenInterface","numberOfBytes":"20"},"t_contract(OperatorInterface)1195":{"encoding":"inplace","label":"contract OperatorInterface","numberOfBytes":"20"},"t_mapping(t_address,t_bool)":{"encoding":"mapping","key":"t_address","label":"mapping(address => bool)","numberOfBytes":"32","value":"t_bool"},"t_mapping(t_bytes32,t_address)":{"encoding":"mapping","key":"t_bytes32","label":"mapping(bytes32 => address)","numberOfBytes":"32","value":"t_address"},"t_mapping(t_uint256,t_struct(Ride)2379_storage)":{"encoding":"mapping","key":"t_uint256","label":"mapping(uint256 => struct RideHailing.Ride)","numberOfBytes":"32","value":"t_struct(Ride)2379_storage"},"t_struct(Ride)2379_storage":{"encoding":"inplace","label":"struct RideHailing.Ride","members":[{"astId":2372,"contract":"contracts/RideHailing.sol:RideHailing","label":"rider","offset":0,"slot":"0","type":"t_address_payable"},{"astId":2374,"contract":"contracts/RideHailing.sol:RideHailing","label":"driver","offset":0,"slot":"1","type":"t_address_payable"},{"astId":2376,"contract":"contracts/RideHailing.sol:RideHailing","label":"fare","offset":0,"slot":"2","type":"t_uint256"},{"astId":2378,"contract":"contracts/RideHailing.sol:RideHailing","label":"rideCompleted","offset":0,"slot":"3","type":"t_bool"}],"numberOfBytes":"128"},"t_uint256":{"encoding":"inplace","label":"uint256","numberOfBytes":"32"}}},"userdoc":{"kind":"user","methods":{"acceptRide(uint256)":{"notice":"Accept a ride"},"cancelRide(uint256)":{"notice":"Cancel a ride"},"completeRide(uint256)":{"notice":"Complete a ride"},"getPricePerMeter()":{"notice":"Get the price per meter"},"registerUser()":{"notice":"Register a new user"},"requestRide(string,string)":{"notice":"Request a ride"},"setPricePerMeter(uint256)":{"notice":"Set the price per meter"}},"version":1}}}}