{
  "_format": "hh-sol-artifact-1",
  "contractName": "RideHailing",
  "sourceName": "contracts/RideHailing.sol",
  "abi": [
    {
      "inputs": [],
      "stateMutability": "nonpayable",
      "type": "constructor"
    },
    {
      "anonymous": false,
      "inputs": [
        {
          "indexed": true,
          "internalType": "bytes32",
          "name": "id",
          "type": "bytes32"
        }
      ],
      "name": "ChainlinkCancelled",
      "type": "event"
    },
    {
      "anonymous": false,
      "inputs": [
        {
          "indexed": true,
          "internalType": "bytes32",
          "name": "id",
          "type": "bytes32"
        }
      ],
      "name": "ChainlinkFulfilled",
      "type": "event"
    },
    {
      "anonymous": false,
      "inputs": [
        {
          "indexed": true,
          "internalType": "bytes32",
          "name": "id",
          "type": "bytes32"
        }
      ],
      "name": "ChainlinkRequested",
      "type": "event"
    },
    {
      "anonymous": false,
      "inputs": [
        {
          "indexed": true,
          "internalType": "address",
          "name": "rider",
          "type": "address"
        },
        {
          "indexed": true,
          "internalType": "uint256",
          "name": "rideId",
          "type": "uint256"
        },
        {
          "indexed": false,
          "internalType": "uint256",
          "name": "rating",
          "type": "uint256"
        }
      ],
      "name": "DriverRated",
      "type": "event"
    },
    {
      "anonymous": false,
      "inputs": [
        {
          "indexed": true,
          "internalType": "address",
          "name": "previousOwner",
          "type": "address"
        },
        {
          "indexed": true,
          "internalType": "address",
          "name": "newOwner",
          "type": "address"
        }
      ],
      "name": "OwnershipTransferred",
      "type": "event"
    },
    {
      "anonymous": false,
      "inputs": [
        {
          "indexed": false,
          "internalType": "bytes32",
          "name": "_requestId",
          "type": "bytes32"
        },
        {
          "indexed": false,
          "internalType": "string",
          "name": "_status",
          "type": "string"
        }
      ],
      "name": "RequestVolume",
      "type": "event"
    },
    {
      "anonymous": false,
      "inputs": [
        {
          "indexed": true,
          "internalType": "address",
          "name": "driver",
          "type": "address"
        },
        {
          "indexed": true,
          "internalType": "uint256",
          "name": "rideId",
          "type": "uint256"
        }
      ],
      "name": "RideAccepted",
      "type": "event"
    },
    {
      "anonymous": false,
      "inputs": [
        {
          "indexed": true,
          "internalType": "address",
          "name": "rider",
          "type": "address"
        },
        {
          "indexed": true,
          "internalType": "uint256",
          "name": "rideId",
          "type": "uint256"
        }
      ],
      "name": "RideCancelled",
      "type": "event"
    },
    {
      "anonymous": false,
      "inputs": [
        {
          "indexed": true,
          "internalType": "address",
          "name": "rider",
          "type": "address"
        },
        {
          "indexed": true,
          "internalType": "uint256",
          "name": "rideId",
          "type": "uint256"
        }
      ],
      "name": "RideCompleted",
      "type": "event"
    },
    {
      "anonymous": false,
      "inputs": [
        {
          "indexed": true,
          "internalType": "address",
          "name": "rider",
          "type": "address"
        },
        {
          "indexed": true,
          "internalType": "uint256",
          "name": "rideId",
          "type": "uint256"
        },
        {
          "indexed": false,
          "internalType": "uint256",
          "name": "fare",
          "type": "uint256"
        }
      ],
      "name": "RideRequested",
      "type": "event"
    },
    {
      "anonymous": false,
      "inputs": [
        {
          "indexed": true,
          "internalType": "address",
          "name": "user",
          "type": "address"
        }
      ],
      "name": "UserRegistered",
      "type": "event"
    },
    {
      "inputs": [
        {
          "internalType": "uint256",
          "name": "_rideId",
          "type": "uint256"
        }
      ],
      "name": "acceptRide",
      "outputs": [],
      "stateMutability": "nonpayable",
      "type": "function"
    },
    {
      "inputs": [
        {
          "internalType": "uint256",
          "name": "_rideId",
          "type": "uint256"
        }
      ],
      "name": "cancelRide",
      "outputs": [],
      "stateMutability": "payable",
      "type": "function"
    },
    {
      "inputs": [
        {
          "internalType": "uint256",
          "name": "_rideId",
          "type": "uint256"
        },
        {
          "internalType": "uint256",
          "name": "_rating",
          "type": "uint256"
        }
      ],
      "name": "completeRideAndRateDriver",
      "outputs": [],
      "stateMutability": "payable",
      "type": "function"
    },
    {
      "inputs": [],
      "name": "distance",
      "outputs": [
        {
          "internalType": "uint256",
          "name": "",
          "type": "uint256"
        }
      ],
      "stateMutability": "view",
      "type": "function"
    },
    {
      "inputs": [
        {
          "internalType": "bytes32",
          "name": "_requestId",
          "type": "bytes32"
        },
        {
          "internalType": "string",
          "name": "_status",
          "type": "string"
        }
      ],
      "name": "fulfillDistance",
      "outputs": [],
      "stateMutability": "nonpayable",
      "type": "function"
    },
    {
      "inputs": [],
      "name": "getPricePerMeter",
      "outputs": [
        {
          "internalType": "uint256",
          "name": "",
          "type": "uint256"
        }
      ],
      "stateMutability": "view",
      "type": "function"
    },
    {
      "inputs": [
        {
          "internalType": "uint256",
          "name": "_rideId",
          "type": "uint256"
        }
      ],
      "name": "getRide",
      "outputs": [
        {
          "components": [
            {
              "internalType": "address payable",
              "name": "rider",
              "type": "address"
            },
            {
              "internalType": "address payable",
              "name": "driver",
              "type": "address"
            },
            {
              "internalType": "uint256",
              "name": "fare",
              "type": "uint256"
            },
            {
              "internalType": "bool",
              "name": "rideCompleted",
              "type": "bool"
            },
            {
              "internalType": "string",
              "name": "estdTime",
              "type": "string"
            },
            {
              "internalType": "uint256",
              "name": "rating",
              "type": "uint256"
            }
          ],
          "internalType": "struct RideHailing.Ride",
          "name": "ride",
          "type": "tuple"
        }
      ],
      "stateMutability": "view",
      "type": "function"
    },
    {
      "inputs": [],
      "name": "owner",
      "outputs": [
        {
          "internalType": "address",
          "name": "",
          "type": "address"
        }
      ],
      "stateMutability": "view",
      "type": "function"
    },
    {
      "inputs": [],
      "name": "pricePerMeter",
      "outputs": [
        {
          "internalType": "uint256",
          "name": "",
          "type": "uint256"
        }
      ],
      "stateMutability": "view",
      "type": "function"
    },
    {
      "inputs": [],
      "name": "registerUser",
      "outputs": [],
      "stateMutability": "nonpayable",
      "type": "function"
    },
    {
      "inputs": [
        {
          "internalType": "address",
          "name": "",
          "type": "address"
        }
      ],
      "name": "registeredUsers",
      "outputs": [
        {
          "internalType": "bool",
          "name": "",
          "type": "bool"
        }
      ],
      "stateMutability": "view",
      "type": "function"
    },
    {
      "inputs": [],
      "name": "renounceOwnership",
      "outputs": [],
      "stateMutability": "nonpayable",
      "type": "function"
    },
    {
      "inputs": [
        {
          "internalType": "string",
          "name": "_pickup",
          "type": "string"
        },
        {
          "internalType": "string",
          "name": "_drop",
          "type": "string"
        }
      ],
      "name": "requestRide",
      "outputs": [],
      "stateMutability": "payable",
      "type": "function"
    },
    {
      "inputs": [],
      "name": "rideCount",
      "outputs": [
        {
          "internalType": "uint256",
          "name": "",
          "type": "uint256"
        }
      ],
      "stateMutability": "view",
      "type": "function"
    },
    {
      "inputs": [
        {
          "internalType": "uint256",
          "name": "",
          "type": "uint256"
        }
      ],
      "name": "rides",
      "outputs": [
        {
          "internalType": "address payable",
          "name": "rider",
          "type": "address"
        },
        {
          "internalType": "address payable",
          "name": "driver",
          "type": "address"
        },
        {
          "internalType": "uint256",
          "name": "fare",
          "type": "uint256"
        },
        {
          "internalType": "bool",
          "name": "rideCompleted",
          "type": "bool"
        },
        {
          "internalType": "string",
          "name": "estdTime",
          "type": "string"
        },
        {
          "internalType": "uint256",
          "name": "rating",
          "type": "uint256"
        }
      ],
      "stateMutability": "view",
      "type": "function"
    },
    {
      "inputs": [
        {
          "internalType": "uint256",
          "name": "newPrice",
          "type": "uint256"
        }
      ],
      "name": "setPricePerMeter",
      "outputs": [],
      "stateMutability": "nonpayable",
      "type": "function"
    },
    {
      "inputs": [],
      "name": "status",
      "outputs": [
        {
          "internalType": "string",
          "name": "",
          "type": "string"
        }
      ],
      "stateMutability": "view",
      "type": "function"
    },
    {
      "inputs": [
        {
          "internalType": "address",
          "name": "newOwner",
          "type": "address"
        }
      ],
      "name": "transferOwnership",
      "outputs": [],
      "stateMutability": "nonpayable",
      "type": "function"
    },
    {
      "stateMutability": "payable",
      "type": "receive"
    }
  ],
  "bytecode": "0x608060405260016005556103e8600a553480156200001c57600080fd5b506200002833620000ea565b600380546001600160a01b03191673326c977e6efc84e512bb9c30f76e30c160ed06fb179055600480546001600160a01b0319167340193c8518bb267228fc409a613bdbd8ec5a97b3179055600b80546001600160a01b0319167340193c8518bb267228fc409a613bdbd8ec5a97b31790557f3764383061363338366566353433613361626235323831376636373037653362600c55600a620000d5670de0b6b3a764000060016200013a565b620000e1919062000166565b600d5562000189565b600080546001600160a01b038381166001600160a01b0319831681178455604051919092169283917f8be0079c531659141344cd1fd0a4f28419497f9722a3daafe3b4186f6b6457e09190a35050565b80820281158282048414176200016057634e487b7160e01b600052601160045260246000fd5b92915050565b6000826200018457634e487b7160e01b600052601260045260246000fd5b500490565b611f0a80620001996000396000f3fe60806040526004361061010d5760003560e01c80637c7b0ff411610095578063b47c188311610064578063b47c1883146102c5578063c51562cb146102db578063cdc230b0146102fb578063f2fde38b1461031b578063ff46f4ad1461033b57600080fd5b80637c7b0ff41461024a5780638da5cb5b14610277578063a6f07b291461029f578063ac4bfb03146102b257600080fd5b80634d3820eb116100dc5780634d3820eb146101b95780635205f112146101ce5780636bad66f614610200578063712bfa1e14610220578063715018a61461023557600080fd5b80630e50cee514610119578063200d2ed21461015e57806346912fa5146101805780634851375c1461019557600080fd5b3661011457005b600080fd5b34801561012557600080fd5b5061014961013436600461172f565b60086020526000908152604090205460ff1681565b60405190151581526020015b60405180910390f35b34801561016a57600080fd5b50610173610351565b60405161015591906117af565b61019361018e3660046117c2565b6103df565b005b3480156101a157600080fd5b506101ab600e5481565b604051908152602001610155565b3480156101c557600080fd5b50610193610585565b3480156101da57600080fd5b506101ee6101e93660046117e4565b610627565b604051610155969594939291906117fd565b34801561020c57600080fd5b5061019361021b3660046117e4565b6106f7565b34801561022c57600080fd5b50600a546101ab565b34801561024157600080fd5b50610193610704565b34801561025657600080fd5b5061026a6102653660046117e4565b610718565b604051610155919061184a565b34801561028357600080fd5b506000546040516001600160a01b039091168152602001610155565b6101936102ad3660046117e4565b610845565b6101936102c0366004611956565b6109e6565b3480156102d157600080fd5b506101ab60095481565b3480156102e757600080fd5b506101936102f63660046117e4565b610b4f565b34801561030757600080fd5b506101936103163660046119ba565b610c53565b34801561032757600080fd5b5061019361033636600461172f565b610d54565b34801561034757600080fd5b506101ab600a5481565b600f805461035e906119f7565b80601f016020809104026020016040519081016040528092919081815260200182805461038a906119f7565b80156103d75780601f106103ac576101008083540402835291602001916103d7565b820191906000526020600020905b8154815290600101906020018083116103ba57829003601f168201915b505050505081565b600082815260076020526040902080546001600160a01b0316331461044b5760405162461bcd60e51b815260206004820181905260248201527f4f6e6c792072696465722063616e20636f6d706c65746520746865207269646560448201526064015b60405180910390fd5b600381015460ff16156104a05760405162461bcd60e51b815260206004820152601660248201527f5269646520616c726561647920636f6d706c65746564000000000000000000006044820152606401610442565b80600201543410156104b157600080fd5b60038101805460ff1916600117905560058101829055805460405184916001600160a01b0316907fed11881b5dd0f44958691c5ac088d3a81ac7e8f8bbd6dd990a8b427f8c3b38ef90600090a3805460405183815284916001600160a01b0316907fe98cf6f49fe14bfcccf0fe5dda3a92e34aa6a8f8efae027d95930c416fcc3ac39060200160405180910390a3600181015460028201546040516001600160a01b039092169181156108fc0291906000818181858888f1935050505015801561057f573d6000803e3d6000fd5b50505050565b3360009081526008602052604090205460ff16156105e55760405162461bcd60e51b815260206004820152601760248201527f5573657220616c726561647920726567697374657265640000000000000000006044820152606401610442565b33600081815260086020526040808220805460ff19166001179055517f54db7a5cb4735e1aac1f53db512d3390390bb6637bd30ad4bf9fc98667d9b9b99190a2565b600760205260009081526040902080546001820154600283015460038401546004850180546001600160a01b03958616969490951694929360ff9092169261066e906119f7565b80601f016020809104026020016040519081016040528092919081815260200182805461069a906119f7565b80156106e75780601f106106bc576101008083540402835291602001916106e7565b820191906000526020600020905b8154815290600101906020018083116106ca57829003601f168201915b5050505050908060050154905086565b6106ff610dcd565b600a55565b61070c610dcd565b6107166000610e27565b565b6040805160c0810182526000808252602082018190529181018290526060808201839052608082015260a0810191909152600082815260076020908152604091829020825160c08101845281546001600160a01b03908116825260018301541692810192909252600281015492820192909252600382015460ff16151560608201526004820180549192916080840191906107b2906119f7565b80601f01602080910402602001604051908101604052809291908181526020018280546107de906119f7565b801561082b5780601f106108005761010080835404028352916020019161082b565b820191906000526020600020905b81548152906001019060200180831161080e57829003601f168201915b505050505081526020016005820154815250509050919050565b600081815260076020526040902080546001600160a01b031633146108ac5760405162461bcd60e51b815260206004820152601e60248201527f4f6e6c792072696465722063616e2063616e63656c20746865207269646500006044820152606401610442565b60018101546001600160a01b0316156109135760405162461bcd60e51b8152602060048201526024808201527f5269646520616c72656164792061636365707465642c2063616e6e6f742063616044820152631b98d95b60e21b6064820152608401610442565b600381015460ff16156109685760405162461bcd60e51b815260206004820152601660248201527f5269646520616c726561647920636f6d706c65746564000000000000000000006044820152606401610442565b60038101805460ff19166001179055604051829033907f94654e1242c379bfa05e192407226c3e8b0862176f28e48c23aff6057a82798d90600090a3805460028201546040516001600160a01b039092169181156108fc0291906000818181858888f193505050501580156109e1573d6000803e3d6000fd5b505050565b3360009081526008602052604090205460ff16610a3b5760405162461bcd60e51b8152602060048201526013602482015272155cd95c881b9bdd081c9959da5cdd195c9959606a1b6044820152606401610442565b610a458282610e77565b506040805160c0810182523381526000602080830182815283850183815260608501848152865180850188528581526080870190815260a087018690526009548652600790945295909320845181546001600160a01b03199081166001600160a01b03928316178355925160018301805490941691161790915591516002830155925160038201805460ff191691151591909117905591519091906004820190610aef9082611a79565b5060a091909101516005909101556009546040516000815233907f0b365df8b2edeb27d7b308aaf9ad3e1f2ff53483d6893ab98c780885ba4bc6399060200160405180910390a360098054906000610b4683611b4f565b91905055505050565b600081815260076020908152604080832033845260089092529091205460ff16610bb15760405162461bcd60e51b8152602060048201526013602482015272155cd95c881b9bdd081c9959da5cdd195c9959606a1b6044820152606401610442565b60018101546001600160a01b031615610c0c5760405162461bcd60e51b815260206004820152601560248201527f5269646520616c726561647920616363657074656400000000000000000000006044820152606401610442565b6001810180546001600160a01b031916339081179091556040518391907f87348e58c77a96989aaef43c7d87d383c1f283c3a3c3d319b96630ef2c0f906a90600090a35050565b60008281526006602052604090205482906001600160a01b03163314610ccc5760405162461bcd60e51b815260206004820152602860248201527f536f75726365206d75737420626520746865206f7261636c65206f6620746865604482015267081c995c5d595cdd60c21b6064820152608401610442565b60008181526006602052604080822080546001600160a01b03191690555182917f7cc135e0cebb02c3480ae5d74d377283180a2601f8f644edf7987b009316c63a91a27f9ba3b568d237411b006cd782aa975fd1783097cb4198316e11a24cf10f4f3f8e8383604051610d40929190611b68565b60405180910390a1600f61057f8382611a79565b610d5c610dcd565b6001600160a01b038116610dc15760405162461bcd60e51b815260206004820152602660248201527f4f776e61626c653a206e6577206f776e657220697320746865207a65726f206160448201526564647265737360d01b6064820152608401610442565b610dca81610e27565b50565b6000546001600160a01b031633146107165760405162461bcd60e51b815260206004820181905260248201527f4f776e61626c653a2063616c6c6572206973206e6f7420746865206f776e65726044820152606401610442565b600080546001600160a01b038381166001600160a01b0319831681178455604051919092169283917f8be0079c531659141344cd1fd0a4f28419497f9722a3daafe3b4186f6b6457e09190a35050565b6000610e838383610e9c565b600a54600e54610e939190611b81565b90505b92915050565b6000610eb2600c543063cdc230b060e01b610fd0565b90506000604051806060016040528060388152602001611e9d603891396040805180820190915260088152671a5b5c195c9a585b60c21b60208201529091506000858583610efe611061565b604051602001610f119493929190611b98565b6040516020818303038152906040529050610f6c6040518060400160405280600381526020016219d95d60ea1b8152508483604051602001610f54929190611c54565b60408051601f19818403018152919052869190611084565b610fbb604051806040016040528060048152602001630e0c2e8d60e31b8152506040518060400160405280600681526020016573746174757360d01b815250866110849092919063ffffffff16565b610fc784600d546110a2565b50505050505050565b61100e6040805160a0810182526000808252602080830182905282840182905260608084018390528451808601909552845283015290608082015290565b61104c6040805160a0810182526000808252602080830182905282840182905260608084018390528451808601909552845283015290608082015290565b611058818686866110bc565b95945050505050565b60606000604051806060016040528060278152602001611e766027913992915050565b60808301516110939083611138565b60808301516109e19082611138565b600454600090610e93906001600160a01b0316848461114f565b6110fa6040805160a0810182526000808252602080830182905282840182905260608084018390528451808601909552845283015290608082015290565b61110a85608001516101006111f7565b50508284526001600160a01b03821660208501526001600160e01b031981166040850152835b949350505050565b611145826003835161125c565b6109e1828261136b565b600554600090611160816001611c90565b600555835160408086015160808701515191516000936320214ca360e11b936111989386938493923092918a91600191602401611ca3565b60408051601f198184030181529190526020810180517bffffffffffffffffffffffffffffffffffffffffffffffffffffffff166001600160e01b03199093169290921790915290506111ed86838684611392565b9695505050505050565b604080518082019091526060815260006020820152611217602083611d06565b1561123f57611227602083611d06565b611232906020611d28565b61123c9083611c90565b91505b506020828101829052604080518085526000815290920101905290565b60178167ffffffffffffffff16116112815761057f8360e0600585901b1683176114f0565b60ff8167ffffffffffffffff16116112bf576112a8836018611fe0600586901b16176114f0565b5061057f8367ffffffffffffffff83166001611515565b61ffff8167ffffffffffffffff16116112fe576112e7836019611fe0600586901b16176114f0565b5061057f8367ffffffffffffffff83166002611515565b63ffffffff8167ffffffffffffffff161161133f5761132883601a611fe0600586901b16176114f0565b5061057f8367ffffffffffffffff83166004611515565b61135483601b611fe0600586901b16176114f0565b5061057f8367ffffffffffffffff83166008611515565b604080518082019091526060815260006020820152610e938384600001515184855161153b565b6040516bffffffffffffffffffffffff193060601b1660208201526034810184905260009060540160408051808303601f1901815282825280516020918201206000818152600690925291812080546001600160a01b0319166001600160a01b038a1617905590925082917fb5e6e01e79f91267dc17b4e6314d5d4d03593d2ceee0fbb452b750bd70ea5af99190a2600354604051630200057560e51b81526001600160a01b0390911690634000aea09061145590889087908790600401611d3b565b6020604051808303816000875af1158015611474573d6000803e3d6000fd5b505050506040513d601f19601f820116820180604052508101906114989190611d63565b6111305760405162461bcd60e51b815260206004820152602360248201527f756e61626c6520746f207472616e73666572416e6443616c6c20746f206f7261604482015262636c6560e81b6064820152608401610442565b604080518082019091526060815260006020820152610e938384600001515184611625565b604080518082019091526060815260006020820152611130848560000151518585611680565b604080518082019091526060815260006020820152825182111561155e57600080fd5b602085015161156d8386611c90565b11156115a0576115a0856115908760200151878661158b9190611c90565b611701565b61159b906002611b81565b611718565b6000808651805187602083010193508088870111156115bf5787860182525b505050602084015b602084106115ff57805182526115de602083611c90565b91506115eb602082611c90565b90506115f8602085611d28565b93506115c7565b51815160001960208690036101000a019081169019919091161790525083949350505050565b6040805180820190915260608152600060208201528360200151831061165a5761165a848560200151600261159b9190611b81565b8351805160208583010184815350808503611676576001810182525b5093949350505050565b60408051808201909152606081526000602082015260208501516116a48584611c90565b11156116b8576116b8856115908685611c90565b600060016116c884610100611e69565b6116d29190611d28565b90508551838682010185831982511617815250805184870111156116f65783860181525b509495945050505050565b600081831115611712575081610e96565b50919050565b815161172483836111f7565b5061057f838261136b565b60006020828403121561174157600080fd5b81356001600160a01b038116811461175857600080fd5b9392505050565b60005b8381101561177a578181015183820152602001611762565b50506000910152565b6000815180845261179b81602086016020860161175f565b601f01601f19169290920160200192915050565b602081526000610e936020830184611783565b600080604083850312156117d557600080fd5b50508035926020909101359150565b6000602082840312156117f657600080fd5b5035919050565b60006001600160a01b038089168352808816602084015250856040830152841515606083015260c0608083015261183760c0830185611783565b90508260a0830152979650505050505050565b6020815260006001600160a01b038084511660208401528060208501511660408401525060408301516060830152606083015115156080830152608083015160c060a084015261189d60e0840182611783565b905060a084015160c08401528091505092915050565b634e487b7160e01b600052604160045260246000fd5b600082601f8301126118da57600080fd5b813567ffffffffffffffff808211156118f5576118f56118b3565b604051601f8301601f19908116603f0116810190828211818310171561191d5761191d6118b3565b8160405283815286602085880101111561193657600080fd5b836020870160208301376000602085830101528094505050505092915050565b6000806040838503121561196957600080fd5b823567ffffffffffffffff8082111561198157600080fd5b61198d868387016118c9565b935060208501359150808211156119a357600080fd5b506119b0858286016118c9565b9150509250929050565b600080604083850312156119cd57600080fd5b82359150602083013567ffffffffffffffff8111156119eb57600080fd5b6119b0858286016118c9565b600181811c90821680611a0b57607f821691505b60208210810361171257634e487b7160e01b600052602260045260246000fd5b601f8211156109e157600081815260208120601f850160051c81016020861015611a525750805b601f850160051c820191505b81811015611a7157828155600101611a5e565b505050505050565b815167ffffffffffffffff811115611a9357611a936118b3565b611aa781611aa184546119f7565b84611a2b565b602080601f831160018114611adc5760008415611ac45750858301515b600019600386901b1c1916600185901b178555611a71565b600085815260208120601f198616915b82811015611b0b57888601518255948401946001909101908401611aec565b5085821015611b295787850151600019600388901b60f8161c191681555b5050505050600190811b01905550565b634e487b7160e01b600052601160045260246000fd5b600060018201611b6157611b61611b39565b5060010190565b8281526040602082015260006111306040830184611783565b8082028115828204841417610e9657610e96611b39565b676f726967696e733d60c01b815260008551611bbb816008850160208a0161175f565b7f2664657374696e6174696f6e733d0000000000000000000000000000000000006008918401918201528551611bf8816016840160208a0161175f565b6626756e6974733d60c81b601692909101918201528451611c2081601d84016020890161175f565b64266b65793d60d81b601d92909101918201528351611c4681602284016020880161175f565b016022019695505050505050565b60008351611c6681846020880161175f565b603f60f81b9083019081528351611c8481600184016020880161175f565b01600101949350505050565b80820180821115610e9657610e96611b39565b60006101006001600160a01b03808c1684528a602085015289604085015280891660608501525063ffffffff60e01b871660808401528560a08401528460c08401528060e0840152611cf781840185611783565b9b9a5050505050505050505050565b600082611d2357634e487b7160e01b600052601260045260246000fd5b500690565b81810381811115610e9657610e96611b39565b6001600160a01b03841681528260208201526060604082015260006110586060830184611783565b600060208284031215611d7557600080fd5b8151801515811461175857600080fd5b600181815b80851115611dc0578160001904821115611da657611da6611b39565b80851615611db357918102915b93841c9390800290611d8a565b509250929050565b600082611dd757506001610e96565b81611de457506000610e96565b8160018114611dfa5760028114611e0457611e20565b6001915050610e96565b60ff841115611e1557611e15611b39565b50506001821b610e96565b5060208310610133831016604e8410600b8410161715611e43575081810a610e96565b611e4d8383611d85565b8060001904821115611e6157611e61611b39565b029392505050565b6000610e938383611dc856fe41497a61537944463072677a31376a3951504939344e77443852506963386b745669773879495568747470733a2f2f6d6170732e676f6f676c65617069732e636f6d2f6d6170732f6170692f64697374616e63656d61747269782f6a736f6ea26469706673582212208c3530366938ac69d6a1720259ab15256b6e6ea2522c189224c5f9f257a97b0964736f6c63430008110033",
  "linkReferences": {},
  "deployedLinkReferences": {}
}